{
	"kepeng.sol": {
		"KEPENG": {
			"abi": [
				{
					"inputs": [],
					"stateMutability": "nonpayable",
					"type": "constructor"
				},
				{
					"anonymous": false,
					"inputs": [
						{
							"indexed": true,
							"internalType": "address",
							"name": "owner",
							"type": "address"
						},
						{
							"indexed": true,
							"internalType": "address",
							"name": "spender",
							"type": "address"
						},
						{
							"indexed": false,
							"internalType": "uint256",
							"name": "value",
							"type": "uint256"
						}
					],
					"name": "Approval",
					"type": "event"
				},
				{
					"anonymous": false,
					"inputs": [
						{
							"indexed": true,
							"internalType": "address",
							"name": "previousOwner",
							"type": "address"
						},
						{
							"indexed": true,
							"internalType": "address",
							"name": "newOwner",
							"type": "address"
						}
					],
					"name": "OwnershipTransferred",
					"type": "event"
				},
				{
					"anonymous": false,
					"inputs": [
						{
							"indexed": false,
							"internalType": "address",
							"name": "account",
							"type": "address"
						}
					],
					"name": "Paused",
					"type": "event"
				},
				{
					"anonymous": false,
					"inputs": [
						{
							"indexed": true,
							"internalType": "address",
							"name": "from",
							"type": "address"
						},
						{
							"indexed": true,
							"internalType": "address",
							"name": "to",
							"type": "address"
						},
						{
							"indexed": false,
							"internalType": "uint256",
							"name": "value",
							"type": "uint256"
						}
					],
					"name": "Transfer",
					"type": "event"
				},
				{
					"anonymous": false,
					"inputs": [
						{
							"indexed": false,
							"internalType": "address",
							"name": "account",
							"type": "address"
						}
					],
					"name": "Unpaused",
					"type": "event"
				},
				{
					"inputs": [
						{
							"internalType": "address",
							"name": "owner",
							"type": "address"
						},
						{
							"internalType": "address",
							"name": "spender",
							"type": "address"
						}
					],
					"name": "allowance",
					"outputs": [
						{
							"internalType": "uint256",
							"name": "",
							"type": "uint256"
						}
					],
					"stateMutability": "view",
					"type": "function"
				},
				{
					"inputs": [
						{
							"internalType": "address",
							"name": "spender",
							"type": "address"
						},
						{
							"internalType": "uint256",
							"name": "amount",
							"type": "uint256"
						}
					],
					"name": "approve",
					"outputs": [
						{
							"internalType": "bool",
							"name": "",
							"type": "bool"
						}
					],
					"stateMutability": "nonpayable",
					"type": "function"
				},
				{
					"inputs": [
						{
							"internalType": "address",
							"name": "account",
							"type": "address"
						}
					],
					"name": "balanceOf",
					"outputs": [
						{
							"internalType": "uint256",
							"name": "",
							"type": "uint256"
						}
					],
					"stateMutability": "view",
					"type": "function"
				},
				{
					"inputs": [
						{
							"internalType": "uint256",
							"name": "amount",
							"type": "uint256"
						}
					],
					"name": "burn",
					"outputs": [],
					"stateMutability": "nonpayable",
					"type": "function"
				},
				{
					"inputs": [
						{
							"internalType": "address",
							"name": "account",
							"type": "address"
						},
						{
							"internalType": "uint256",
							"name": "amount",
							"type": "uint256"
						}
					],
					"name": "burnFrom",
					"outputs": [],
					"stateMutability": "nonpayable",
					"type": "function"
				},
				{
					"inputs": [],
					"name": "decimals",
					"outputs": [
						{
							"internalType": "uint8",
							"name": "",
							"type": "uint8"
						}
					],
					"stateMutability": "view",
					"type": "function"
				},
				{
					"inputs": [
						{
							"internalType": "address",
							"name": "spender",
							"type": "address"
						},
						{
							"internalType": "uint256",
							"name": "subtractedValue",
							"type": "uint256"
						}
					],
					"name": "decreaseAllowance",
					"outputs": [
						{
							"internalType": "bool",
							"name": "",
							"type": "bool"
						}
					],
					"stateMutability": "nonpayable",
					"type": "function"
				},
				{
					"inputs": [
						{
							"internalType": "address",
							"name": "spender",
							"type": "address"
						},
						{
							"internalType": "uint256",
							"name": "addedValue",
							"type": "uint256"
						}
					],
					"name": "increaseAllowance",
					"outputs": [
						{
							"internalType": "bool",
							"name": "",
							"type": "bool"
						}
					],
					"stateMutability": "nonpayable",
					"type": "function"
				},
				{
					"inputs": [],
					"name": "name",
					"outputs": [
						{
							"internalType": "string",
							"name": "",
							"type": "string"
						}
					],
					"stateMutability": "view",
					"type": "function"
				},
				{
					"inputs": [],
					"name": "owner",
					"outputs": [
						{
							"internalType": "address",
							"name": "",
							"type": "address"
						}
					],
					"stateMutability": "view",
					"type": "function"
				},
				{
					"inputs": [],
					"name": "pause",
					"outputs": [],
					"stateMutability": "nonpayable",
					"type": "function"
				},
				{
					"inputs": [],
					"name": "paused",
					"outputs": [
						{
							"internalType": "bool",
							"name": "",
							"type": "bool"
						}
					],
					"stateMutability": "view",
					"type": "function"
				},
				{
					"inputs": [],
					"name": "renounceOwnership",
					"outputs": [],
					"stateMutability": "nonpayable",
					"type": "function"
				},
				{
					"inputs": [],
					"name": "symbol",
					"outputs": [
						{
							"internalType": "string",
							"name": "",
							"type": "string"
						}
					],
					"stateMutability": "view",
					"type": "function"
				},
				{
					"inputs": [],
					"name": "totalSupply",
					"outputs": [
						{
							"internalType": "uint256",
							"name": "",
							"type": "uint256"
						}
					],
					"stateMutability": "view",
					"type": "function"
				},
				{
					"inputs": [
						{
							"internalType": "address",
							"name": "recipient",
							"type": "address"
						},
						{
							"internalType": "uint256",
							"name": "amount",
							"type": "uint256"
						}
					],
					"name": "transfer",
					"outputs": [
						{
							"internalType": "bool",
							"name": "",
							"type": "bool"
						}
					],
					"stateMutability": "nonpayable",
					"type": "function"
				},
				{
					"inputs": [
						{
							"internalType": "address",
							"name": "sender",
							"type": "address"
						},
						{
							"internalType": "address",
							"name": "recipient",
							"type": "address"
						},
						{
							"internalType": "uint256",
							"name": "amount",
							"type": "uint256"
						}
					],
					"name": "transferFrom",
					"outputs": [
						{
							"internalType": "bool",
							"name": "",
							"type": "bool"
						}
					],
					"stateMutability": "nonpayable",
					"type": "function"
				},
				{
					"inputs": [
						{
							"internalType": "address",
							"name": "newOwner",
							"type": "address"
						}
					],
					"name": "transferOwnership",
					"outputs": [],
					"stateMutability": "nonpayable",
					"type": "function"
				},
				{
					"inputs": [],
					"name": "unpause",
					"outputs": [],
					"stateMutability": "nonpayable",
					"type": "function"
				}
			],
			"devdoc": {
				"kind": "dev",
				"methods": {
					"allowance(address,address)": {
						"details": "See {IERC20-allowance}."
					},
					"approve(address,uint256)": {
						"details": "See {IERC20-approve}. Requirements: - `spender` cannot be the zero address."
					},
					"balanceOf(address)": {
						"details": "See {IERC20-balanceOf}."
					},
					"burn(uint256)": {
						"details": "Destroys `amount` tokens from the caller. See {ERC20-_burn}."
					},
					"burnFrom(address,uint256)": {
						"details": "Destroys `amount` tokens from `account`, deducting from the caller's allowance. See {ERC20-_burn} and {ERC20-allowance}. Requirements: - the caller must have allowance for ``accounts``'s tokens of at least `amount`."
					},
					"decimals()": {
						"details": "Returns the number of decimals used to get its user representation. For example, if `decimals` equals `2`, a balance of `505` tokens should be displayed to a user as `5.05` (`505 / 10 ** 2`). Tokens usually opt for a value of 18, imitating the relationship between Ether and Wei. This is the value {ERC20} uses, unless this function is overridden; NOTE: This information is only used for _display_ purposes: it in no way affects any of the arithmetic of the contract, including {IERC20-balanceOf} and {IERC20-transfer}."
					},
					"decreaseAllowance(address,uint256)": {
						"details": "Atomically decreases the allowance granted to `spender` by the caller. This is an alternative to {approve} that can be used as a mitigation for problems described in {IERC20-approve}. Emits an {Approval} event indicating the updated allowance. Requirements: - `spender` cannot be the zero address. - `spender` must have allowance for the caller of at least `subtractedValue`."
					},
					"increaseAllowance(address,uint256)": {
						"details": "Atomically increases the allowance granted to `spender` by the caller. This is an alternative to {approve} that can be used as a mitigation for problems described in {IERC20-approve}. Emits an {Approval} event indicating the updated allowance. Requirements: - `spender` cannot be the zero address."
					},
					"name()": {
						"details": "Returns the name of the token."
					},
					"owner()": {
						"details": "Returns the address of the current owner."
					},
					"paused()": {
						"details": "Returns true if the contract is paused, and false otherwise."
					},
					"renounceOwnership()": {
						"details": "Leaves the contract without owner. It will not be possible to call `onlyOwner` functions anymore. Can only be called by the current owner. NOTE: Renouncing ownership will leave the contract without an owner, thereby removing any functionality that is only available to the owner."
					},
					"symbol()": {
						"details": "Returns the symbol of the token, usually a shorter version of the name."
					},
					"totalSupply()": {
						"details": "See {IERC20-totalSupply}."
					},
					"transfer(address,uint256)": {
						"details": "See {IERC20-transfer}. Requirements: - `recipient` cannot be the zero address. - the caller must have a balance of at least `amount`."
					},
					"transferFrom(address,address,uint256)": {
						"details": "See {IERC20-transferFrom}. Emits an {Approval} event indicating the updated allowance. This is not required by the EIP. See the note at the beginning of {ERC20}. Requirements: - `sender` and `recipient` cannot be the zero address. - `sender` must have a balance of at least `amount`. - the caller must have allowance for ``sender``'s tokens of at least `amount`."
					},
					"transferOwnership(address)": {
						"details": "Transfers ownership of the contract to a new account (`newOwner`). Can only be called by the current owner."
					}
				},
				"version": 1
			},
			"evm": {
				"assembly": "    /* \"kepeng.sol\":19766:20288  contract KEPENG is ERC20, ERC20Burnable, Pausable, Ownable {\r... */\n  mstore(0x40, 0x80)\n    /* \"kepeng.sol\":19832:19936  constructor() ERC20(\"KEPENG\", \"KPG\") {\r... */\n  callvalue\n  dup1\n  iszero\n  tag_1\n  jumpi\n  0x00\n  dup1\n  revert\ntag_1:\n  pop\n    /* \"kepeng.sol\":4820:4936  constructor(string memory name_, string memory symbol_) {\r... */\n  mload(0x40)\n  dup1\n  0x40\n  add\n  0x40\n  mstore\n  dup1\n  0x06\n  dup2\n  mstore\n  0x20\n  add\n  0x4b4550454e470000000000000000000000000000000000000000000000000000\n  dup2\n  mstore\n  pop\n  mload(0x40)\n  dup1\n  0x40\n  add\n  0x40\n  mstore\n  dup1\n  0x03\n  dup2\n  mstore\n  0x20\n  add\n  0x4b50470000000000000000000000000000000000000000000000000000000000\n  dup2\n  mstore\n  pop\n    /* \"kepeng.sol\":4895:4900  name_ */\n  dup2\n    /* \"kepeng.sol\":4887:4892  _name */\n  0x03\n    /* \"kepeng.sol\":4887:4900  _name = name_ */\n  swap1\n  dup1\n  mload\n  swap1\n  0x20\n  add\n  swap1\n  tag_7\n  swap3\n  swap2\n  swap1\n  tag_8\n  jump\t// in\ntag_7:\n  pop\n    /* \"kepeng.sol\":4921:4928  symbol_ */\n  dup1\n    /* \"kepeng.sol\":4911:4918  _symbol */\n  0x04\n    /* \"kepeng.sol\":4911:4928  _symbol = symbol_ */\n  swap1\n  dup1\n  mload\n  swap1\n  0x20\n  add\n  swap1\n  tag_9\n  swap3\n  swap2\n  swap1\n  tag_8\n  jump\t// in\ntag_9:\n  pop\n    /* \"kepeng.sol\":4820:4936  constructor(string memory name_, string memory symbol_) {\r... */\n  pop\n  pop\n    /* \"kepeng.sol\":16547:16552  false */\n  0x00\n    /* \"kepeng.sol\":16537:16544  _paused */\n  0x05\n  0x00\n    /* \"kepeng.sol\":16537:16552  _paused = false */\n  0x0100\n  exp\n  dup2\n  sload\n  dup2\n  0xff\n  mul\n  not\n  and\n  swap1\n  dup4\n  iszero\n  iszero\n  mul\n  or\n  swap1\n  sstore\n  pop\n    /* \"kepeng.sol\":18135:18167  _transferOwnership(_msgSender()) */\n  tag_12\n    /* \"kepeng.sol\":18154:18166  _msgSender() */\n  tag_13\n    /* \"kepeng.sol\":18154:18164  _msgSender */\n  shl(0x20, tag_14)\n    /* \"kepeng.sol\":18154:18166  _msgSender() */\n  0x20\n  shr\n  jump\t// in\ntag_13:\n    /* \"kepeng.sol\":18135:18153  _transferOwnership */\n  shl(0x20, tag_15)\n    /* \"kepeng.sol\":18135:18167  _transferOwnership(_msgSender()) */\n  0x20\n  shr\n  jump\t// in\ntag_12:\n    /* \"kepeng.sol\":19880:19928  _mint(msg.sender, 1000000000 * 10 ** decimals()) */\n  tag_17\n    /* \"kepeng.sol\":19886:19896  msg.sender */\n  caller\n    /* \"kepeng.sol\":19917:19927  decimals() */\n  tag_18\n    /* \"kepeng.sol\":19917:19925  decimals */\n  shl(0x20, tag_19)\n    /* \"kepeng.sol\":19917:19927  decimals() */\n  0x20\n  shr\n  jump\t// in\ntag_18:\n    /* \"kepeng.sol\":19911:19913  10 */\n  0x0a\n    /* \"kepeng.sol\":19911:19927  10 ** decimals() */\n  tag_20\n  swap2\n  swap1\n  tag_21\n  jump\t// in\ntag_20:\n    /* \"kepeng.sol\":19898:19908  1000000000 */\n  0x3b9aca00\n    /* \"kepeng.sol\":19898:19927  1000000000 * 10 ** decimals() */\n  tag_22\n  swap2\n  swap1\n  tag_23\n  jump\t// in\ntag_22:\n    /* \"kepeng.sol\":19880:19885  _mint */\n  shl(0x20, tag_24)\n    /* \"kepeng.sol\":19880:19928  _mint(msg.sender, 1000000000 * 10 ** decimals()) */\n  0x20\n  shr\n  jump\t// in\ntag_17:\n    /* \"kepeng.sol\":19766:20288  contract KEPENG is ERC20, ERC20Burnable, Pausable, Ownable {\r... */\n  jump(tag_25)\n    /* \"kepeng.sol\":4014:4112  function _msgSender() internal view virtual returns (address) {\r... */\ntag_14:\n    /* \"kepeng.sol\":4067:4074  address */\n  0x00\n    /* \"kepeng.sol\":4094:4104  msg.sender */\n  caller\n    /* \"kepeng.sol\":4087:4104  return msg.sender */\n  swap1\n  pop\n    /* \"kepeng.sol\":4014:4112  function _msgSender() internal view virtual returns (address) {\r... */\n  swap1\n  jump\t// out\n    /* \"kepeng.sol\":19526:19717  function _transferOwnership(address newOwner) internal virtual {\r... */\ntag_15:\n    /* \"kepeng.sol\":19600:19616  address oldOwner */\n  0x00\n    /* \"kepeng.sol\":19619:19625  _owner */\n  0x05\n  0x01\n  swap1\n  sload\n  swap1\n  0x0100\n  exp\n  swap1\n  div\n  0xffffffffffffffffffffffffffffffffffffffff\n  and\n    /* \"kepeng.sol\":19600:19625  address oldOwner = _owner */\n  swap1\n  pop\n    /* \"kepeng.sol\":19645:19653  newOwner */\n  dup2\n    /* \"kepeng.sol\":19636:19642  _owner */\n  0x05\n  0x01\n    /* \"kepeng.sol\":19636:19653  _owner = newOwner */\n  0x0100\n  exp\n  dup2\n  sload\n  dup2\n  0xffffffffffffffffffffffffffffffffffffffff\n  mul\n  not\n  and\n  swap1\n  dup4\n  0xffffffffffffffffffffffffffffffffffffffff\n  and\n  mul\n  or\n  swap1\n  sstore\n  pop\n    /* \"kepeng.sol\":19700:19708  newOwner */\n  dup2\n    /* \"kepeng.sol\":19669:19709  OwnershipTransferred(oldOwner, newOwner) */\n  0xffffffffffffffffffffffffffffffffffffffff\n  and\n    /* \"kepeng.sol\":19690:19698  oldOwner */\n  dup2\n    /* \"kepeng.sol\":19669:19709  OwnershipTransferred(oldOwner, newOwner) */\n  0xffffffffffffffffffffffffffffffffffffffff\n  and\n  0x8be0079c531659141344cd1fd0a4f28419497f9722a3daafe3b4186f6b6457e0\n  mload(0x40)\n  mload(0x40)\n  dup1\n  swap2\n  sub\n  swap1\n  log3\n    /* \"kepeng.sol\":19526:19717  function _transferOwnership(address newOwner) internal virtual {\r... */\n  pop\n  pop\n  jump\t// out\n    /* \"kepeng.sol\":5968:6060  function decimals() public view virtual override returns (uint8) {\r... */\ntag_19:\n    /* \"kepeng.sol\":6026:6031  uint8 */\n  0x00\n    /* \"kepeng.sol\":6051:6052  4 */\n  0x04\n    /* \"kepeng.sol\":6044:6052  return 4 */\n  swap1\n  pop\n    /* \"kepeng.sol\":5968:6060  function decimals() public view virtual override returns (uint8) {\r... */\n  swap1\n  jump\t// out\n    /* \"kepeng.sol\":11365:11764  function _mint(address account, uint256 amount) internal virtual {\r... */\ntag_24:\n    /* \"kepeng.sol\":11468:11469  0 */\n  0x00\n    /* \"kepeng.sol\":11449:11470  account != address(0) */\n  0xffffffffffffffffffffffffffffffffffffffff\n  and\n    /* \"kepeng.sol\":11449:11456  account */\n  dup3\n    /* \"kepeng.sol\":11449:11470  account != address(0) */\n  0xffffffffffffffffffffffffffffffffffffffff\n  and\n  eq\n  iszero\n    /* \"kepeng.sol\":11441:11506  require(account != address(0), \"ERC20: mint to the zero address\") */\n  tag_30\n  jumpi\n  mload(0x40)\n  0x08c379a000000000000000000000000000000000000000000000000000000000\n  dup2\n  mstore\n  0x04\n  add\n  tag_31\n  swap1\n  tag_32\n  jump\t// in\ntag_31:\n  mload(0x40)\n  dup1\n  swap2\n  sub\n  swap1\n  revert\ntag_30:\n    /* \"kepeng.sol\":11519:11568  _beforeTokenTransfer(address(0), account, amount) */\n  tag_33\n    /* \"kepeng.sol\":11548:11549  0 */\n  0x00\n    /* \"kepeng.sol\":11552:11559  account */\n  dup4\n    /* \"kepeng.sol\":11561:11567  amount */\n  dup4\n    /* \"kepeng.sol\":11519:11539  _beforeTokenTransfer */\n  shl(0x20, tag_34)\n    /* \"kepeng.sol\":11519:11568  _beforeTokenTransfer(address(0), account, amount) */\n  0x20\n  shr\n  jump\t// in\ntag_33:\n    /* \"kepeng.sol\":11597:11603  amount */\n  dup1\n    /* \"kepeng.sol\":11581:11593  _totalSupply */\n  0x02\n  0x00\n    /* \"kepeng.sol\":11581:11603  _totalSupply += amount */\n  dup3\n  dup3\n  sload\n  tag_35\n  swap2\n  swap1\n  tag_36\n  jump\t// in\ntag_35:\n  swap3\n  pop\n  pop\n  dup2\n  swap1\n  sstore\n  pop\n    /* \"kepeng.sol\":11636:11642  amount */\n  dup1\n    /* \"kepeng.sol\":11614:11623  _balances */\n  0x00\n    /* \"kepeng.sol\":11614:11632  _balances[account] */\n  dup1\n    /* \"kepeng.sol\":11624:11631  account */\n  dup5\n    /* \"kepeng.sol\":11614:11632  _balances[account] */\n  0xffffffffffffffffffffffffffffffffffffffff\n  and\n  0xffffffffffffffffffffffffffffffffffffffff\n  and\n  dup2\n  mstore\n  0x20\n  add\n  swap1\n  dup2\n  mstore\n  0x20\n  add\n  0x00\n  keccak256\n  0x00\n    /* \"kepeng.sol\":11614:11642  _balances[account] += amount */\n  dup3\n  dup3\n  sload\n  tag_37\n  swap2\n  swap1\n  tag_36\n  jump\t// in\ntag_37:\n  swap3\n  pop\n  pop\n  dup2\n  swap1\n  sstore\n  pop\n    /* \"kepeng.sol\":11679:11686  account */\n  dup2\n    /* \"kepeng.sol\":11658:11695  Transfer(address(0), account, amount) */\n  0xffffffffffffffffffffffffffffffffffffffff\n  and\n    /* \"kepeng.sol\":11675:11676  0 */\n  0x00\n    /* \"kepeng.sol\":11658:11695  Transfer(address(0), account, amount) */\n  0xffffffffffffffffffffffffffffffffffffffff\n  and\n  0xddf252ad1be2c89b69c2b068fc378daa952ba7f163c4a11628f55a4df523b3ef\n    /* \"kepeng.sol\":11688:11694  amount */\n  dup4\n    /* \"kepeng.sol\":11658:11695  Transfer(address(0), account, amount) */\n  mload(0x40)\n  tag_38\n  swap2\n  swap1\n  tag_39\n  jump\t// in\ntag_38:\n  mload(0x40)\n  dup1\n  swap2\n  sub\n  swap1\n  log3\n    /* \"kepeng.sol\":11708:11756  _afterTokenTransfer(address(0), account, amount) */\n  tag_40\n    /* \"kepeng.sol\":11736:11737  0 */\n  0x00\n    /* \"kepeng.sol\":11740:11747  account */\n  dup4\n    /* \"kepeng.sol\":11749:11755  amount */\n  dup4\n    /* \"kepeng.sol\":11708:11727  _afterTokenTransfer */\n  shl(0x20, tag_41)\n    /* \"kepeng.sol\":11708:11756  _afterTokenTransfer(address(0), account, amount) */\n  0x20\n  shr\n  jump\t// in\ntag_40:\n    /* \"kepeng.sol\":11365:11764  function _mint(address account, uint256 amount) internal virtual {\r... */\n  pop\n  pop\n  jump\t// out\n    /* \"kepeng.sol\":20086:20285  function _beforeTokenTransfer(address from, address to, uint256 amount)\r... */\ntag_34:\n    /* \"kepeng.sol\":16986:16994  paused() */\n  tag_43\n    /* \"kepeng.sol\":16986:16992  paused */\n  shl(0x20, tag_44)\n    /* \"kepeng.sol\":16986:16994  paused() */\n  0x20\n  shr\n  jump\t// in\ntag_43:\n    /* \"kepeng.sol\":16985:16994  !paused() */\n  iszero\n    /* \"kepeng.sol\":16977:17015  require(!paused(), \"Pausable: paused\") */\n  tag_45\n  jumpi\n  mload(0x40)\n  0x08c379a000000000000000000000000000000000000000000000000000000000\n  dup2\n  mstore\n  0x04\n  add\n  tag_46\n  swap1\n  tag_47\n  jump\t// in\ntag_46:\n  mload(0x40)\n  dup1\n  swap2\n  sub\n  swap1\n  revert\ntag_45:\n    /* \"kepeng.sol\":20233:20277  super._beforeTokenTransfer(from, to, amount) */\n  tag_49\n    /* \"kepeng.sol\":20260:20264  from */\n  dup4\n    /* \"kepeng.sol\":20266:20268  to */\n  dup4\n    /* \"kepeng.sol\":20270:20276  amount */\n  dup4\n    /* \"kepeng.sol\":20233:20259  super._beforeTokenTransfer */\n  or(tag_0_96, shl(0x20, tag_50))\n    /* \"kepeng.sol\":20233:20277  super._beforeTokenTransfer(from, to, amount) */\n  0x20\n  shr\n  jump\t// in\ntag_49:\n    /* \"kepeng.sol\":20086:20285  function _beforeTokenTransfer(address from, address to, uint256 amount)\r... */\n  pop\n  pop\n  pop\n  jump\t// out\n    /* \"kepeng.sol\":14835:14959  function _afterTokenTransfer(\r... */\ntag_41:\n  pop\n  pop\n  pop\n  jump\t// out\n    /* \"kepeng.sol\":16660:16746  function paused() public view virtual returns (bool) {\r... */\ntag_44:\n    /* \"kepeng.sol\":16707:16711  bool */\n  0x00\n    /* \"kepeng.sol\":16731:16738  _paused */\n  0x05\n  0x00\n  swap1\n  sload\n  swap1\n  0x0100\n  exp\n  swap1\n  div\n  0xff\n  and\n    /* \"kepeng.sol\":16724:16738  return _paused */\n  swap1\n  pop\n    /* \"kepeng.sol\":16660:16746  function paused() public view virtual returns (bool) {\r... */\n  swap1\n  jump\t// out\n    /* \"kepeng.sol\":14106:14231  function _beforeTokenTransfer(\r... */\ntag_50:\n  pop\n  pop\n  pop\n  jump\t// out\n    /* \"kepeng.sol\":19766:20288  contract KEPENG is ERC20, ERC20Burnable, Pausable, Ownable {\r... */\ntag_8:\n  dup3\n  dup1\n  sload\n  tag_54\n  swap1\n  tag_55\n  jump\t// in\ntag_54:\n  swap1\n  0x00\n  mstore\n  keccak256(0x00, 0x20)\n  swap1\n  0x1f\n  add\n  0x20\n  swap1\n  div\n  dup2\n  add\n  swap3\n  dup3\n  tag_57\n  jumpi\n  0x00\n  dup6\n  sstore\n  jump(tag_56)\ntag_57:\n  dup3\n  0x1f\n  lt\n  tag_58\n  jumpi\n  dup1\n  mload\n  not(0xff)\n  and\n  dup4\n  dup1\n  add\n  or\n  dup6\n  sstore\n  jump(tag_56)\ntag_58:\n  dup3\n  dup1\n  add\n  0x01\n  add\n  dup6\n  sstore\n  dup3\n  iszero\n  tag_56\n  jumpi\n  swap2\n  dup3\n  add\ntag_59:\n  dup3\n  dup2\n  gt\n  iszero\n  tag_60\n  jumpi\n  dup3\n  mload\n  dup3\n  sstore\n  swap2\n  0x20\n  add\n  swap2\n  swap1\n  0x01\n  add\n  swap1\n  jump(tag_59)\ntag_60:\ntag_56:\n  pop\n  swap1\n  pop\n  tag_61\n  swap2\n  swap1\n  tag_62\n  jump\t// in\ntag_61:\n  pop\n  swap1\n  jump\t// out\ntag_62:\ntag_63:\n  dup1\n  dup3\n  gt\n  iszero\n  tag_64\n  jumpi\n  0x00\n  dup2\n  0x00\n  swap1\n  sstore\n  pop\n  0x01\n  add\n  jump(tag_63)\ntag_64:\n  pop\n  swap1\n  jump\t// out\n    /* \"#utility.yul\":7:373   */\ntag_66:\n  0x00\n    /* \"#utility.yul\":170:237   */\n  tag_68\n    /* \"#utility.yul\":234:236   */\n  0x10\n    /* \"#utility.yul\":229:232   */\n  dup4\n    /* \"#utility.yul\":170:237   */\n  tag_69\n  jump\t// in\ntag_68:\n    /* \"#utility.yul\":163:237   */\n  swap2\n  pop\n    /* \"#utility.yul\":246:339   */\n  tag_70\n    /* \"#utility.yul\":335:338   */\n  dup3\n    /* \"#utility.yul\":246:339   */\n  tag_71\n  jump\t// in\ntag_70:\n    /* \"#utility.yul\":364:366   */\n  0x20\n    /* \"#utility.yul\":359:362   */\n  dup3\n    /* \"#utility.yul\":355:367   */\n  add\n    /* \"#utility.yul\":348:367   */\n  swap1\n  pop\n    /* \"#utility.yul\":153:373   */\n  swap2\n  swap1\n  pop\n  jump\t// out\n    /* \"#utility.yul\":379:745   */\ntag_72:\n  0x00\n    /* \"#utility.yul\":542:609   */\n  tag_74\n    /* \"#utility.yul\":606:608   */\n  0x1f\n    /* \"#utility.yul\":601:604   */\n  dup4\n    /* \"#utility.yul\":542:609   */\n  tag_69\n  jump\t// in\ntag_74:\n    /* \"#utility.yul\":535:609   */\n  swap2\n  pop\n    /* \"#utility.yul\":618:711   */\n  tag_75\n    /* \"#utility.yul\":707:710   */\n  dup3\n    /* \"#utility.yul\":618:711   */\n  tag_76\n  jump\t// in\ntag_75:\n    /* \"#utility.yul\":736:738   */\n  0x20\n    /* \"#utility.yul\":731:734   */\n  dup3\n    /* \"#utility.yul\":727:739   */\n  add\n    /* \"#utility.yul\":720:739   */\n  swap1\n  pop\n    /* \"#utility.yul\":525:745   */\n  swap2\n  swap1\n  pop\n  jump\t// out\n    /* \"#utility.yul\":751:869   */\ntag_77:\n    /* \"#utility.yul\":838:862   */\n  tag_79\n    /* \"#utility.yul\":856:861   */\n  dup2\n    /* \"#utility.yul\":838:862   */\n  tag_80\n  jump\t// in\ntag_79:\n    /* \"#utility.yul\":833:836   */\n  dup3\n    /* \"#utility.yul\":826:863   */\n  mstore\n    /* \"#utility.yul\":816:869   */\n  pop\n  pop\n  jump\t// out\n    /* \"#utility.yul\":875:1294   */\ntag_47:\n  0x00\n    /* \"#utility.yul\":1079:1081   */\n  0x20\n    /* \"#utility.yul\":1068:1077   */\n  dup3\n    /* \"#utility.yul\":1064:1082   */\n  add\n    /* \"#utility.yul\":1056:1082   */\n  swap1\n  pop\n    /* \"#utility.yul\":1128:1137   */\n  dup2\n    /* \"#utility.yul\":1122:1126   */\n  dup2\n    /* \"#utility.yul\":1118:1138   */\n  sub\n    /* \"#utility.yul\":1114:1115   */\n  0x00\n    /* \"#utility.yul\":1103:1112   */\n  dup4\n    /* \"#utility.yul\":1099:1116   */\n  add\n    /* \"#utility.yul\":1092:1139   */\n  mstore\n    /* \"#utility.yul\":1156:1287   */\n  tag_82\n    /* \"#utility.yul\":1282:1286   */\n  dup2\n    /* \"#utility.yul\":1156:1287   */\n  tag_66\n  jump\t// in\ntag_82:\n    /* \"#utility.yul\":1148:1287   */\n  swap1\n  pop\n    /* \"#utility.yul\":1046:1294   */\n  swap2\n  swap1\n  pop\n  jump\t// out\n    /* \"#utility.yul\":1300:1719   */\ntag_32:\n  0x00\n    /* \"#utility.yul\":1504:1506   */\n  0x20\n    /* \"#utility.yul\":1493:1502   */\n  dup3\n    /* \"#utility.yul\":1489:1507   */\n  add\n    /* \"#utility.yul\":1481:1507   */\n  swap1\n  pop\n    /* \"#utility.yul\":1553:1562   */\n  dup2\n    /* \"#utility.yul\":1547:1551   */\n  dup2\n    /* \"#utility.yul\":1543:1563   */\n  sub\n    /* \"#utility.yul\":1539:1540   */\n  0x00\n    /* \"#utility.yul\":1528:1537   */\n  dup4\n    /* \"#utility.yul\":1524:1541   */\n  add\n    /* \"#utility.yul\":1517:1564   */\n  mstore\n    /* \"#utility.yul\":1581:1712   */\n  tag_84\n    /* \"#utility.yul\":1707:1711   */\n  dup2\n    /* \"#utility.yul\":1581:1712   */\n  tag_72\n  jump\t// in\ntag_84:\n    /* \"#utility.yul\":1573:1712   */\n  swap1\n  pop\n    /* \"#utility.yul\":1471:1719   */\n  swap2\n  swap1\n  pop\n  jump\t// out\n    /* \"#utility.yul\":1725:1947   */\ntag_39:\n  0x00\n    /* \"#utility.yul\":1856:1858   */\n  0x20\n    /* \"#utility.yul\":1845:1854   */\n  dup3\n    /* \"#utility.yul\":1841:1859   */\n  add\n    /* \"#utility.yul\":1833:1859   */\n  swap1\n  pop\n    /* \"#utility.yul\":1869:1940   */\n  tag_86\n    /* \"#utility.yul\":1937:1938   */\n  0x00\n    /* \"#utility.yul\":1926:1935   */\n  dup4\n    /* \"#utility.yul\":1922:1939   */\n  add\n    /* \"#utility.yul\":1913:1919   */\n  dup5\n    /* \"#utility.yul\":1869:1940   */\n  tag_77\n  jump\t// in\ntag_86:\n    /* \"#utility.yul\":1823:1947   */\n  swap3\n  swap2\n  pop\n  pop\n  jump\t// out\n    /* \"#utility.yul\":1953:2122   */\ntag_69:\n  0x00\n    /* \"#utility.yul\":2071:2077   */\n  dup3\n    /* \"#utility.yul\":2066:2069   */\n  dup3\n    /* \"#utility.yul\":2059:2078   */\n  mstore\n    /* \"#utility.yul\":2111:2115   */\n  0x20\n    /* \"#utility.yul\":2106:2109   */\n  dup3\n    /* \"#utility.yul\":2102:2116   */\n  add\n    /* \"#utility.yul\":2087:2116   */\n  swap1\n  pop\n    /* \"#utility.yul\":2049:2122   */\n  swap3\n  swap2\n  pop\n  pop\n  jump\t// out\n    /* \"#utility.yul\":2128:2433   */\ntag_36:\n  0x00\n    /* \"#utility.yul\":2187:2207   */\n  tag_89\n    /* \"#utility.yul\":2205:2206   */\n  dup3\n    /* \"#utility.yul\":2187:2207   */\n  tag_80\n  jump\t// in\ntag_89:\n    /* \"#utility.yul\":2182:2207   */\n  swap2\n  pop\n    /* \"#utility.yul\":2221:2241   */\n  tag_90\n    /* \"#utility.yul\":2239:2240   */\n  dup4\n    /* \"#utility.yul\":2221:2241   */\n  tag_80\n  jump\t// in\ntag_90:\n    /* \"#utility.yul\":2216:2241   */\n  swap3\n  pop\n    /* \"#utility.yul\":2375:2376   */\n  dup3\n    /* \"#utility.yul\":2307:2373   */\n  0xffffffffffffffffffffffffffffffffffffffffffffffffffffffffffffffff\n    /* \"#utility.yul\":2303:2377   */\n  sub\n    /* \"#utility.yul\":2300:2301   */\n  dup3\n    /* \"#utility.yul\":2297:2378   */\n  gt\n    /* \"#utility.yul\":2294:2296   */\n  iszero\n  tag_91\n  jumpi\n    /* \"#utility.yul\":2381:2399   */\n  tag_92\n  tag_93\n  jump\t// in\ntag_92:\n    /* \"#utility.yul\":2294:2296   */\ntag_91:\n    /* \"#utility.yul\":2425:2426   */\n  dup3\n    /* \"#utility.yul\":2422:2423   */\n  dup3\n    /* \"#utility.yul\":2418:2427   */\n  add\n    /* \"#utility.yul\":2411:2427   */\n  swap1\n  pop\n    /* \"#utility.yul\":2172:2433   */\n  swap3\n  swap2\n  pop\n  pop\n  jump\t// out\n    /* \"#utility.yul\":2439:3287   */\ntag_94:\n  0x00\n  dup1\n    /* \"#utility.yul\":2531:2537   */\n  dup3\n    /* \"#utility.yul\":2522:2537   */\n  swap2\n  pop\n    /* \"#utility.yul\":2555:2560   */\n  dup4\n    /* \"#utility.yul\":2546:2560   */\n  swap1\n  pop\n    /* \"#utility.yul\":2569:3281   */\ntag_96:\n    /* \"#utility.yul\":2590:2591   */\n  0x01\n    /* \"#utility.yul\":2580:2588   */\n  dup6\n    /* \"#utility.yul\":2577:2592   */\n  gt\n    /* \"#utility.yul\":2569:3281   */\n  iszero\n  tag_98\n  jumpi\n    /* \"#utility.yul\":2685:2689   */\n  dup1\n    /* \"#utility.yul\":2680:2683   */\n  dup7\n    /* \"#utility.yul\":2676:2690   */\n  div\n    /* \"#utility.yul\":2670:2674   */\n  dup2\n    /* \"#utility.yul\":2667:2691   */\n  gt\n    /* \"#utility.yul\":2664:2666   */\n  iszero\n  tag_99\n  jumpi\n    /* \"#utility.yul\":2694:2712   */\n  tag_100\n  tag_93\n  jump\t// in\ntag_100:\n    /* \"#utility.yul\":2664:2666   */\ntag_99:\n    /* \"#utility.yul\":2744:2745   */\n  0x01\n    /* \"#utility.yul\":2734:2742   */\n  dup6\n    /* \"#utility.yul\":2730:2746   */\n  and\n    /* \"#utility.yul\":2727:2729   */\n  iszero\n  tag_101\n  jumpi\n    /* \"#utility.yul\":3159:3163   */\n  dup1\n    /* \"#utility.yul\":3152:3157   */\n  dup3\n    /* \"#utility.yul\":3148:3164   */\n  mul\n    /* \"#utility.yul\":3139:3164   */\n  swap2\n  pop\n    /* \"#utility.yul\":2727:2729   */\ntag_101:\n    /* \"#utility.yul\":3209:3213   */\n  dup1\n    /* \"#utility.yul\":3203:3207   */\n  dup2\n    /* \"#utility.yul\":3199:3214   */\n  mul\n    /* \"#utility.yul\":3191:3214   */\n  swap1\n  pop\n    /* \"#utility.yul\":3239:3271   */\n  tag_102\n    /* \"#utility.yul\":3262:3270   */\n  dup6\n    /* \"#utility.yul\":3239:3271   */\n  tag_103\n  jump\t// in\ntag_102:\n    /* \"#utility.yul\":3227:3271   */\n  swap5\n  pop\n    /* \"#utility.yul\":2569:3281   */\n  jump(tag_96)\ntag_98:\n    /* \"#utility.yul\":2512:3287   */\n  swap5\n  pop\n  swap5\n  swap3\n  pop\n  pop\n  pop\n  jump\t// out\n    /* \"#utility.yul\":3293:3574   */\ntag_21:\n  0x00\n    /* \"#utility.yul\":3375:3398   */\n  tag_105\n    /* \"#utility.yul\":3393:3397   */\n  dup3\n    /* \"#utility.yul\":3375:3398   */\n  tag_80\n  jump\t// in\ntag_105:\n    /* \"#utility.yul\":3367:3398   */\n  swap2\n  pop\n    /* \"#utility.yul\":3419:3444   */\n  tag_106\n    /* \"#utility.yul\":3435:3443   */\n  dup4\n    /* \"#utility.yul\":3419:3444   */\n  tag_107\n  jump\t// in\ntag_106:\n    /* \"#utility.yul\":3407:3444   */\n  swap3\n  pop\n    /* \"#utility.yul\":3463:3567   */\n  tag_108\n    /* \"#utility.yul\":3500:3566   */\n  0xffffffffffffffffffffffffffffffffffffffffffffffffffffffffffffffff\n    /* \"#utility.yul\":3490:3498   */\n  dup5\n    /* \"#utility.yul\":3484:3488   */\n  dup5\n    /* \"#utility.yul\":3463:3567   */\n  tag_109\n  jump\t// in\ntag_108:\n    /* \"#utility.yul\":3454:3567   */\n  swap1\n  pop\n    /* \"#utility.yul\":3357:3574   */\n  swap3\n  swap2\n  pop\n  pop\n  jump\t// out\n    /* \"#utility.yul\":3580:4653   */\ntag_109:\n  0x00\n    /* \"#utility.yul\":3825:3833   */\n  dup3\n    /* \"#utility.yul\":3815:3817   */\n  tag_111\n  jumpi\n    /* \"#utility.yul\":3846:3847   */\n  0x01\n    /* \"#utility.yul\":3837:3847   */\n  swap1\n  pop\n    /* \"#utility.yul\":3848:3853   */\n  jump(tag_110)\n    /* \"#utility.yul\":3815:3817   */\ntag_111:\n    /* \"#utility.yul\":3874:3878   */\n  dup2\n    /* \"#utility.yul\":3864:3866   */\n  tag_112\n  jumpi\n    /* \"#utility.yul\":3891:3892   */\n  0x00\n    /* \"#utility.yul\":3882:3892   */\n  swap1\n  pop\n    /* \"#utility.yul\":3893:3898   */\n  jump(tag_110)\n    /* \"#utility.yul\":3864:3866   */\ntag_112:\n    /* \"#utility.yul\":3960:3964   */\n  dup2\n    /* \"#utility.yul\":4008:4009   */\n  0x01\n    /* \"#utility.yul\":4003:4030   */\n  dup2\n  eq\n  tag_114\n  jumpi\n    /* \"#utility.yul\":4044:4045   */\n  0x02\n    /* \"#utility.yul\":4039:4230   */\n  dup2\n  eq\n  tag_115\n  jumpi\n    /* \"#utility.yul\":3953:4230   */\n  jump(tag_113)\n    /* \"#utility.yul\":4003:4030   */\ntag_114:\n    /* \"#utility.yul\":4021:4022   */\n  0x01\n    /* \"#utility.yul\":4012:4022   */\n  swap2\n  pop\n    /* \"#utility.yul\":4023:4028   */\n  pop\n  jump(tag_110)\n    /* \"#utility.yul\":4039:4230   */\ntag_115:\n    /* \"#utility.yul\":4084:4087   */\n  0xff\n    /* \"#utility.yul\":4074:4082   */\n  dup5\n    /* \"#utility.yul\":4071:4088   */\n  gt\n    /* \"#utility.yul\":4068:4070   */\n  iszero\n  tag_116\n  jumpi\n    /* \"#utility.yul\":4091:4109   */\n  tag_117\n  tag_93\n  jump\t// in\ntag_117:\n    /* \"#utility.yul\":4068:4070   */\ntag_116:\n    /* \"#utility.yul\":4140:4148   */\n  dup4\n    /* \"#utility.yul\":4137:4138   */\n  0x02\n    /* \"#utility.yul\":4133:4149   */\n  exp\n    /* \"#utility.yul\":4124:4149   */\n  swap2\n  pop\n    /* \"#utility.yul\":4175:4178   */\n  dup5\n    /* \"#utility.yul\":4168:4173   */\n  dup3\n    /* \"#utility.yul\":4165:4179   */\n  gt\n    /* \"#utility.yul\":4162:4164   */\n  iszero\n  tag_118\n  jumpi\n    /* \"#utility.yul\":4182:4200   */\n  tag_119\n  tag_93\n  jump\t// in\ntag_119:\n    /* \"#utility.yul\":4162:4164   */\ntag_118:\n    /* \"#utility.yul\":4215:4220   */\n  pop\n  jump(tag_110)\n    /* \"#utility.yul\":3953:4230   */\ntag_113:\n  pop\n    /* \"#utility.yul\":4339:4341   */\n  0x20\n    /* \"#utility.yul\":4329:4337   */\n  dup4\n    /* \"#utility.yul\":4326:4342   */\n  lt\n    /* \"#utility.yul\":4320:4323   */\n  0x0133\n    /* \"#utility.yul\":4314:4318   */\n  dup4\n    /* \"#utility.yul\":4311:4324   */\n  lt\n    /* \"#utility.yul\":4307:4343   */\n  and\n    /* \"#utility.yul\":4289:4291   */\n  0x4e\n    /* \"#utility.yul\":4279:4287   */\n  dup5\n    /* \"#utility.yul\":4276:4292   */\n  lt\n    /* \"#utility.yul\":4271:4273   */\n  0x0b\n    /* \"#utility.yul\":4265:4269   */\n  dup5\n    /* \"#utility.yul\":4262:4274   */\n  lt\n    /* \"#utility.yul\":4258:4293   */\n  and\n    /* \"#utility.yul\":4242:4353   */\n  or\n    /* \"#utility.yul\":4239:4241   */\n  iszero\n  tag_120\n  jumpi\n    /* \"#utility.yul\":4395:4403   */\n  dup3\n    /* \"#utility.yul\":4389:4393   */\n  dup3\n    /* \"#utility.yul\":4385:4404   */\n  exp\n    /* \"#utility.yul\":4376:4404   */\n  swap1\n  pop\n    /* \"#utility.yul\":4430:4433   */\n  dup4\n    /* \"#utility.yul\":4423:4428   */\n  dup2\n    /* \"#utility.yul\":4420:4434   */\n  gt\n    /* \"#utility.yul\":4417:4419   */\n  iszero\n  tag_121\n  jumpi\n    /* \"#utility.yul\":4437:4455   */\n  tag_122\n  tag_93\n  jump\t// in\ntag_122:\n    /* \"#utility.yul\":4417:4419   */\ntag_121:\n    /* \"#utility.yul\":4470:4475   */\n  jump(tag_110)\n    /* \"#utility.yul\":4239:4241   */\ntag_120:\n    /* \"#utility.yul\":4510:4552   */\n  tag_123\n    /* \"#utility.yul\":4548:4551   */\n  dup5\n    /* \"#utility.yul\":4538:4546   */\n  dup5\n    /* \"#utility.yul\":4532:4536   */\n  dup5\n    /* \"#utility.yul\":4529:4530   */\n  0x01\n    /* \"#utility.yul\":4510:4552   */\n  tag_94\n  jump\t// in\ntag_123:\n    /* \"#utility.yul\":4495:4552   */\n  swap3\n  pop\n  swap1\n  pop\n    /* \"#utility.yul\":4584:4588   */\n  dup2\n    /* \"#utility.yul\":4579:4582   */\n  dup5\n    /* \"#utility.yul\":4575:4589   */\n  div\n    /* \"#utility.yul\":4568:4573   */\n  dup2\n    /* \"#utility.yul\":4565:4590   */\n  gt\n    /* \"#utility.yul\":4562:4564   */\n  iszero\n  tag_124\n  jumpi\n    /* \"#utility.yul\":4593:4611   */\n  tag_125\n  tag_93\n  jump\t// in\ntag_125:\n    /* \"#utility.yul\":4562:4564   */\ntag_124:\n    /* \"#utility.yul\":4642:4646   */\n  dup2\n    /* \"#utility.yul\":4635:4640   */\n  dup2\n    /* \"#utility.yul\":4631:4647   */\n  mul\n    /* \"#utility.yul\":4622:4647   */\n  swap1\n  pop\n    /* \"#utility.yul\":3640:4653   */\ntag_110:\n  swap4\n  swap3\n  pop\n  pop\n  pop\n  jump\t// out\n    /* \"#utility.yul\":4659:5007   */\ntag_23:\n  0x00\n    /* \"#utility.yul\":4722:4742   */\n  tag_127\n    /* \"#utility.yul\":4740:4741   */\n  dup3\n    /* \"#utility.yul\":4722:4742   */\n  tag_80\n  jump\t// in\ntag_127:\n    /* \"#utility.yul\":4717:4742   */\n  swap2\n  pop\n    /* \"#utility.yul\":4756:4776   */\n  tag_128\n    /* \"#utility.yul\":4774:4775   */\n  dup4\n    /* \"#utility.yul\":4756:4776   */\n  tag_80\n  jump\t// in\ntag_128:\n    /* \"#utility.yul\":4751:4776   */\n  swap3\n  pop\n    /* \"#utility.yul\":4944:4945   */\n  dup2\n    /* \"#utility.yul\":4876:4942   */\n  0xffffffffffffffffffffffffffffffffffffffffffffffffffffffffffffffff\n    /* \"#utility.yul\":4872:4946   */\n  div\n    /* \"#utility.yul\":4869:4870   */\n  dup4\n    /* \"#utility.yul\":4866:4947   */\n  gt\n    /* \"#utility.yul\":4861:4862   */\n  dup3\n    /* \"#utility.yul\":4854:4863   */\n  iszero\n    /* \"#utility.yul\":4847:4864   */\n  iszero\n    /* \"#utility.yul\":4843:4948   */\n  and\n    /* \"#utility.yul\":4840:4842   */\n  iszero\n  tag_129\n  jumpi\n    /* \"#utility.yul\":4951:4969   */\n  tag_130\n  tag_93\n  jump\t// in\ntag_130:\n    /* \"#utility.yul\":4840:4842   */\ntag_129:\n    /* \"#utility.yul\":4999:5000   */\n  dup3\n    /* \"#utility.yul\":4996:4997   */\n  dup3\n    /* \"#utility.yul\":4992:5001   */\n  mul\n    /* \"#utility.yul\":4981:5001   */\n  swap1\n  pop\n    /* \"#utility.yul\":4707:5007   */\n  swap3\n  swap2\n  pop\n  pop\n  jump\t// out\n    /* \"#utility.yul\":5013:5090   */\ntag_80:\n  0x00\n    /* \"#utility.yul\":5079:5084   */\n  dup2\n    /* \"#utility.yul\":5068:5084   */\n  swap1\n  pop\n    /* \"#utility.yul\":5058:5090   */\n  swap2\n  swap1\n  pop\n  jump\t// out\n    /* \"#utility.yul\":5096:5182   */\ntag_107:\n  0x00\n    /* \"#utility.yul\":5171:5175   */\n  0xff\n    /* \"#utility.yul\":5164:5169   */\n  dup3\n    /* \"#utility.yul\":5160:5176   */\n  and\n    /* \"#utility.yul\":5149:5176   */\n  swap1\n  pop\n    /* \"#utility.yul\":5139:5182   */\n  swap2\n  swap1\n  pop\n  jump\t// out\n    /* \"#utility.yul\":5188:5508   */\ntag_55:\n  0x00\n    /* \"#utility.yul\":5269:5270   */\n  0x02\n    /* \"#utility.yul\":5263:5267   */\n  dup3\n    /* \"#utility.yul\":5259:5271   */\n  div\n    /* \"#utility.yul\":5249:5271   */\n  swap1\n  pop\n    /* \"#utility.yul\":5316:5317   */\n  0x01\n    /* \"#utility.yul\":5310:5314   */\n  dup3\n    /* \"#utility.yul\":5306:5318   */\n  and\n    /* \"#utility.yul\":5337:5355   */\n  dup1\n    /* \"#utility.yul\":5327:5329   */\n  tag_134\n  jumpi\n    /* \"#utility.yul\":5393:5397   */\n  0x7f\n    /* \"#utility.yul\":5385:5391   */\n  dup3\n    /* \"#utility.yul\":5381:5398   */\n  and\n    /* \"#utility.yul\":5371:5398   */\n  swap2\n  pop\n    /* \"#utility.yul\":5327:5329   */\ntag_134:\n    /* \"#utility.yul\":5455:5457   */\n  0x20\n    /* \"#utility.yul\":5447:5453   */\n  dup3\n    /* \"#utility.yul\":5444:5458   */\n  lt\n    /* \"#utility.yul\":5424:5442   */\n  dup2\n    /* \"#utility.yul\":5421:5459   */\n  eq\n    /* \"#utility.yul\":5418:5420   */\n  iszero\n  tag_135\n  jumpi\n    /* \"#utility.yul\":5474:5492   */\n  tag_136\n  tag_137\n  jump\t// in\ntag_136:\n    /* \"#utility.yul\":5418:5420   */\ntag_135:\n    /* \"#utility.yul\":5239:5508   */\n  pop\n  swap2\n  swap1\n  pop\n  jump\t// out\n    /* \"#utility.yul\":5514:5694   */\ntag_93:\n    /* \"#utility.yul\":5562:5639   */\n  0x4e487b7100000000000000000000000000000000000000000000000000000000\n    /* \"#utility.yul\":5559:5560   */\n  0x00\n    /* \"#utility.yul\":5552:5640   */\n  mstore\n    /* \"#utility.yul\":5659:5663   */\n  0x11\n    /* \"#utility.yul\":5656:5657   */\n  0x04\n    /* \"#utility.yul\":5649:5664   */\n  mstore\n    /* \"#utility.yul\":5683:5687   */\n  0x24\n    /* \"#utility.yul\":5680:5681   */\n  0x00\n    /* \"#utility.yul\":5673:5688   */\n  revert\n    /* \"#utility.yul\":5700:5880   */\ntag_137:\n    /* \"#utility.yul\":5748:5825   */\n  0x4e487b7100000000000000000000000000000000000000000000000000000000\n    /* \"#utility.yul\":5745:5746   */\n  0x00\n    /* \"#utility.yul\":5738:5826   */\n  mstore\n    /* \"#utility.yul\":5845:5849   */\n  0x22\n    /* \"#utility.yul\":5842:5843   */\n  0x04\n    /* \"#utility.yul\":5835:5850   */\n  mstore\n    /* \"#utility.yul\":5869:5873   */\n  0x24\n    /* \"#utility.yul\":5866:5867   */\n  0x00\n    /* \"#utility.yul\":5859:5874   */\n  revert\n    /* \"#utility.yul\":5886:5988   */\ntag_103:\n  0x00\n    /* \"#utility.yul\":5975:5980   */\n  dup2\n    /* \"#utility.yul\":5972:5973   */\n  0x01\n    /* \"#utility.yul\":5968:5981   */\n  shr\n    /* \"#utility.yul\":5947:5981   */\n  swap1\n  pop\n    /* \"#utility.yul\":5937:5988   */\n  swap2\n  swap1\n  pop\n  jump\t// out\n    /* \"#utility.yul\":5994:6160   */\ntag_71:\n    /* \"#utility.yul\":6134:6152   */\n  0x5061757361626c653a2070617573656400000000000000000000000000000000\n    /* \"#utility.yul\":6130:6131   */\n  0x00\n    /* \"#utility.yul\":6122:6128   */\n  dup3\n    /* \"#utility.yul\":6118:6132   */\n  add\n    /* \"#utility.yul\":6111:6153   */\n  mstore\n    /* \"#utility.yul\":6100:6160   */\n  pop\n  jump\t// out\n    /* \"#utility.yul\":6166:6347   */\ntag_76:\n    /* \"#utility.yul\":6306:6339   */\n  0x45524332303a206d696e7420746f20746865207a65726f206164647265737300\n    /* \"#utility.yul\":6302:6303   */\n  0x00\n    /* \"#utility.yul\":6294:6300   */\n  dup3\n    /* \"#utility.yul\":6290:6304   */\n  add\n    /* \"#utility.yul\":6283:6340   */\n  mstore\n    /* \"#utility.yul\":6272:6347   */\n  pop\n  jump\t// out\n    /* \"kepeng.sol\":19766:20288  contract KEPENG is ERC20, ERC20Burnable, Pausable, Ownable {\r... */\ntag_25:\n  dataSize(sub_0)\n  dup1\n  dataOffset(sub_0)\n  0x00\n  codecopy\n  0x00\n  return\nstop\n\nsub_0: assembly {\n        /* \"kepeng.sol\":19766:20288  contract KEPENG is ERC20, ERC20Burnable, Pausable, Ownable {\r... */\n      mstore(0x40, 0x80)\n      callvalue\n      dup1\n      iszero\n      tag_1\n      jumpi\n      0x00\n      dup1\n      revert\n    tag_1:\n      pop\n      jumpi(tag_2, lt(calldatasize, 0x04))\n      shr(0xe0, calldataload(0x00))\n      dup1\n      0x70a08231\n      gt\n      tag_22\n      jumpi\n      dup1\n      0x95d89b41\n      gt\n      tag_23\n      jumpi\n      dup1\n      0x95d89b41\n      eq\n      tag_17\n      jumpi\n      dup1\n      0xa457c2d7\n      eq\n      tag_18\n      jumpi\n      dup1\n      0xa9059cbb\n      eq\n      tag_19\n      jumpi\n      dup1\n      0xdd62ed3e\n      eq\n      tag_20\n      jumpi\n      dup1\n      0xf2fde38b\n      eq\n      tag_21\n      jumpi\n      jump(tag_2)\n    tag_23:\n      dup1\n      0x70a08231\n      eq\n      tag_12\n      jumpi\n      dup1\n      0x715018a6\n      eq\n      tag_13\n      jumpi\n      dup1\n      0x79cc6790\n      eq\n      tag_14\n      jumpi\n      dup1\n      0x8456cb59\n      eq\n      tag_15\n      jumpi\n      dup1\n      0x8da5cb5b\n      eq\n      tag_16\n      jumpi\n      jump(tag_2)\n    tag_22:\n      dup1\n      0x313ce567\n      gt\n      tag_24\n      jumpi\n      dup1\n      0x313ce567\n      eq\n      tag_7\n      jumpi\n      dup1\n      0x39509351\n      eq\n      tag_8\n      jumpi\n      dup1\n      0x3f4ba83a\n      eq\n      tag_9\n      jumpi\n      dup1\n      0x42966c68\n      eq\n      tag_10\n      jumpi\n      dup1\n      0x5c975abb\n      eq\n      tag_11\n      jumpi\n      jump(tag_2)\n    tag_24:\n      dup1\n      0x06fdde03\n      eq\n      tag_3\n      jumpi\n      dup1\n      0x095ea7b3\n      eq\n      tag_4\n      jumpi\n      dup1\n      0x18160ddd\n      eq\n      tag_5\n      jumpi\n      dup1\n      0x23b872dd\n      eq\n      tag_6\n      jumpi\n    tag_2:\n      0x00\n      dup1\n      revert\n        /* \"kepeng.sol\":5006:5106  function name() public view virtual override returns (string memory) {\r... */\n    tag_3:\n      tag_25\n      tag_26\n      jump\t// in\n    tag_25:\n      mload(0x40)\n      tag_27\n      swap2\n      swap1\n      tag_28\n      jump\t// in\n    tag_27:\n      mload(0x40)\n      dup1\n      swap2\n      sub\n      swap1\n      return\n        /* \"kepeng.sol\":7172:7341  function approve(address spender, uint256 amount) public virtual override returns (bool) {\r... */\n    tag_4:\n      tag_29\n      0x04\n      dup1\n      calldatasize\n      sub\n      dup2\n      add\n      swap1\n      tag_30\n      swap2\n      swap1\n      tag_31\n      jump\t// in\n    tag_30:\n      tag_32\n      jump\t// in\n    tag_29:\n      mload(0x40)\n      tag_33\n      swap2\n      swap1\n      tag_34\n      jump\t// in\n    tag_33:\n      mload(0x40)\n      dup1\n      swap2\n      sub\n      swap1\n      return\n        /* \"kepeng.sol\":6125:6233  function totalSupply() public view virtual override returns (uint256) {\r... */\n    tag_5:\n      tag_35\n      tag_36\n      jump\t// in\n    tag_35:\n      mload(0x40)\n      tag_37\n      swap2\n      swap1\n      tag_38\n      jump\t// in\n    tag_37:\n      mload(0x40)\n      dup1\n      swap2\n      sub\n      swap1\n      return\n        /* \"kepeng.sol\":7823:8315  function transferFrom(\r... */\n    tag_6:\n      tag_39\n      0x04\n      dup1\n      calldatasize\n      sub\n      dup2\n      add\n      swap1\n      tag_40\n      swap2\n      swap1\n      tag_41\n      jump\t// in\n    tag_40:\n      tag_42\n      jump\t// in\n    tag_39:\n      mload(0x40)\n      tag_43\n      swap2\n      swap1\n      tag_34\n      jump\t// in\n    tag_43:\n      mload(0x40)\n      dup1\n      swap2\n      sub\n      swap1\n      return\n        /* \"kepeng.sol\":5968:6060  function decimals() public view virtual override returns (uint8) {\r... */\n    tag_7:\n      tag_44\n      tag_45\n      jump\t// in\n    tag_44:\n      mload(0x40)\n      tag_46\n      swap2\n      swap1\n      tag_47\n      jump\t// in\n    tag_46:\n      mload(0x40)\n      dup1\n      swap2\n      sub\n      swap1\n      return\n        /* \"kepeng.sol\":8724:8939  function increaseAllowance(address spender, uint256 addedValue) public virtual returns (bool) {\r... */\n    tag_8:\n      tag_48\n      0x04\n      dup1\n      calldatasize\n      sub\n      dup2\n      add\n      swap1\n      tag_49\n      swap2\n      swap1\n      tag_31\n      jump\t// in\n    tag_49:\n      tag_50\n      jump\t// in\n    tag_48:\n      mload(0x40)\n      tag_51\n      swap2\n      swap1\n      tag_34\n      jump\t// in\n    tag_51:\n      mload(0x40)\n      dup1\n      swap2\n      sub\n      swap1\n      return\n        /* \"kepeng.sol\":20013:20078  function unpause() public onlyOwner {\r... */\n    tag_9:\n      tag_52\n      tag_53\n      jump\t// in\n    tag_52:\n      stop\n        /* \"kepeng.sol\":15343:15434  function burn(uint256 amount) public virtual {\r... */\n    tag_10:\n      tag_54\n      0x04\n      dup1\n      calldatasize\n      sub\n      dup2\n      add\n      swap1\n      tag_55\n      swap2\n      swap1\n      tag_56\n      jump\t// in\n    tag_55:\n      tag_57\n      jump\t// in\n    tag_54:\n      stop\n        /* \"kepeng.sol\":16660:16746  function paused() public view virtual returns (bool) {\r... */\n    tag_11:\n      tag_58\n      tag_59\n      jump\t// in\n    tag_58:\n      mload(0x40)\n      tag_60\n      swap2\n      swap1\n      tag_34\n      jump\t// in\n    tag_60:\n      mload(0x40)\n      dup1\n      swap2\n      sub\n      swap1\n      return\n        /* \"kepeng.sol\":6296:6423  function balanceOf(address account) public view virtual override returns (uint256) {\r... */\n    tag_12:\n      tag_61\n      0x04\n      dup1\n      calldatasize\n      sub\n      dup2\n      add\n      swap1\n      tag_62\n      swap2\n      swap1\n      tag_63\n      jump\t// in\n    tag_62:\n      tag_64\n      jump\t// in\n    tag_61:\n      mload(0x40)\n      tag_65\n      swap2\n      swap1\n      tag_38\n      jump\t// in\n    tag_65:\n      mload(0x40)\n      dup1\n      swap2\n      sub\n      swap1\n      return\n        /* \"kepeng.sol\":18907:19010  function renounceOwnership() public virtual onlyOwner {\r... */\n    tag_13:\n      tag_66\n      tag_67\n      jump\t// in\n    tag_66:\n      stop\n        /* \"kepeng.sol\":15753:16121  function burnFrom(address account, uint256 amount) public virtual {\r... */\n    tag_14:\n      tag_68\n      0x04\n      dup1\n      calldatasize\n      sub\n      dup2\n      add\n      swap1\n      tag_69\n      swap2\n      swap1\n      tag_31\n      jump\t// in\n    tag_69:\n      tag_70\n      jump\t// in\n    tag_68:\n      stop\n        /* \"kepeng.sol\":19944:20005  function pause() public onlyOwner {\r... */\n    tag_15:\n      tag_71\n      tag_72\n      jump\t// in\n    tag_71:\n      stop\n        /* \"kepeng.sol\":18256:18343  function owner() public view virtual returns (address) {\r... */\n    tag_16:\n      tag_73\n      tag_74\n      jump\t// in\n    tag_73:\n      mload(0x40)\n      tag_75\n      swap2\n      swap1\n      tag_76\n      jump\t// in\n    tag_75:\n      mload(0x40)\n      dup1\n      swap2\n      sub\n      swap1\n      return\n        /* \"kepeng.sol\":5225:5329  function symbol() public view virtual override returns (string memory) {\r... */\n    tag_17:\n      tag_77\n      tag_78\n      jump\t// in\n    tag_77:\n      mload(0x40)\n      tag_79\n      swap2\n      swap1\n      tag_28\n      jump\t// in\n    tag_79:\n      mload(0x40)\n      dup1\n      swap2\n      sub\n      swap1\n      return\n        /* \"kepeng.sol\":9442:9855  function decreaseAllowance(address spender, uint256 subtractedValue) public virtual returns (bool) {\r... */\n    tag_18:\n      tag_80\n      0x04\n      dup1\n      calldatasize\n      sub\n      dup2\n      add\n      swap1\n      tag_81\n      swap2\n      swap1\n      tag_31\n      jump\t// in\n    tag_81:\n      tag_82\n      jump\t// in\n    tag_80:\n      mload(0x40)\n      tag_83\n      swap2\n      swap1\n      tag_34\n      jump\t// in\n    tag_83:\n      mload(0x40)\n      dup1\n      swap2\n      sub\n      swap1\n      return\n        /* \"kepeng.sol\":6636:6811  function transfer(address recipient, uint256 amount) public virtual override returns (bool) {\r... */\n    tag_19:\n      tag_84\n      0x04\n      dup1\n      calldatasize\n      sub\n      dup2\n      add\n      swap1\n      tag_85\n      swap2\n      swap1\n      tag_31\n      jump\t// in\n    tag_85:\n      tag_86\n      jump\t// in\n    tag_84:\n      mload(0x40)\n      tag_87\n      swap2\n      swap1\n      tag_34\n      jump\t// in\n    tag_87:\n      mload(0x40)\n      dup1\n      swap2\n      sub\n      swap1\n      return\n        /* \"kepeng.sol\":6874:7025  function allowance(address owner, address spender) public view virtual override returns (uint256) {\r... */\n    tag_20:\n      tag_88\n      0x04\n      dup1\n      calldatasize\n      sub\n      dup2\n      add\n      swap1\n      tag_89\n      swap2\n      swap1\n      tag_90\n      jump\t// in\n    tag_89:\n      tag_91\n      jump\t// in\n    tag_88:\n      mload(0x40)\n      tag_92\n      swap2\n      swap1\n      tag_38\n      jump\t// in\n    tag_92:\n      mload(0x40)\n      dup1\n      swap2\n      sub\n      swap1\n      return\n        /* \"kepeng.sol\":19165:19366  function transferOwnership(address newOwner) public virtual onlyOwner {\r... */\n    tag_21:\n      tag_93\n      0x04\n      dup1\n      calldatasize\n      sub\n      dup2\n      add\n      swap1\n      tag_94\n      swap2\n      swap1\n      tag_63\n      jump\t// in\n    tag_94:\n      tag_95\n      jump\t// in\n    tag_93:\n      stop\n        /* \"kepeng.sol\":5006:5106  function name() public view virtual override returns (string memory) {\r... */\n    tag_26:\n        /* \"kepeng.sol\":5060:5073  string memory */\n      0x60\n        /* \"kepeng.sol\":5093:5098  _name */\n      0x03\n        /* \"kepeng.sol\":5086:5098  return _name */\n      dup1\n      sload\n      tag_98\n      swap1\n      tag_99\n      jump\t// in\n    tag_98:\n      dup1\n      0x1f\n      add\n      0x20\n      dup1\n      swap2\n      div\n      mul\n      0x20\n      add\n      mload(0x40)\n      swap1\n      dup2\n      add\n      0x40\n      mstore\n      dup1\n      swap3\n      swap2\n      swap1\n      dup2\n      dup2\n      mstore\n      0x20\n      add\n      dup3\n      dup1\n      sload\n      tag_100\n      swap1\n      tag_99\n      jump\t// in\n    tag_100:\n      dup1\n      iszero\n      tag_101\n      jumpi\n      dup1\n      0x1f\n      lt\n      tag_102\n      jumpi\n      0x0100\n      dup1\n      dup4\n      sload\n      div\n      mul\n      dup4\n      mstore\n      swap2\n      0x20\n      add\n      swap2\n      jump(tag_101)\n    tag_102:\n      dup3\n      add\n      swap2\n      swap1\n      0x00\n      mstore\n      keccak256(0x00, 0x20)\n      swap1\n    tag_103:\n      dup2\n      sload\n      dup2\n      mstore\n      swap1\n      0x01\n      add\n      swap1\n      0x20\n      add\n      dup1\n      dup4\n      gt\n      tag_103\n      jumpi\n      dup3\n      swap1\n      sub\n      0x1f\n      and\n      dup3\n      add\n      swap2\n    tag_101:\n      pop\n      pop\n      pop\n      pop\n      pop\n      swap1\n      pop\n        /* \"kepeng.sol\":5006:5106  function name() public view virtual override returns (string memory) {\r... */\n      swap1\n      jump\t// out\n        /* \"kepeng.sol\":7172:7341  function approve(address spender, uint256 amount) public virtual override returns (bool) {\r... */\n    tag_32:\n        /* \"kepeng.sol\":7255:7259  bool */\n      0x00\n        /* \"kepeng.sol\":7272:7311  _approve(_msgSender(), spender, amount) */\n      tag_105\n        /* \"kepeng.sol\":7281:7293  _msgSender() */\n      tag_106\n        /* \"kepeng.sol\":7281:7291  _msgSender */\n      tag_107\n        /* \"kepeng.sol\":7281:7293  _msgSender() */\n      jump\t// in\n    tag_106:\n        /* \"kepeng.sol\":7295:7302  spender */\n      dup5\n        /* \"kepeng.sol\":7304:7310  amount */\n      dup5\n        /* \"kepeng.sol\":7272:7280  _approve */\n      tag_108\n        /* \"kepeng.sol\":7272:7311  _approve(_msgSender(), spender, amount) */\n      jump\t// in\n    tag_105:\n        /* \"kepeng.sol\":7329:7333  true */\n      0x01\n        /* \"kepeng.sol\":7322:7333  return true */\n      swap1\n      pop\n        /* \"kepeng.sol\":7172:7341  function approve(address spender, uint256 amount) public virtual override returns (bool) {\r... */\n      swap3\n      swap2\n      pop\n      pop\n      jump\t// out\n        /* \"kepeng.sol\":6125:6233  function totalSupply() public view virtual override returns (uint256) {\r... */\n    tag_36:\n        /* \"kepeng.sol\":6186:6193  uint256 */\n      0x00\n        /* \"kepeng.sol\":6213:6225  _totalSupply */\n      sload(0x02)\n        /* \"kepeng.sol\":6206:6225  return _totalSupply */\n      swap1\n      pop\n        /* \"kepeng.sol\":6125:6233  function totalSupply() public view virtual override returns (uint256) {\r... */\n      swap1\n      jump\t// out\n        /* \"kepeng.sol\":7823:8315  function transferFrom(\r... */\n    tag_42:\n        /* \"kepeng.sol\":7963:7967  bool */\n      0x00\n        /* \"kepeng.sol\":7980:8016  _transfer(sender, recipient, amount) */\n      tag_111\n        /* \"kepeng.sol\":7990:7996  sender */\n      dup5\n        /* \"kepeng.sol\":7998:8007  recipient */\n      dup5\n        /* \"kepeng.sol\":8009:8015  amount */\n      dup5\n        /* \"kepeng.sol\":7980:7989  _transfer */\n      tag_112\n        /* \"kepeng.sol\":7980:8016  _transfer(sender, recipient, amount) */\n      jump\t// in\n    tag_111:\n        /* \"kepeng.sol\":8029:8053  uint256 currentAllowance */\n      0x00\n        /* \"kepeng.sol\":8056:8067  _allowances */\n      0x01\n        /* \"kepeng.sol\":8056:8075  _allowances[sender] */\n      0x00\n        /* \"kepeng.sol\":8068:8074  sender */\n      dup7\n        /* \"kepeng.sol\":8056:8075  _allowances[sender] */\n      0xffffffffffffffffffffffffffffffffffffffff\n      and\n      0xffffffffffffffffffffffffffffffffffffffff\n      and\n      dup2\n      mstore\n      0x20\n      add\n      swap1\n      dup2\n      mstore\n      0x20\n      add\n      0x00\n      keccak256\n        /* \"kepeng.sol\":8056:8089  _allowances[sender][_msgSender()] */\n      0x00\n        /* \"kepeng.sol\":8076:8088  _msgSender() */\n      tag_113\n        /* \"kepeng.sol\":8076:8086  _msgSender */\n      tag_107\n        /* \"kepeng.sol\":8076:8088  _msgSender() */\n      jump\t// in\n    tag_113:\n        /* \"kepeng.sol\":8056:8089  _allowances[sender][_msgSender()] */\n      0xffffffffffffffffffffffffffffffffffffffff\n      and\n      0xffffffffffffffffffffffffffffffffffffffff\n      and\n      dup2\n      mstore\n      0x20\n      add\n      swap1\n      dup2\n      mstore\n      0x20\n      add\n      0x00\n      keccak256\n      sload\n        /* \"kepeng.sol\":8029:8089  uint256 currentAllowance = _allowances[sender][_msgSender()] */\n      swap1\n      pop\n        /* \"kepeng.sol\":8128:8134  amount */\n      dup3\n        /* \"kepeng.sol\":8108:8124  currentAllowance */\n      dup2\n        /* \"kepeng.sol\":8108:8134  currentAllowance >= amount */\n      lt\n      iszero\n        /* \"kepeng.sol\":8100:8179  require(currentAllowance >= amount, \"ERC20: transfer amount exceeds allowance\") */\n      tag_114\n      jumpi\n      mload(0x40)\n      0x08c379a000000000000000000000000000000000000000000000000000000000\n      dup2\n      mstore\n      0x04\n      add\n      tag_115\n      swap1\n      tag_116\n      jump\t// in\n    tag_115:\n      mload(0x40)\n      dup1\n      swap2\n      sub\n      swap1\n      revert\n    tag_114:\n        /* \"kepeng.sol\":8215:8272  _approve(sender, _msgSender(), currentAllowance - amount) */\n      tag_117\n        /* \"kepeng.sol\":8224:8230  sender */\n      dup6\n        /* \"kepeng.sol\":8232:8244  _msgSender() */\n      tag_118\n        /* \"kepeng.sol\":8232:8242  _msgSender */\n      tag_107\n        /* \"kepeng.sol\":8232:8244  _msgSender() */\n      jump\t// in\n    tag_118:\n        /* \"kepeng.sol\":8265:8271  amount */\n      dup6\n        /* \"kepeng.sol\":8246:8262  currentAllowance */\n      dup5\n        /* \"kepeng.sol\":8246:8271  currentAllowance - amount */\n      sub\n        /* \"kepeng.sol\":8215:8223  _approve */\n      tag_108\n        /* \"kepeng.sol\":8215:8272  _approve(sender, _msgSender(), currentAllowance - amount) */\n      jump\t// in\n    tag_117:\n        /* \"kepeng.sol\":8303:8307  true */\n      0x01\n        /* \"kepeng.sol\":8296:8307  return true */\n      swap2\n      pop\n      pop\n        /* \"kepeng.sol\":7823:8315  function transferFrom(\r... */\n      swap4\n      swap3\n      pop\n      pop\n      pop\n      jump\t// out\n        /* \"kepeng.sol\":5968:6060  function decimals() public view virtual override returns (uint8) {\r... */\n    tag_45:\n        /* \"kepeng.sol\":6026:6031  uint8 */\n      0x00\n        /* \"kepeng.sol\":6051:6052  4 */\n      0x04\n        /* \"kepeng.sol\":6044:6052  return 4 */\n      swap1\n      pop\n        /* \"kepeng.sol\":5968:6060  function decimals() public view virtual override returns (uint8) {\r... */\n      swap1\n      jump\t// out\n        /* \"kepeng.sol\":8724:8939  function increaseAllowance(address spender, uint256 addedValue) public virtual returns (bool) {\r... */\n    tag_50:\n        /* \"kepeng.sol\":8812:8816  bool */\n      0x00\n        /* \"kepeng.sol\":8829:8909  _approve(_msgSender(), spender, _allowances[_msgSender()][spender] + addedValue) */\n      tag_121\n        /* \"kepeng.sol\":8838:8850  _msgSender() */\n      tag_122\n        /* \"kepeng.sol\":8838:8848  _msgSender */\n      tag_107\n        /* \"kepeng.sol\":8838:8850  _msgSender() */\n      jump\t// in\n    tag_122:\n        /* \"kepeng.sol\":8852:8859  spender */\n      dup5\n        /* \"kepeng.sol\":8898:8908  addedValue */\n      dup5\n        /* \"kepeng.sol\":8861:8872  _allowances */\n      0x01\n        /* \"kepeng.sol\":8861:8886  _allowances[_msgSender()] */\n      0x00\n        /* \"kepeng.sol\":8873:8885  _msgSender() */\n      tag_123\n        /* \"kepeng.sol\":8873:8883  _msgSender */\n      tag_107\n        /* \"kepeng.sol\":8873:8885  _msgSender() */\n      jump\t// in\n    tag_123:\n        /* \"kepeng.sol\":8861:8886  _allowances[_msgSender()] */\n      0xffffffffffffffffffffffffffffffffffffffff\n      and\n      0xffffffffffffffffffffffffffffffffffffffff\n      and\n      dup2\n      mstore\n      0x20\n      add\n      swap1\n      dup2\n      mstore\n      0x20\n      add\n      0x00\n      keccak256\n        /* \"kepeng.sol\":8861:8895  _allowances[_msgSender()][spender] */\n      0x00\n        /* \"kepeng.sol\":8887:8894  spender */\n      dup9\n        /* \"kepeng.sol\":8861:8895  _allowances[_msgSender()][spender] */\n      0xffffffffffffffffffffffffffffffffffffffff\n      and\n      0xffffffffffffffffffffffffffffffffffffffff\n      and\n      dup2\n      mstore\n      0x20\n      add\n      swap1\n      dup2\n      mstore\n      0x20\n      add\n      0x00\n      keccak256\n      sload\n        /* \"kepeng.sol\":8861:8908  _allowances[_msgSender()][spender] + addedValue */\n      tag_124\n      swap2\n      swap1\n      tag_125\n      jump\t// in\n    tag_124:\n        /* \"kepeng.sol\":8829:8837  _approve */\n      tag_108\n        /* \"kepeng.sol\":8829:8909  _approve(_msgSender(), spender, _allowances[_msgSender()][spender] + addedValue) */\n      jump\t// in\n    tag_121:\n        /* \"kepeng.sol\":8927:8931  true */\n      0x01\n        /* \"kepeng.sol\":8920:8931  return true */\n      swap1\n      pop\n        /* \"kepeng.sol\":8724:8939  function increaseAllowance(address spender, uint256 addedValue) public virtual returns (bool) {\r... */\n      swap3\n      swap2\n      pop\n      pop\n      jump\t// out\n        /* \"kepeng.sol\":20013:20078  function unpause() public onlyOwner {\r... */\n    tag_53:\n        /* \"kepeng.sol\":18487:18499  _msgSender() */\n      tag_127\n        /* \"kepeng.sol\":18487:18497  _msgSender */\n      tag_107\n        /* \"kepeng.sol\":18487:18499  _msgSender() */\n      jump\t// in\n    tag_127:\n        /* \"kepeng.sol\":18476:18499  owner() == _msgSender() */\n      0xffffffffffffffffffffffffffffffffffffffff\n      and\n        /* \"kepeng.sol\":18476:18483  owner() */\n      tag_128\n        /* \"kepeng.sol\":18476:18481  owner */\n      tag_74\n        /* \"kepeng.sol\":18476:18483  owner() */\n      jump\t// in\n    tag_128:\n        /* \"kepeng.sol\":18476:18499  owner() == _msgSender() */\n      0xffffffffffffffffffffffffffffffffffffffff\n      and\n      eq\n        /* \"kepeng.sol\":18468:18536  require(owner() == _msgSender(), \"Ownable: caller is not the owner\") */\n      tag_129\n      jumpi\n      mload(0x40)\n      0x08c379a000000000000000000000000000000000000000000000000000000000\n      dup2\n      mstore\n      0x04\n      add\n      tag_130\n      swap1\n      tag_131\n      jump\t// in\n    tag_130:\n      mload(0x40)\n      dup1\n      swap2\n      sub\n      swap1\n      revert\n    tag_129:\n        /* \"kepeng.sol\":20060:20070  _unpause() */\n      tag_133\n        /* \"kepeng.sol\":20060:20068  _unpause */\n      tag_134\n        /* \"kepeng.sol\":20060:20070  _unpause() */\n      jump\t// in\n    tag_133:\n        /* \"kepeng.sol\":20013:20078  function unpause() public onlyOwner {\r... */\n      jump\t// out\n        /* \"kepeng.sol\":15343:15434  function burn(uint256 amount) public virtual {\r... */\n    tag_57:\n        /* \"kepeng.sol\":15399:15426  _burn(_msgSender(), amount) */\n      tag_136\n        /* \"kepeng.sol\":15405:15417  _msgSender() */\n      tag_137\n        /* \"kepeng.sol\":15405:15415  _msgSender */\n      tag_107\n        /* \"kepeng.sol\":15405:15417  _msgSender() */\n      jump\t// in\n    tag_137:\n        /* \"kepeng.sol\":15419:15425  amount */\n      dup3\n        /* \"kepeng.sol\":15399:15404  _burn */\n      tag_138\n        /* \"kepeng.sol\":15399:15426  _burn(_msgSender(), amount) */\n      jump\t// in\n    tag_136:\n        /* \"kepeng.sol\":15343:15434  function burn(uint256 amount) public virtual {\r... */\n      pop\n      jump\t// out\n        /* \"kepeng.sol\":16660:16746  function paused() public view virtual returns (bool) {\r... */\n    tag_59:\n        /* \"kepeng.sol\":16707:16711  bool */\n      0x00\n        /* \"kepeng.sol\":16731:16738  _paused */\n      0x05\n      0x00\n      swap1\n      sload\n      swap1\n      0x0100\n      exp\n      swap1\n      div\n      0xff\n      and\n        /* \"kepeng.sol\":16724:16738  return _paused */\n      swap1\n      pop\n        /* \"kepeng.sol\":16660:16746  function paused() public view virtual returns (bool) {\r... */\n      swap1\n      jump\t// out\n        /* \"kepeng.sol\":6296:6423  function balanceOf(address account) public view virtual override returns (uint256) {\r... */\n    tag_64:\n        /* \"kepeng.sol\":6370:6377  uint256 */\n      0x00\n        /* \"kepeng.sol\":6397:6406  _balances */\n      dup1\n        /* \"kepeng.sol\":6397:6415  _balances[account] */\n      0x00\n        /* \"kepeng.sol\":6407:6414  account */\n      dup4\n        /* \"kepeng.sol\":6397:6415  _balances[account] */\n      0xffffffffffffffffffffffffffffffffffffffff\n      and\n      0xffffffffffffffffffffffffffffffffffffffff\n      and\n      dup2\n      mstore\n      0x20\n      add\n      swap1\n      dup2\n      mstore\n      0x20\n      add\n      0x00\n      keccak256\n      sload\n        /* \"kepeng.sol\":6390:6415  return _balances[account] */\n      swap1\n      pop\n        /* \"kepeng.sol\":6296:6423  function balanceOf(address account) public view virtual override returns (uint256) {\r... */\n      swap2\n      swap1\n      pop\n      jump\t// out\n        /* \"kepeng.sol\":18907:19010  function renounceOwnership() public virtual onlyOwner {\r... */\n    tag_67:\n        /* \"kepeng.sol\":18487:18499  _msgSender() */\n      tag_142\n        /* \"kepeng.sol\":18487:18497  _msgSender */\n      tag_107\n        /* \"kepeng.sol\":18487:18499  _msgSender() */\n      jump\t// in\n    tag_142:\n        /* \"kepeng.sol\":18476:18499  owner() == _msgSender() */\n      0xffffffffffffffffffffffffffffffffffffffff\n      and\n        /* \"kepeng.sol\":18476:18483  owner() */\n      tag_143\n        /* \"kepeng.sol\":18476:18481  owner */\n      tag_74\n        /* \"kepeng.sol\":18476:18483  owner() */\n      jump\t// in\n    tag_143:\n        /* \"kepeng.sol\":18476:18499  owner() == _msgSender() */\n      0xffffffffffffffffffffffffffffffffffffffff\n      and\n      eq\n        /* \"kepeng.sol\":18468:18536  require(owner() == _msgSender(), \"Ownable: caller is not the owner\") */\n      tag_144\n      jumpi\n      mload(0x40)\n      0x08c379a000000000000000000000000000000000000000000000000000000000\n      dup2\n      mstore\n      0x04\n      add\n      tag_145\n      swap1\n      tag_131\n      jump\t// in\n    tag_145:\n      mload(0x40)\n      dup1\n      swap2\n      sub\n      swap1\n      revert\n    tag_144:\n        /* \"kepeng.sol\":18972:19002  _transferOwnership(address(0)) */\n      tag_147\n        /* \"kepeng.sol\":18999:19000  0 */\n      0x00\n        /* \"kepeng.sol\":18972:18990  _transferOwnership */\n      tag_148\n        /* \"kepeng.sol\":18972:19002  _transferOwnership(address(0)) */\n      jump\t// in\n    tag_147:\n        /* \"kepeng.sol\":18907:19010  function renounceOwnership() public virtual onlyOwner {\r... */\n      jump\t// out\n        /* \"kepeng.sol\":15753:16121  function burnFrom(address account, uint256 amount) public virtual {\r... */\n    tag_70:\n        /* \"kepeng.sol\":15830:15854  uint256 currentAllowance */\n      0x00\n        /* \"kepeng.sol\":15857:15889  allowance(account, _msgSender()) */\n      tag_150\n        /* \"kepeng.sol\":15867:15874  account */\n      dup4\n        /* \"kepeng.sol\":15876:15888  _msgSender() */\n      tag_151\n        /* \"kepeng.sol\":15876:15886  _msgSender */\n      tag_107\n        /* \"kepeng.sol\":15876:15888  _msgSender() */\n      jump\t// in\n    tag_151:\n        /* \"kepeng.sol\":15857:15866  allowance */\n      tag_91\n        /* \"kepeng.sol\":15857:15889  allowance(account, _msgSender()) */\n      jump\t// in\n    tag_150:\n        /* \"kepeng.sol\":15830:15889  uint256 currentAllowance = allowance(account, _msgSender()) */\n      swap1\n      pop\n        /* \"kepeng.sol\":15928:15934  amount */\n      dup2\n        /* \"kepeng.sol\":15908:15924  currentAllowance */\n      dup2\n        /* \"kepeng.sol\":15908:15934  currentAllowance >= amount */\n      lt\n      iszero\n        /* \"kepeng.sol\":15900:15975  require(currentAllowance >= amount, \"ERC20: burn amount exceeds allowance\") */\n      tag_152\n      jumpi\n      mload(0x40)\n      0x08c379a000000000000000000000000000000000000000000000000000000000\n      dup2\n      mstore\n      0x04\n      add\n      tag_153\n      swap1\n      tag_154\n      jump\t// in\n    tag_153:\n      mload(0x40)\n      dup1\n      swap2\n      sub\n      swap1\n      revert\n    tag_152:\n        /* \"kepeng.sol\":16011:16069  _approve(account, _msgSender(), currentAllowance - amount) */\n      tag_155\n        /* \"kepeng.sol\":16020:16027  account */\n      dup4\n        /* \"kepeng.sol\":16029:16041  _msgSender() */\n      tag_156\n        /* \"kepeng.sol\":16029:16039  _msgSender */\n      tag_107\n        /* \"kepeng.sol\":16029:16041  _msgSender() */\n      jump\t// in\n    tag_156:\n        /* \"kepeng.sol\":16062:16068  amount */\n      dup5\n        /* \"kepeng.sol\":16043:16059  currentAllowance */\n      dup5\n        /* \"kepeng.sol\":16043:16068  currentAllowance - amount */\n      sub\n        /* \"kepeng.sol\":16011:16019  _approve */\n      tag_108\n        /* \"kepeng.sol\":16011:16069  _approve(account, _msgSender(), currentAllowance - amount) */\n      jump\t// in\n    tag_155:\n        /* \"kepeng.sol\":16091:16113  _burn(account, amount) */\n      tag_157\n        /* \"kepeng.sol\":16097:16104  account */\n      dup4\n        /* \"kepeng.sol\":16106:16112  amount */\n      dup4\n        /* \"kepeng.sol\":16091:16096  _burn */\n      tag_138\n        /* \"kepeng.sol\":16091:16113  _burn(account, amount) */\n      jump\t// in\n    tag_157:\n        /* \"kepeng.sol\":15753:16121  function burnFrom(address account, uint256 amount) public virtual {\r... */\n      pop\n      pop\n      pop\n      jump\t// out\n        /* \"kepeng.sol\":19944:20005  function pause() public onlyOwner {\r... */\n    tag_72:\n        /* \"kepeng.sol\":18487:18499  _msgSender() */\n      tag_159\n        /* \"kepeng.sol\":18487:18497  _msgSender */\n      tag_107\n        /* \"kepeng.sol\":18487:18499  _msgSender() */\n      jump\t// in\n    tag_159:\n        /* \"kepeng.sol\":18476:18499  owner() == _msgSender() */\n      0xffffffffffffffffffffffffffffffffffffffff\n      and\n        /* \"kepeng.sol\":18476:18483  owner() */\n      tag_160\n        /* \"kepeng.sol\":18476:18481  owner */\n      tag_74\n        /* \"kepeng.sol\":18476:18483  owner() */\n      jump\t// in\n    tag_160:\n        /* \"kepeng.sol\":18476:18499  owner() == _msgSender() */\n      0xffffffffffffffffffffffffffffffffffffffff\n      and\n      eq\n        /* \"kepeng.sol\":18468:18536  require(owner() == _msgSender(), \"Ownable: caller is not the owner\") */\n      tag_161\n      jumpi\n      mload(0x40)\n      0x08c379a000000000000000000000000000000000000000000000000000000000\n      dup2\n      mstore\n      0x04\n      add\n      tag_162\n      swap1\n      tag_131\n      jump\t// in\n    tag_162:\n      mload(0x40)\n      dup1\n      swap2\n      sub\n      swap1\n      revert\n    tag_161:\n        /* \"kepeng.sol\":19989:19997  _pause() */\n      tag_164\n        /* \"kepeng.sol\":19989:19995  _pause */\n      tag_165\n        /* \"kepeng.sol\":19989:19997  _pause() */\n      jump\t// in\n    tag_164:\n        /* \"kepeng.sol\":19944:20005  function pause() public onlyOwner {\r... */\n      jump\t// out\n        /* \"kepeng.sol\":18256:18343  function owner() public view virtual returns (address) {\r... */\n    tag_74:\n        /* \"kepeng.sol\":18302:18309  address */\n      0x00\n        /* \"kepeng.sol\":18329:18335  _owner */\n      0x05\n      0x01\n      swap1\n      sload\n      swap1\n      0x0100\n      exp\n      swap1\n      div\n      0xffffffffffffffffffffffffffffffffffffffff\n      and\n        /* \"kepeng.sol\":18322:18335  return _owner */\n      swap1\n      pop\n        /* \"kepeng.sol\":18256:18343  function owner() public view virtual returns (address) {\r... */\n      swap1\n      jump\t// out\n        /* \"kepeng.sol\":5225:5329  function symbol() public view virtual override returns (string memory) {\r... */\n    tag_78:\n        /* \"kepeng.sol\":5281:5294  string memory */\n      0x60\n        /* \"kepeng.sol\":5314:5321  _symbol */\n      0x04\n        /* \"kepeng.sol\":5307:5321  return _symbol */\n      dup1\n      sload\n      tag_168\n      swap1\n      tag_99\n      jump\t// in\n    tag_168:\n      dup1\n      0x1f\n      add\n      0x20\n      dup1\n      swap2\n      div\n      mul\n      0x20\n      add\n      mload(0x40)\n      swap1\n      dup2\n      add\n      0x40\n      mstore\n      dup1\n      swap3\n      swap2\n      swap1\n      dup2\n      dup2\n      mstore\n      0x20\n      add\n      dup3\n      dup1\n      sload\n      tag_169\n      swap1\n      tag_99\n      jump\t// in\n    tag_169:\n      dup1\n      iszero\n      tag_170\n      jumpi\n      dup1\n      0x1f\n      lt\n      tag_171\n      jumpi\n      0x0100\n      dup1\n      dup4\n      sload\n      div\n      mul\n      dup4\n      mstore\n      swap2\n      0x20\n      add\n      swap2\n      jump(tag_170)\n    tag_171:\n      dup3\n      add\n      swap2\n      swap1\n      0x00\n      mstore\n      keccak256(0x00, 0x20)\n      swap1\n    tag_172:\n      dup2\n      sload\n      dup2\n      mstore\n      swap1\n      0x01\n      add\n      swap1\n      0x20\n      add\n      dup1\n      dup4\n      gt\n      tag_172\n      jumpi\n      dup3\n      swap1\n      sub\n      0x1f\n      and\n      dup3\n      add\n      swap2\n    tag_170:\n      pop\n      pop\n      pop\n      pop\n      pop\n      swap1\n      pop\n        /* \"kepeng.sol\":5225:5329  function symbol() public view virtual override returns (string memory) {\r... */\n      swap1\n      jump\t// out\n        /* \"kepeng.sol\":9442:9855  function decreaseAllowance(address spender, uint256 subtractedValue) public virtual returns (bool) {\r... */\n    tag_82:\n        /* \"kepeng.sol\":9535:9539  bool */\n      0x00\n        /* \"kepeng.sol\":9552:9576  uint256 currentAllowance */\n      dup1\n        /* \"kepeng.sol\":9579:9590  _allowances */\n      0x01\n        /* \"kepeng.sol\":9579:9604  _allowances[_msgSender()] */\n      0x00\n        /* \"kepeng.sol\":9591:9603  _msgSender() */\n      tag_174\n        /* \"kepeng.sol\":9591:9601  _msgSender */\n      tag_107\n        /* \"kepeng.sol\":9591:9603  _msgSender() */\n      jump\t// in\n    tag_174:\n        /* \"kepeng.sol\":9579:9604  _allowances[_msgSender()] */\n      0xffffffffffffffffffffffffffffffffffffffff\n      and\n      0xffffffffffffffffffffffffffffffffffffffff\n      and\n      dup2\n      mstore\n      0x20\n      add\n      swap1\n      dup2\n      mstore\n      0x20\n      add\n      0x00\n      keccak256\n        /* \"kepeng.sol\":9579:9613  _allowances[_msgSender()][spender] */\n      0x00\n        /* \"kepeng.sol\":9605:9612  spender */\n      dup6\n        /* \"kepeng.sol\":9579:9613  _allowances[_msgSender()][spender] */\n      0xffffffffffffffffffffffffffffffffffffffff\n      and\n      0xffffffffffffffffffffffffffffffffffffffff\n      and\n      dup2\n      mstore\n      0x20\n      add\n      swap1\n      dup2\n      mstore\n      0x20\n      add\n      0x00\n      keccak256\n      sload\n        /* \"kepeng.sol\":9552:9613  uint256 currentAllowance = _allowances[_msgSender()][spender] */\n      swap1\n      pop\n        /* \"kepeng.sol\":9652:9667  subtractedValue */\n      dup3\n        /* \"kepeng.sol\":9632:9648  currentAllowance */\n      dup2\n        /* \"kepeng.sol\":9632:9667  currentAllowance >= subtractedValue */\n      lt\n      iszero\n        /* \"kepeng.sol\":9624:9709  require(currentAllowance >= subtractedValue, \"ERC20: decreased allowance below zero\") */\n      tag_175\n      jumpi\n      mload(0x40)\n      0x08c379a000000000000000000000000000000000000000000000000000000000\n      dup2\n      mstore\n      0x04\n      add\n      tag_176\n      swap1\n      tag_177\n      jump\t// in\n    tag_176:\n      mload(0x40)\n      dup1\n      swap2\n      sub\n      swap1\n      revert\n    tag_175:\n        /* \"kepeng.sol\":9745:9812  _approve(_msgSender(), spender, currentAllowance - subtractedValue) */\n      tag_178\n        /* \"kepeng.sol\":9754:9766  _msgSender() */\n      tag_179\n        /* \"kepeng.sol\":9754:9764  _msgSender */\n      tag_107\n        /* \"kepeng.sol\":9754:9766  _msgSender() */\n      jump\t// in\n    tag_179:\n        /* \"kepeng.sol\":9768:9775  spender */\n      dup6\n        /* \"kepeng.sol\":9796:9811  subtractedValue */\n      dup6\n        /* \"kepeng.sol\":9777:9793  currentAllowance */\n      dup5\n        /* \"kepeng.sol\":9777:9811  currentAllowance - subtractedValue */\n      sub\n        /* \"kepeng.sol\":9745:9753  _approve */\n      tag_108\n        /* \"kepeng.sol\":9745:9812  _approve(_msgSender(), spender, currentAllowance - subtractedValue) */\n      jump\t// in\n    tag_178:\n        /* \"kepeng.sol\":9843:9847  true */\n      0x01\n        /* \"kepeng.sol\":9836:9847  return true */\n      swap2\n      pop\n      pop\n        /* \"kepeng.sol\":9442:9855  function decreaseAllowance(address spender, uint256 subtractedValue) public virtual returns (bool) {\r... */\n      swap3\n      swap2\n      pop\n      pop\n      jump\t// out\n        /* \"kepeng.sol\":6636:6811  function transfer(address recipient, uint256 amount) public virtual override returns (bool) {\r... */\n    tag_86:\n        /* \"kepeng.sol\":6722:6726  bool */\n      0x00\n        /* \"kepeng.sol\":6739:6781  _transfer(_msgSender(), recipient, amount) */\n      tag_181\n        /* \"kepeng.sol\":6749:6761  _msgSender() */\n      tag_182\n        /* \"kepeng.sol\":6749:6759  _msgSender */\n      tag_107\n        /* \"kepeng.sol\":6749:6761  _msgSender() */\n      jump\t// in\n    tag_182:\n        /* \"kepeng.sol\":6763:6772  recipient */\n      dup5\n        /* \"kepeng.sol\":6774:6780  amount */\n      dup5\n        /* \"kepeng.sol\":6739:6748  _transfer */\n      tag_112\n        /* \"kepeng.sol\":6739:6781  _transfer(_msgSender(), recipient, amount) */\n      jump\t// in\n    tag_181:\n        /* \"kepeng.sol\":6799:6803  true */\n      0x01\n        /* \"kepeng.sol\":6792:6803  return true */\n      swap1\n      pop\n        /* \"kepeng.sol\":6636:6811  function transfer(address recipient, uint256 amount) public virtual override returns (bool) {\r... */\n      swap3\n      swap2\n      pop\n      pop\n      jump\t// out\n        /* \"kepeng.sol\":6874:7025  function allowance(address owner, address spender) public view virtual override returns (uint256) {\r... */\n    tag_91:\n        /* \"kepeng.sol\":6963:6970  uint256 */\n      0x00\n        /* \"kepeng.sol\":6990:7001  _allowances */\n      0x01\n        /* \"kepeng.sol\":6990:7008  _allowances[owner] */\n      0x00\n        /* \"kepeng.sol\":7002:7007  owner */\n      dup5\n        /* \"kepeng.sol\":6990:7008  _allowances[owner] */\n      0xffffffffffffffffffffffffffffffffffffffff\n      and\n      0xffffffffffffffffffffffffffffffffffffffff\n      and\n      dup2\n      mstore\n      0x20\n      add\n      swap1\n      dup2\n      mstore\n      0x20\n      add\n      0x00\n      keccak256\n        /* \"kepeng.sol\":6990:7017  _allowances[owner][spender] */\n      0x00\n        /* \"kepeng.sol\":7009:7016  spender */\n      dup4\n        /* \"kepeng.sol\":6990:7017  _allowances[owner][spender] */\n      0xffffffffffffffffffffffffffffffffffffffff\n      and\n      0xffffffffffffffffffffffffffffffffffffffff\n      and\n      dup2\n      mstore\n      0x20\n      add\n      swap1\n      dup2\n      mstore\n      0x20\n      add\n      0x00\n      keccak256\n      sload\n        /* \"kepeng.sol\":6983:7017  return _allowances[owner][spender] */\n      swap1\n      pop\n        /* \"kepeng.sol\":6874:7025  function allowance(address owner, address spender) public view virtual override returns (uint256) {\r... */\n      swap3\n      swap2\n      pop\n      pop\n      jump\t// out\n        /* \"kepeng.sol\":19165:19366  function transferOwnership(address newOwner) public virtual onlyOwner {\r... */\n    tag_95:\n        /* \"kepeng.sol\":18487:18499  _msgSender() */\n      tag_185\n        /* \"kepeng.sol\":18487:18497  _msgSender */\n      tag_107\n        /* \"kepeng.sol\":18487:18499  _msgSender() */\n      jump\t// in\n    tag_185:\n        /* \"kepeng.sol\":18476:18499  owner() == _msgSender() */\n      0xffffffffffffffffffffffffffffffffffffffff\n      and\n        /* \"kepeng.sol\":18476:18483  owner() */\n      tag_186\n        /* \"kepeng.sol\":18476:18481  owner */\n      tag_74\n        /* \"kepeng.sol\":18476:18483  owner() */\n      jump\t// in\n    tag_186:\n        /* \"kepeng.sol\":18476:18499  owner() == _msgSender() */\n      0xffffffffffffffffffffffffffffffffffffffff\n      and\n      eq\n        /* \"kepeng.sol\":18468:18536  require(owner() == _msgSender(), \"Ownable: caller is not the owner\") */\n      tag_187\n      jumpi\n      mload(0x40)\n      0x08c379a000000000000000000000000000000000000000000000000000000000\n      dup2\n      mstore\n      0x04\n      add\n      tag_188\n      swap1\n      tag_131\n      jump\t// in\n    tag_188:\n      mload(0x40)\n      dup1\n      swap2\n      sub\n      swap1\n      revert\n    tag_187:\n        /* \"kepeng.sol\":19274:19275  0 */\n      0x00\n        /* \"kepeng.sol\":19254:19276  newOwner != address(0) */\n      0xffffffffffffffffffffffffffffffffffffffff\n      and\n        /* \"kepeng.sol\":19254:19262  newOwner */\n      dup2\n        /* \"kepeng.sol\":19254:19276  newOwner != address(0) */\n      0xffffffffffffffffffffffffffffffffffffffff\n      and\n      eq\n      iszero\n        /* \"kepeng.sol\":19246:19319  require(newOwner != address(0), \"Ownable: new owner is the zero address\") */\n      tag_190\n      jumpi\n      mload(0x40)\n      0x08c379a000000000000000000000000000000000000000000000000000000000\n      dup2\n      mstore\n      0x04\n      add\n      tag_191\n      swap1\n      tag_192\n      jump\t// in\n    tag_191:\n      mload(0x40)\n      dup1\n      swap2\n      sub\n      swap1\n      revert\n    tag_190:\n        /* \"kepeng.sol\":19330:19358  _transferOwnership(newOwner) */\n      tag_193\n        /* \"kepeng.sol\":19349:19357  newOwner */\n      dup2\n        /* \"kepeng.sol\":19330:19348  _transferOwnership */\n      tag_148\n        /* \"kepeng.sol\":19330:19358  _transferOwnership(newOwner) */\n      jump\t// in\n    tag_193:\n        /* \"kepeng.sol\":19165:19366  function transferOwnership(address newOwner) public virtual onlyOwner {\r... */\n      pop\n      jump\t// out\n        /* \"kepeng.sol\":14106:14231  function _beforeTokenTransfer(\r... */\n    tag_96:\n      pop\n      pop\n      pop\n      jump\t// out\n        /* \"kepeng.sol\":4014:4112  function _msgSender() internal view virtual returns (address) {\r... */\n    tag_107:\n        /* \"kepeng.sol\":4067:4074  address */\n      0x00\n        /* \"kepeng.sol\":4094:4104  msg.sender */\n      caller\n        /* \"kepeng.sol\":4087:4104  return msg.sender */\n      swap1\n      pop\n        /* \"kepeng.sol\":4014:4112  function _msgSender() internal view virtual returns (address) {\r... */\n      swap1\n      jump\t// out\n        /* \"kepeng.sol\":13126:13506  function _approve(\r... */\n    tag_108:\n        /* \"kepeng.sol\":13279:13280  0 */\n      0x00\n        /* \"kepeng.sol\":13262:13281  owner != address(0) */\n      0xffffffffffffffffffffffffffffffffffffffff\n      and\n        /* \"kepeng.sol\":13262:13267  owner */\n      dup4\n        /* \"kepeng.sol\":13262:13281  owner != address(0) */\n      0xffffffffffffffffffffffffffffffffffffffff\n      and\n      eq\n      iszero\n        /* \"kepeng.sol\":13254:13322  require(owner != address(0), \"ERC20: approve from the zero address\") */\n      tag_197\n      jumpi\n      mload(0x40)\n      0x08c379a000000000000000000000000000000000000000000000000000000000\n      dup2\n      mstore\n      0x04\n      add\n      tag_198\n      swap1\n      tag_199\n      jump\t// in\n    tag_198:\n      mload(0x40)\n      dup1\n      swap2\n      sub\n      swap1\n      revert\n    tag_197:\n        /* \"kepeng.sol\":13360:13361  0 */\n      0x00\n        /* \"kepeng.sol\":13341:13362  spender != address(0) */\n      0xffffffffffffffffffffffffffffffffffffffff\n      and\n        /* \"kepeng.sol\":13341:13348  spender */\n      dup3\n        /* \"kepeng.sol\":13341:13362  spender != address(0) */\n      0xffffffffffffffffffffffffffffffffffffffff\n      and\n      eq\n      iszero\n        /* \"kepeng.sol\":13333:13401  require(spender != address(0), \"ERC20: approve to the zero address\") */\n      tag_200\n      jumpi\n      mload(0x40)\n      0x08c379a000000000000000000000000000000000000000000000000000000000\n      dup2\n      mstore\n      0x04\n      add\n      tag_201\n      swap1\n      tag_202\n      jump\t// in\n    tag_201:\n      mload(0x40)\n      dup1\n      swap2\n      sub\n      swap1\n      revert\n    tag_200:\n        /* \"kepeng.sol\":13444:13450  amount */\n      dup1\n        /* \"kepeng.sol\":13414:13425  _allowances */\n      0x01\n        /* \"kepeng.sol\":13414:13432  _allowances[owner] */\n      0x00\n        /* \"kepeng.sol\":13426:13431  owner */\n      dup6\n        /* \"kepeng.sol\":13414:13432  _allowances[owner] */\n      0xffffffffffffffffffffffffffffffffffffffff\n      and\n      0xffffffffffffffffffffffffffffffffffffffff\n      and\n      dup2\n      mstore\n      0x20\n      add\n      swap1\n      dup2\n      mstore\n      0x20\n      add\n      0x00\n      keccak256\n        /* \"kepeng.sol\":13414:13441  _allowances[owner][spender] */\n      0x00\n        /* \"kepeng.sol\":13433:13440  spender */\n      dup5\n        /* \"kepeng.sol\":13414:13441  _allowances[owner][spender] */\n      0xffffffffffffffffffffffffffffffffffffffff\n      and\n      0xffffffffffffffffffffffffffffffffffffffff\n      and\n      dup2\n      mstore\n      0x20\n      add\n      swap1\n      dup2\n      mstore\n      0x20\n      add\n      0x00\n      keccak256\n        /* \"kepeng.sol\":13414:13450  _allowances[owner][spender] = amount */\n      dup2\n      swap1\n      sstore\n      pop\n        /* \"kepeng.sol\":13482:13489  spender */\n      dup2\n        /* \"kepeng.sol\":13466:13498  Approval(owner, spender, amount) */\n      0xffffffffffffffffffffffffffffffffffffffff\n      and\n        /* \"kepeng.sol\":13475:13480  owner */\n      dup4\n        /* \"kepeng.sol\":13466:13498  Approval(owner, spender, amount) */\n      0xffffffffffffffffffffffffffffffffffffffff\n      and\n      0x8c5be1e5ebec7d5bd14f71427d1e84f3dd0314c0f7b2291e5b200ac8c7c3b925\n        /* \"kepeng.sol\":13491:13497  amount */\n      dup4\n        /* \"kepeng.sol\":13466:13498  Approval(owner, spender, amount) */\n      mload(0x40)\n      tag_203\n      swap2\n      swap1\n      tag_38\n      jump\t// in\n    tag_203:\n      mload(0x40)\n      dup1\n      swap2\n      sub\n      swap1\n      log3\n        /* \"kepeng.sol\":13126:13506  function _approve(\r... */\n      pop\n      pop\n      pop\n      jump\t// out\n        /* \"kepeng.sol\":10345:11078  function _transfer(\r... */\n    tag_112:\n        /* \"kepeng.sol\":10503:10504  0 */\n      0x00\n        /* \"kepeng.sol\":10485:10505  sender != address(0) */\n      0xffffffffffffffffffffffffffffffffffffffff\n      and\n        /* \"kepeng.sol\":10485:10491  sender */\n      dup4\n        /* \"kepeng.sol\":10485:10505  sender != address(0) */\n      0xffffffffffffffffffffffffffffffffffffffff\n      and\n      eq\n      iszero\n        /* \"kepeng.sol\":10477:10547  require(sender != address(0), \"ERC20: transfer from the zero address\") */\n      tag_205\n      jumpi\n      mload(0x40)\n      0x08c379a000000000000000000000000000000000000000000000000000000000\n      dup2\n      mstore\n      0x04\n      add\n      tag_206\n      swap1\n      tag_207\n      jump\t// in\n    tag_206:\n      mload(0x40)\n      dup1\n      swap2\n      sub\n      swap1\n      revert\n    tag_205:\n        /* \"kepeng.sol\":10587:10588  0 */\n      0x00\n        /* \"kepeng.sol\":10566:10589  recipient != address(0) */\n      0xffffffffffffffffffffffffffffffffffffffff\n      and\n        /* \"kepeng.sol\":10566:10575  recipient */\n      dup3\n        /* \"kepeng.sol\":10566:10589  recipient != address(0) */\n      0xffffffffffffffffffffffffffffffffffffffff\n      and\n      eq\n      iszero\n        /* \"kepeng.sol\":10558:10629  require(recipient != address(0), \"ERC20: transfer to the zero address\") */\n      tag_208\n      jumpi\n      mload(0x40)\n      0x08c379a000000000000000000000000000000000000000000000000000000000\n      dup2\n      mstore\n      0x04\n      add\n      tag_209\n      swap1\n      tag_210\n      jump\t// in\n    tag_209:\n      mload(0x40)\n      dup1\n      swap2\n      sub\n      swap1\n      revert\n    tag_208:\n        /* \"kepeng.sol\":10642:10689  _beforeTokenTransfer(sender, recipient, amount) */\n      tag_211\n        /* \"kepeng.sol\":10663:10669  sender */\n      dup4\n        /* \"kepeng.sol\":10671:10680  recipient */\n      dup4\n        /* \"kepeng.sol\":10682:10688  amount */\n      dup4\n        /* \"kepeng.sol\":10642:10662  _beforeTokenTransfer */\n      tag_212\n        /* \"kepeng.sol\":10642:10689  _beforeTokenTransfer(sender, recipient, amount) */\n      jump\t// in\n    tag_211:\n        /* \"kepeng.sol\":10702:10723  uint256 senderBalance */\n      0x00\n        /* \"kepeng.sol\":10726:10735  _balances */\n      dup1\n        /* \"kepeng.sol\":10726:10743  _balances[sender] */\n      0x00\n        /* \"kepeng.sol\":10736:10742  sender */\n      dup6\n        /* \"kepeng.sol\":10726:10743  _balances[sender] */\n      0xffffffffffffffffffffffffffffffffffffffff\n      and\n      0xffffffffffffffffffffffffffffffffffffffff\n      and\n      dup2\n      mstore\n      0x20\n      add\n      swap1\n      dup2\n      mstore\n      0x20\n      add\n      0x00\n      keccak256\n      sload\n        /* \"kepeng.sol\":10702:10743  uint256 senderBalance = _balances[sender] */\n      swap1\n      pop\n        /* \"kepeng.sol\":10779:10785  amount */\n      dup2\n        /* \"kepeng.sol\":10762:10775  senderBalance */\n      dup2\n        /* \"kepeng.sol\":10762:10785  senderBalance >= amount */\n      lt\n      iszero\n        /* \"kepeng.sol\":10754:10828  require(senderBalance >= amount, \"ERC20: transfer amount exceeds balance\") */\n      tag_213\n      jumpi\n      mload(0x40)\n      0x08c379a000000000000000000000000000000000000000000000000000000000\n      dup2\n      mstore\n      0x04\n      add\n      tag_214\n      swap1\n      tag_215\n      jump\t// in\n    tag_214:\n      mload(0x40)\n      dup1\n      swap2\n      sub\n      swap1\n      revert\n    tag_213:\n        /* \"kepeng.sol\":10900:10906  amount */\n      dup2\n        /* \"kepeng.sol\":10884:10897  senderBalance */\n      dup2\n        /* \"kepeng.sol\":10884:10906  senderBalance - amount */\n      sub\n        /* \"kepeng.sol\":10864:10873  _balances */\n      0x00\n        /* \"kepeng.sol\":10864:10881  _balances[sender] */\n      dup1\n        /* \"kepeng.sol\":10874:10880  sender */\n      dup7\n        /* \"kepeng.sol\":10864:10881  _balances[sender] */\n      0xffffffffffffffffffffffffffffffffffffffff\n      and\n      0xffffffffffffffffffffffffffffffffffffffff\n      and\n      dup2\n      mstore\n      0x20\n      add\n      swap1\n      dup2\n      mstore\n      0x20\n      add\n      0x00\n      keccak256\n        /* \"kepeng.sol\":10864:10906  _balances[sender] = senderBalance - amount */\n      dup2\n      swap1\n      sstore\n      pop\n        /* \"kepeng.sol\":10952:10958  amount */\n      dup2\n        /* \"kepeng.sol\":10928:10937  _balances */\n      0x00\n        /* \"kepeng.sol\":10928:10948  _balances[recipient] */\n      dup1\n        /* \"kepeng.sol\":10938:10947  recipient */\n      dup6\n        /* \"kepeng.sol\":10928:10948  _balances[recipient] */\n      0xffffffffffffffffffffffffffffffffffffffff\n      and\n      0xffffffffffffffffffffffffffffffffffffffff\n      and\n      dup2\n      mstore\n      0x20\n      add\n      swap1\n      dup2\n      mstore\n      0x20\n      add\n      0x00\n      keccak256\n      0x00\n        /* \"kepeng.sol\":10928:10958  _balances[recipient] += amount */\n      dup3\n      dup3\n      sload\n      tag_216\n      swap2\n      swap1\n      tag_125\n      jump\t// in\n    tag_216:\n      swap3\n      pop\n      pop\n      dup2\n      swap1\n      sstore\n      pop\n        /* \"kepeng.sol\":10993:11002  recipient */\n      dup3\n        /* \"kepeng.sol\":10976:11011  Transfer(sender, recipient, amount) */\n      0xffffffffffffffffffffffffffffffffffffffff\n      and\n        /* \"kepeng.sol\":10985:10991  sender */\n      dup5\n        /* \"kepeng.sol\":10976:11011  Transfer(sender, recipient, amount) */\n      0xffffffffffffffffffffffffffffffffffffffff\n      and\n      0xddf252ad1be2c89b69c2b068fc378daa952ba7f163c4a11628f55a4df523b3ef\n        /* \"kepeng.sol\":11004:11010  amount */\n      dup5\n        /* \"kepeng.sol\":10976:11011  Transfer(sender, recipient, amount) */\n      mload(0x40)\n      tag_217\n      swap2\n      swap1\n      tag_38\n      jump\t// in\n    tag_217:\n      mload(0x40)\n      dup1\n      swap2\n      sub\n      swap1\n      log3\n        /* \"kepeng.sol\":11024:11070  _afterTokenTransfer(sender, recipient, amount) */\n      tag_218\n        /* \"kepeng.sol\":11044:11050  sender */\n      dup5\n        /* \"kepeng.sol\":11052:11061  recipient */\n      dup5\n        /* \"kepeng.sol\":11063:11069  amount */\n      dup5\n        /* \"kepeng.sol\":11024:11043  _afterTokenTransfer */\n      tag_219\n        /* \"kepeng.sol\":11024:11070  _afterTokenTransfer(sender, recipient, amount) */\n      jump\t// in\n    tag_218:\n        /* \"kepeng.sol\":10345:11078  function _transfer(\r... */\n      pop\n      pop\n      pop\n      pop\n      jump\t// out\n        /* \"kepeng.sol\":17719:17839  function _unpause() internal virtual whenPaused {\r... */\n    tag_134:\n        /* \"kepeng.sol\":17263:17271  paused() */\n      tag_221\n        /* \"kepeng.sol\":17263:17269  paused */\n      tag_59\n        /* \"kepeng.sol\":17263:17271  paused() */\n      jump\t// in\n    tag_221:\n        /* \"kepeng.sol\":17255:17296  require(paused(), \"Pausable: not paused\") */\n      tag_222\n      jumpi\n      mload(0x40)\n      0x08c379a000000000000000000000000000000000000000000000000000000000\n      dup2\n      mstore\n      0x04\n      add\n      tag_223\n      swap1\n      tag_224\n      jump\t// in\n    tag_223:\n      mload(0x40)\n      dup1\n      swap2\n      sub\n      swap1\n      revert\n    tag_222:\n        /* \"kepeng.sol\":17788:17793  false */\n      0x00\n        /* \"kepeng.sol\":17778:17785  _paused */\n      0x05\n      0x00\n        /* \"kepeng.sol\":17778:17793  _paused = false */\n      0x0100\n      exp\n      dup2\n      sload\n      dup2\n      0xff\n      mul\n      not\n      and\n      swap1\n      dup4\n      iszero\n      iszero\n      mul\n      or\n      swap1\n      sstore\n      pop\n        /* \"kepeng.sol\":17809:17831  Unpaused(_msgSender()) */\n      0x5db9ee0a495bf2e6ff9c91a7834c1ba4fdd244a5e8aa4e537bd38aeae4b073aa\n        /* \"kepeng.sol\":17818:17830  _msgSender() */\n      tag_226\n        /* \"kepeng.sol\":17818:17828  _msgSender */\n      tag_107\n        /* \"kepeng.sol\":17818:17830  _msgSender() */\n      jump\t// in\n    tag_226:\n        /* \"kepeng.sol\":17809:17831  Unpaused(_msgSender()) */\n      mload(0x40)\n      tag_227\n      swap2\n      swap1\n      tag_76\n      jump\t// in\n    tag_227:\n      mload(0x40)\n      dup1\n      swap2\n      sub\n      swap1\n      log1\n        /* \"kepeng.sol\":17719:17839  function _unpause() internal virtual whenPaused {\r... */\n      jump\t// out\n        /* \"kepeng.sol\":12097:12688  function _burn(address account, uint256 amount) internal virtual {\r... */\n    tag_138:\n        /* \"kepeng.sol\":12200:12201  0 */\n      0x00\n        /* \"kepeng.sol\":12181:12202  account != address(0) */\n      0xffffffffffffffffffffffffffffffffffffffff\n      and\n        /* \"kepeng.sol\":12181:12188  account */\n      dup3\n        /* \"kepeng.sol\":12181:12202  account != address(0) */\n      0xffffffffffffffffffffffffffffffffffffffff\n      and\n      eq\n      iszero\n        /* \"kepeng.sol\":12173:12240  require(account != address(0), \"ERC20: burn from the zero address\") */\n      tag_229\n      jumpi\n      mload(0x40)\n      0x08c379a000000000000000000000000000000000000000000000000000000000\n      dup2\n      mstore\n      0x04\n      add\n      tag_230\n      swap1\n      tag_231\n      jump\t// in\n    tag_230:\n      mload(0x40)\n      dup1\n      swap2\n      sub\n      swap1\n      revert\n    tag_229:\n        /* \"kepeng.sol\":12253:12302  _beforeTokenTransfer(account, address(0), amount) */\n      tag_232\n        /* \"kepeng.sol\":12274:12281  account */\n      dup3\n        /* \"kepeng.sol\":12291:12292  0 */\n      0x00\n        /* \"kepeng.sol\":12295:12301  amount */\n      dup4\n        /* \"kepeng.sol\":12253:12273  _beforeTokenTransfer */\n      tag_212\n        /* \"kepeng.sol\":12253:12302  _beforeTokenTransfer(account, address(0), amount) */\n      jump\t// in\n    tag_232:\n        /* \"kepeng.sol\":12315:12337  uint256 accountBalance */\n      0x00\n        /* \"kepeng.sol\":12340:12349  _balances */\n      dup1\n        /* \"kepeng.sol\":12340:12358  _balances[account] */\n      0x00\n        /* \"kepeng.sol\":12350:12357  account */\n      dup5\n        /* \"kepeng.sol\":12340:12358  _balances[account] */\n      0xffffffffffffffffffffffffffffffffffffffff\n      and\n      0xffffffffffffffffffffffffffffffffffffffff\n      and\n      dup2\n      mstore\n      0x20\n      add\n      swap1\n      dup2\n      mstore\n      0x20\n      add\n      0x00\n      keccak256\n      sload\n        /* \"kepeng.sol\":12315:12358  uint256 accountBalance = _balances[account] */\n      swap1\n      pop\n        /* \"kepeng.sol\":12395:12401  amount */\n      dup2\n        /* \"kepeng.sol\":12377:12391  accountBalance */\n      dup2\n        /* \"kepeng.sol\":12377:12401  accountBalance >= amount */\n      lt\n      iszero\n        /* \"kepeng.sol\":12369:12440  require(accountBalance >= amount, \"ERC20: burn amount exceeds balance\") */\n      tag_233\n      jumpi\n      mload(0x40)\n      0x08c379a000000000000000000000000000000000000000000000000000000000\n      dup2\n      mstore\n      0x04\n      add\n      tag_234\n      swap1\n      tag_235\n      jump\t// in\n    tag_234:\n      mload(0x40)\n      dup1\n      swap2\n      sub\n      swap1\n      revert\n    tag_233:\n        /* \"kepeng.sol\":12514:12520  amount */\n      dup2\n        /* \"kepeng.sol\":12497:12511  accountBalance */\n      dup2\n        /* \"kepeng.sol\":12497:12520  accountBalance - amount */\n      sub\n        /* \"kepeng.sol\":12476:12485  _balances */\n      0x00\n        /* \"kepeng.sol\":12476:12494  _balances[account] */\n      dup1\n        /* \"kepeng.sol\":12486:12493  account */\n      dup6\n        /* \"kepeng.sol\":12476:12494  _balances[account] */\n      0xffffffffffffffffffffffffffffffffffffffff\n      and\n      0xffffffffffffffffffffffffffffffffffffffff\n      and\n      dup2\n      mstore\n      0x20\n      add\n      swap1\n      dup2\n      mstore\n      0x20\n      add\n      0x00\n      keccak256\n        /* \"kepeng.sol\":12476:12520  _balances[account] = accountBalance - amount */\n      dup2\n      swap1\n      sstore\n      pop\n        /* \"kepeng.sol\":12558:12564  amount */\n      dup2\n        /* \"kepeng.sol\":12542:12554  _totalSupply */\n      0x02\n      0x00\n        /* \"kepeng.sol\":12542:12564  _totalSupply -= amount */\n      dup3\n      dup3\n      sload\n      tag_236\n      swap2\n      swap1\n      tag_237\n      jump\t// in\n    tag_236:\n      swap3\n      pop\n      pop\n      dup2\n      swap1\n      sstore\n      pop\n        /* \"kepeng.sol\":12608:12609  0 */\n      0x00\n        /* \"kepeng.sol\":12582:12619  Transfer(account, address(0), amount) */\n      0xffffffffffffffffffffffffffffffffffffffff\n      and\n        /* \"kepeng.sol\":12591:12598  account */\n      dup4\n        /* \"kepeng.sol\":12582:12619  Transfer(account, address(0), amount) */\n      0xffffffffffffffffffffffffffffffffffffffff\n      and\n      0xddf252ad1be2c89b69c2b068fc378daa952ba7f163c4a11628f55a4df523b3ef\n        /* \"kepeng.sol\":12612:12618  amount */\n      dup5\n        /* \"kepeng.sol\":12582:12619  Transfer(account, address(0), amount) */\n      mload(0x40)\n      tag_238\n      swap2\n      swap1\n      tag_38\n      jump\t// in\n    tag_238:\n      mload(0x40)\n      dup1\n      swap2\n      sub\n      swap1\n      log3\n        /* \"kepeng.sol\":12632:12680  _afterTokenTransfer(account, address(0), amount) */\n      tag_239\n        /* \"kepeng.sol\":12652:12659  account */\n      dup4\n        /* \"kepeng.sol\":12669:12670  0 */\n      0x00\n        /* \"kepeng.sol\":12673:12679  amount */\n      dup5\n        /* \"kepeng.sol\":12632:12651  _afterTokenTransfer */\n      tag_219\n        /* \"kepeng.sol\":12632:12680  _afterTokenTransfer(account, address(0), amount) */\n      jump\t// in\n    tag_239:\n        /* \"kepeng.sol\":12097:12688  function _burn(address account, uint256 amount) internal virtual {\r... */\n      pop\n      pop\n      pop\n      jump\t// out\n        /* \"kepeng.sol\":19526:19717  function _transferOwnership(address newOwner) internal virtual {\r... */\n    tag_148:\n        /* \"kepeng.sol\":19600:19616  address oldOwner */\n      0x00\n        /* \"kepeng.sol\":19619:19625  _owner */\n      0x05\n      0x01\n      swap1\n      sload\n      swap1\n      0x0100\n      exp\n      swap1\n      div\n      0xffffffffffffffffffffffffffffffffffffffff\n      and\n        /* \"kepeng.sol\":19600:19625  address oldOwner = _owner */\n      swap1\n      pop\n        /* \"kepeng.sol\":19645:19653  newOwner */\n      dup2\n        /* \"kepeng.sol\":19636:19642  _owner */\n      0x05\n      0x01\n        /* \"kepeng.sol\":19636:19653  _owner = newOwner */\n      0x0100\n      exp\n      dup2\n      sload\n      dup2\n      0xffffffffffffffffffffffffffffffffffffffff\n      mul\n      not\n      and\n      swap1\n      dup4\n      0xffffffffffffffffffffffffffffffffffffffff\n      and\n      mul\n      or\n      swap1\n      sstore\n      pop\n        /* \"kepeng.sol\":19700:19708  newOwner */\n      dup2\n        /* \"kepeng.sol\":19669:19709  OwnershipTransferred(oldOwner, newOwner) */\n      0xffffffffffffffffffffffffffffffffffffffff\n      and\n        /* \"kepeng.sol\":19690:19698  oldOwner */\n      dup2\n        /* \"kepeng.sol\":19669:19709  OwnershipTransferred(oldOwner, newOwner) */\n      0xffffffffffffffffffffffffffffffffffffffff\n      and\n      0x8be0079c531659141344cd1fd0a4f28419497f9722a3daafe3b4186f6b6457e0\n      mload(0x40)\n      mload(0x40)\n      dup1\n      swap2\n      sub\n      swap1\n      log3\n        /* \"kepeng.sol\":19526:19717  function _transferOwnership(address newOwner) internal virtual {\r... */\n      pop\n      pop\n      jump\t// out\n        /* \"kepeng.sol\":17460:17578  function _pause() internal virtual whenNotPaused {\r... */\n    tag_165:\n        /* \"kepeng.sol\":16986:16994  paused() */\n      tag_242\n        /* \"kepeng.sol\":16986:16992  paused */\n      tag_59\n        /* \"kepeng.sol\":16986:16994  paused() */\n      jump\t// in\n    tag_242:\n        /* \"kepeng.sol\":16985:16994  !paused() */\n      iszero\n        /* \"kepeng.sol\":16977:17015  require(!paused(), \"Pausable: paused\") */\n      tag_243\n      jumpi\n      mload(0x40)\n      0x08c379a000000000000000000000000000000000000000000000000000000000\n      dup2\n      mstore\n      0x04\n      add\n      tag_244\n      swap1\n      tag_245\n      jump\t// in\n    tag_244:\n      mload(0x40)\n      dup1\n      swap2\n      sub\n      swap1\n      revert\n    tag_243:\n        /* \"kepeng.sol\":17530:17534  true */\n      0x01\n        /* \"kepeng.sol\":17520:17527  _paused */\n      0x05\n      0x00\n        /* \"kepeng.sol\":17520:17534  _paused = true */\n      0x0100\n      exp\n      dup2\n      sload\n      dup2\n      0xff\n      mul\n      not\n      and\n      swap1\n      dup4\n      iszero\n      iszero\n      mul\n      or\n      swap1\n      sstore\n      pop\n        /* \"kepeng.sol\":17550:17570  Paused(_msgSender()) */\n      0x62e78cea01bee320cd4e420270b5ea74000d11b0c9f74754ebdbfc544b05a258\n        /* \"kepeng.sol\":17557:17569  _msgSender() */\n      tag_247\n        /* \"kepeng.sol\":17557:17567  _msgSender */\n      tag_107\n        /* \"kepeng.sol\":17557:17569  _msgSender() */\n      jump\t// in\n    tag_247:\n        /* \"kepeng.sol\":17550:17570  Paused(_msgSender()) */\n      mload(0x40)\n      tag_248\n      swap2\n      swap1\n      tag_76\n      jump\t// in\n    tag_248:\n      mload(0x40)\n      dup1\n      swap2\n      sub\n      swap1\n      log1\n        /* \"kepeng.sol\":17460:17578  function _pause() internal virtual whenNotPaused {\r... */\n      jump\t// out\n        /* \"kepeng.sol\":20086:20285  function _beforeTokenTransfer(address from, address to, uint256 amount)\r... */\n    tag_212:\n        /* \"kepeng.sol\":16986:16994  paused() */\n      tag_250\n        /* \"kepeng.sol\":16986:16992  paused */\n      tag_59\n        /* \"kepeng.sol\":16986:16994  paused() */\n      jump\t// in\n    tag_250:\n        /* \"kepeng.sol\":16985:16994  !paused() */\n      iszero\n        /* \"kepeng.sol\":16977:17015  require(!paused(), \"Pausable: paused\") */\n      tag_251\n      jumpi\n      mload(0x40)\n      0x08c379a000000000000000000000000000000000000000000000000000000000\n      dup2\n      mstore\n      0x04\n      add\n      tag_252\n      swap1\n      tag_245\n      jump\t// in\n    tag_252:\n      mload(0x40)\n      dup1\n      swap2\n      sub\n      swap1\n      revert\n    tag_251:\n        /* \"kepeng.sol\":20233:20277  super._beforeTokenTransfer(from, to, amount) */\n      tag_254\n        /* \"kepeng.sol\":20260:20264  from */\n      dup4\n        /* \"kepeng.sol\":20266:20268  to */\n      dup4\n        /* \"kepeng.sol\":20270:20276  amount */\n      dup4\n        /* \"kepeng.sol\":20233:20259  super._beforeTokenTransfer */\n      tag_96\n        /* \"kepeng.sol\":20233:20277  super._beforeTokenTransfer(from, to, amount) */\n      jump\t// in\n    tag_254:\n        /* \"kepeng.sol\":20086:20285  function _beforeTokenTransfer(address from, address to, uint256 amount)\r... */\n      pop\n      pop\n      pop\n      jump\t// out\n        /* \"kepeng.sol\":14835:14959  function _afterTokenTransfer(\r... */\n    tag_219:\n      pop\n      pop\n      pop\n      jump\t// out\n        /* \"#utility.yul\":7:146   */\n    tag_257:\n      0x00\n        /* \"#utility.yul\":91:97   */\n      dup2\n        /* \"#utility.yul\":78:98   */\n      calldataload\n        /* \"#utility.yul\":69:98   */\n      swap1\n      pop\n        /* \"#utility.yul\":107:140   */\n      tag_259\n        /* \"#utility.yul\":134:139   */\n      dup2\n        /* \"#utility.yul\":107:140   */\n      tag_260\n      jump\t// in\n    tag_259:\n        /* \"#utility.yul\":59:146   */\n      swap3\n      swap2\n      pop\n      pop\n      jump\t// out\n        /* \"#utility.yul\":152:291   */\n    tag_261:\n      0x00\n        /* \"#utility.yul\":236:242   */\n      dup2\n        /* \"#utility.yul\":223:243   */\n      calldataload\n        /* \"#utility.yul\":214:243   */\n      swap1\n      pop\n        /* \"#utility.yul\":252:285   */\n      tag_263\n        /* \"#utility.yul\":279:284   */\n      dup2\n        /* \"#utility.yul\":252:285   */\n      tag_264\n      jump\t// in\n    tag_263:\n        /* \"#utility.yul\":204:291   */\n      swap3\n      swap2\n      pop\n      pop\n      jump\t// out\n        /* \"#utility.yul\":297:559   */\n    tag_63:\n      0x00\n        /* \"#utility.yul\":405:407   */\n      0x20\n        /* \"#utility.yul\":393:402   */\n      dup3\n        /* \"#utility.yul\":384:391   */\n      dup5\n        /* \"#utility.yul\":380:403   */\n      sub\n        /* \"#utility.yul\":376:408   */\n      slt\n        /* \"#utility.yul\":373:375   */\n      iszero\n      tag_266\n      jumpi\n        /* \"#utility.yul\":421:422   */\n      0x00\n        /* \"#utility.yul\":418:419   */\n      dup1\n        /* \"#utility.yul\":411:423   */\n      revert\n        /* \"#utility.yul\":373:375   */\n    tag_266:\n        /* \"#utility.yul\":464:465   */\n      0x00\n        /* \"#utility.yul\":489:542   */\n      tag_267\n        /* \"#utility.yul\":534:541   */\n      dup5\n        /* \"#utility.yul\":525:531   */\n      dup3\n        /* \"#utility.yul\":514:523   */\n      dup6\n        /* \"#utility.yul\":510:532   */\n      add\n        /* \"#utility.yul\":489:542   */\n      tag_257\n      jump\t// in\n    tag_267:\n        /* \"#utility.yul\":479:542   */\n      swap2\n      pop\n        /* \"#utility.yul\":435:552   */\n      pop\n        /* \"#utility.yul\":363:559   */\n      swap3\n      swap2\n      pop\n      pop\n      jump\t// out\n        /* \"#utility.yul\":565:972   */\n    tag_90:\n      0x00\n      dup1\n        /* \"#utility.yul\":690:692   */\n      0x40\n        /* \"#utility.yul\":678:687   */\n      dup4\n        /* \"#utility.yul\":669:676   */\n      dup6\n        /* \"#utility.yul\":665:688   */\n      sub\n        /* \"#utility.yul\":661:693   */\n      slt\n        /* \"#utility.yul\":658:660   */\n      iszero\n      tag_269\n      jumpi\n        /* \"#utility.yul\":706:707   */\n      0x00\n        /* \"#utility.yul\":703:704   */\n      dup1\n        /* \"#utility.yul\":696:708   */\n      revert\n        /* \"#utility.yul\":658:660   */\n    tag_269:\n        /* \"#utility.yul\":749:750   */\n      0x00\n        /* \"#utility.yul\":774:827   */\n      tag_270\n        /* \"#utility.yul\":819:826   */\n      dup6\n        /* \"#utility.yul\":810:816   */\n      dup3\n        /* \"#utility.yul\":799:808   */\n      dup7\n        /* \"#utility.yul\":795:817   */\n      add\n        /* \"#utility.yul\":774:827   */\n      tag_257\n      jump\t// in\n    tag_270:\n        /* \"#utility.yul\":764:827   */\n      swap3\n      pop\n        /* \"#utility.yul\":720:837   */\n      pop\n        /* \"#utility.yul\":876:878   */\n      0x20\n        /* \"#utility.yul\":902:955   */\n      tag_271\n        /* \"#utility.yul\":947:954   */\n      dup6\n        /* \"#utility.yul\":938:944   */\n      dup3\n        /* \"#utility.yul\":927:936   */\n      dup7\n        /* \"#utility.yul\":923:945   */\n      add\n        /* \"#utility.yul\":902:955   */\n      tag_257\n      jump\t// in\n    tag_271:\n        /* \"#utility.yul\":892:955   */\n      swap2\n      pop\n        /* \"#utility.yul\":847:965   */\n      pop\n        /* \"#utility.yul\":648:972   */\n      swap3\n      pop\n      swap3\n      swap1\n      pop\n      jump\t// out\n        /* \"#utility.yul\":978:1530   */\n    tag_41:\n      0x00\n      dup1\n      0x00\n        /* \"#utility.yul\":1120:1122   */\n      0x60\n        /* \"#utility.yul\":1108:1117   */\n      dup5\n        /* \"#utility.yul\":1099:1106   */\n      dup7\n        /* \"#utility.yul\":1095:1118   */\n      sub\n        /* \"#utility.yul\":1091:1123   */\n      slt\n        /* \"#utility.yul\":1088:1090   */\n      iszero\n      tag_273\n      jumpi\n        /* \"#utility.yul\":1136:1137   */\n      0x00\n        /* \"#utility.yul\":1133:1134   */\n      dup1\n        /* \"#utility.yul\":1126:1138   */\n      revert\n        /* \"#utility.yul\":1088:1090   */\n    tag_273:\n        /* \"#utility.yul\":1179:1180   */\n      0x00\n        /* \"#utility.yul\":1204:1257   */\n      tag_274\n        /* \"#utility.yul\":1249:1256   */\n      dup7\n        /* \"#utility.yul\":1240:1246   */\n      dup3\n        /* \"#utility.yul\":1229:1238   */\n      dup8\n        /* \"#utility.yul\":1225:1247   */\n      add\n        /* \"#utility.yul\":1204:1257   */\n      tag_257\n      jump\t// in\n    tag_274:\n        /* \"#utility.yul\":1194:1257   */\n      swap4\n      pop\n        /* \"#utility.yul\":1150:1267   */\n      pop\n        /* \"#utility.yul\":1306:1308   */\n      0x20\n        /* \"#utility.yul\":1332:1385   */\n      tag_275\n        /* \"#utility.yul\":1377:1384   */\n      dup7\n        /* \"#utility.yul\":1368:1374   */\n      dup3\n        /* \"#utility.yul\":1357:1366   */\n      dup8\n        /* \"#utility.yul\":1353:1375   */\n      add\n        /* \"#utility.yul\":1332:1385   */\n      tag_257\n      jump\t// in\n    tag_275:\n        /* \"#utility.yul\":1322:1385   */\n      swap3\n      pop\n        /* \"#utility.yul\":1277:1395   */\n      pop\n        /* \"#utility.yul\":1434:1436   */\n      0x40\n        /* \"#utility.yul\":1460:1513   */\n      tag_276\n        /* \"#utility.yul\":1505:1512   */\n      dup7\n        /* \"#utility.yul\":1496:1502   */\n      dup3\n        /* \"#utility.yul\":1485:1494   */\n      dup8\n        /* \"#utility.yul\":1481:1503   */\n      add\n        /* \"#utility.yul\":1460:1513   */\n      tag_261\n      jump\t// in\n    tag_276:\n        /* \"#utility.yul\":1450:1513   */\n      swap2\n      pop\n        /* \"#utility.yul\":1405:1523   */\n      pop\n        /* \"#utility.yul\":1078:1530   */\n      swap3\n      pop\n      swap3\n      pop\n      swap3\n      jump\t// out\n        /* \"#utility.yul\":1536:1943   */\n    tag_31:\n      0x00\n      dup1\n        /* \"#utility.yul\":1661:1663   */\n      0x40\n        /* \"#utility.yul\":1649:1658   */\n      dup4\n        /* \"#utility.yul\":1640:1647   */\n      dup6\n        /* \"#utility.yul\":1636:1659   */\n      sub\n        /* \"#utility.yul\":1632:1664   */\n      slt\n        /* \"#utility.yul\":1629:1631   */\n      iszero\n      tag_278\n      jumpi\n        /* \"#utility.yul\":1677:1678   */\n      0x00\n        /* \"#utility.yul\":1674:1675   */\n      dup1\n        /* \"#utility.yul\":1667:1679   */\n      revert\n        /* \"#utility.yul\":1629:1631   */\n    tag_278:\n        /* \"#utility.yul\":1720:1721   */\n      0x00\n        /* \"#utility.yul\":1745:1798   */\n      tag_279\n        /* \"#utility.yul\":1790:1797   */\n      dup6\n        /* \"#utility.yul\":1781:1787   */\n      dup3\n        /* \"#utility.yul\":1770:1779   */\n      dup7\n        /* \"#utility.yul\":1766:1788   */\n      add\n        /* \"#utility.yul\":1745:1798   */\n      tag_257\n      jump\t// in\n    tag_279:\n        /* \"#utility.yul\":1735:1798   */\n      swap3\n      pop\n        /* \"#utility.yul\":1691:1808   */\n      pop\n        /* \"#utility.yul\":1847:1849   */\n      0x20\n        /* \"#utility.yul\":1873:1926   */\n      tag_280\n        /* \"#utility.yul\":1918:1925   */\n      dup6\n        /* \"#utility.yul\":1909:1915   */\n      dup3\n        /* \"#utility.yul\":1898:1907   */\n      dup7\n        /* \"#utility.yul\":1894:1916   */\n      add\n        /* \"#utility.yul\":1873:1926   */\n      tag_261\n      jump\t// in\n    tag_280:\n        /* \"#utility.yul\":1863:1926   */\n      swap2\n      pop\n        /* \"#utility.yul\":1818:1936   */\n      pop\n        /* \"#utility.yul\":1619:1943   */\n      swap3\n      pop\n      swap3\n      swap1\n      pop\n      jump\t// out\n        /* \"#utility.yul\":1949:2211   */\n    tag_56:\n      0x00\n        /* \"#utility.yul\":2057:2059   */\n      0x20\n        /* \"#utility.yul\":2045:2054   */\n      dup3\n        /* \"#utility.yul\":2036:2043   */\n      dup5\n        /* \"#utility.yul\":2032:2055   */\n      sub\n        /* \"#utility.yul\":2028:2060   */\n      slt\n        /* \"#utility.yul\":2025:2027   */\n      iszero\n      tag_282\n      jumpi\n        /* \"#utility.yul\":2073:2074   */\n      0x00\n        /* \"#utility.yul\":2070:2071   */\n      dup1\n        /* \"#utility.yul\":2063:2075   */\n      revert\n        /* \"#utility.yul\":2025:2027   */\n    tag_282:\n        /* \"#utility.yul\":2116:2117   */\n      0x00\n        /* \"#utility.yul\":2141:2194   */\n      tag_283\n        /* \"#utility.yul\":2186:2193   */\n      dup5\n        /* \"#utility.yul\":2177:2183   */\n      dup3\n        /* \"#utility.yul\":2166:2175   */\n      dup6\n        /* \"#utility.yul\":2162:2184   */\n      add\n        /* \"#utility.yul\":2141:2194   */\n      tag_261\n      jump\t// in\n    tag_283:\n        /* \"#utility.yul\":2131:2194   */\n      swap2\n      pop\n        /* \"#utility.yul\":2087:2204   */\n      pop\n        /* \"#utility.yul\":2015:2211   */\n      swap3\n      swap2\n      pop\n      pop\n      jump\t// out\n        /* \"#utility.yul\":2217:2335   */\n    tag_284:\n        /* \"#utility.yul\":2304:2328   */\n      tag_286\n        /* \"#utility.yul\":2322:2327   */\n      dup2\n        /* \"#utility.yul\":2304:2328   */\n      tag_287\n      jump\t// in\n    tag_286:\n        /* \"#utility.yul\":2299:2302   */\n      dup3\n        /* \"#utility.yul\":2292:2329   */\n      mstore\n        /* \"#utility.yul\":2282:2335   */\n      pop\n      pop\n      jump\t// out\n        /* \"#utility.yul\":2341:2450   */\n    tag_288:\n        /* \"#utility.yul\":2422:2443   */\n      tag_290\n        /* \"#utility.yul\":2437:2442   */\n      dup2\n        /* \"#utility.yul\":2422:2443   */\n      tag_291\n      jump\t// in\n    tag_290:\n        /* \"#utility.yul\":2417:2420   */\n      dup3\n        /* \"#utility.yul\":2410:2444   */\n      mstore\n        /* \"#utility.yul\":2400:2450   */\n      pop\n      pop\n      jump\t// out\n        /* \"#utility.yul\":2456:2820   */\n    tag_292:\n      0x00\n        /* \"#utility.yul\":2572:2611   */\n      tag_294\n        /* \"#utility.yul\":2605:2610   */\n      dup3\n        /* \"#utility.yul\":2572:2611   */\n      tag_295\n      jump\t// in\n    tag_294:\n        /* \"#utility.yul\":2627:2698   */\n      tag_296\n        /* \"#utility.yul\":2691:2697   */\n      dup2\n        /* \"#utility.yul\":2686:2689   */\n      dup6\n        /* \"#utility.yul\":2627:2698   */\n      tag_297\n      jump\t// in\n    tag_296:\n        /* \"#utility.yul\":2620:2698   */\n      swap4\n      pop\n        /* \"#utility.yul\":2707:2759   */\n      tag_298\n        /* \"#utility.yul\":2752:2758   */\n      dup2\n        /* \"#utility.yul\":2747:2750   */\n      dup6\n        /* \"#utility.yul\":2740:2744   */\n      0x20\n        /* \"#utility.yul\":2733:2738   */\n      dup7\n        /* \"#utility.yul\":2729:2745   */\n      add\n        /* \"#utility.yul\":2707:2759   */\n      tag_299\n      jump\t// in\n    tag_298:\n        /* \"#utility.yul\":2784:2813   */\n      tag_300\n        /* \"#utility.yul\":2806:2812   */\n      dup2\n        /* \"#utility.yul\":2784:2813   */\n      tag_301\n      jump\t// in\n    tag_300:\n        /* \"#utility.yul\":2779:2782   */\n      dup5\n        /* \"#utility.yul\":2775:2814   */\n      add\n        /* \"#utility.yul\":2768:2814   */\n      swap2\n      pop\n        /* \"#utility.yul\":2548:2820   */\n      pop\n      swap3\n      swap2\n      pop\n      pop\n      jump\t// out\n        /* \"#utility.yul\":2826:3192   */\n    tag_302:\n      0x00\n        /* \"#utility.yul\":2989:3056   */\n      tag_304\n        /* \"#utility.yul\":3053:3055   */\n      0x23\n        /* \"#utility.yul\":3048:3051   */\n      dup4\n        /* \"#utility.yul\":2989:3056   */\n      tag_297\n      jump\t// in\n    tag_304:\n        /* \"#utility.yul\":2982:3056   */\n      swap2\n      pop\n        /* \"#utility.yul\":3065:3158   */\n      tag_305\n        /* \"#utility.yul\":3154:3157   */\n      dup3\n        /* \"#utility.yul\":3065:3158   */\n      tag_306\n      jump\t// in\n    tag_305:\n        /* \"#utility.yul\":3183:3185   */\n      0x40\n        /* \"#utility.yul\":3178:3181   */\n      dup3\n        /* \"#utility.yul\":3174:3186   */\n      add\n        /* \"#utility.yul\":3167:3186   */\n      swap1\n      pop\n        /* \"#utility.yul\":2972:3192   */\n      swap2\n      swap1\n      pop\n      jump\t// out\n        /* \"#utility.yul\":3198:3564   */\n    tag_307:\n      0x00\n        /* \"#utility.yul\":3361:3428   */\n      tag_309\n        /* \"#utility.yul\":3425:3427   */\n      0x14\n        /* \"#utility.yul\":3420:3423   */\n      dup4\n        /* \"#utility.yul\":3361:3428   */\n      tag_297\n      jump\t// in\n    tag_309:\n        /* \"#utility.yul\":3354:3428   */\n      swap2\n      pop\n        /* \"#utility.yul\":3437:3530   */\n      tag_310\n        /* \"#utility.yul\":3526:3529   */\n      dup3\n        /* \"#utility.yul\":3437:3530   */\n      tag_311\n      jump\t// in\n    tag_310:\n        /* \"#utility.yul\":3555:3557   */\n      0x20\n        /* \"#utility.yul\":3550:3553   */\n      dup3\n        /* \"#utility.yul\":3546:3558   */\n      add\n        /* \"#utility.yul\":3539:3558   */\n      swap1\n      pop\n        /* \"#utility.yul\":3344:3564   */\n      swap2\n      swap1\n      pop\n      jump\t// out\n        /* \"#utility.yul\":3570:3936   */\n    tag_312:\n      0x00\n        /* \"#utility.yul\":3733:3800   */\n      tag_314\n        /* \"#utility.yul\":3797:3799   */\n      0x22\n        /* \"#utility.yul\":3792:3795   */\n      dup4\n        /* \"#utility.yul\":3733:3800   */\n      tag_297\n      jump\t// in\n    tag_314:\n        /* \"#utility.yul\":3726:3800   */\n      swap2\n      pop\n        /* \"#utility.yul\":3809:3902   */\n      tag_315\n        /* \"#utility.yul\":3898:3901   */\n      dup3\n        /* \"#utility.yul\":3809:3902   */\n      tag_316\n      jump\t// in\n    tag_315:\n        /* \"#utility.yul\":3927:3929   */\n      0x40\n        /* \"#utility.yul\":3922:3925   */\n      dup3\n        /* \"#utility.yul\":3918:3930   */\n      add\n        /* \"#utility.yul\":3911:3930   */\n      swap1\n      pop\n        /* \"#utility.yul\":3716:3936   */\n      swap2\n      swap1\n      pop\n      jump\t// out\n        /* \"#utility.yul\":3942:4308   */\n    tag_317:\n      0x00\n        /* \"#utility.yul\":4105:4172   */\n      tag_319\n        /* \"#utility.yul\":4169:4171   */\n      0x26\n        /* \"#utility.yul\":4164:4167   */\n      dup4\n        /* \"#utility.yul\":4105:4172   */\n      tag_297\n      jump\t// in\n    tag_319:\n        /* \"#utility.yul\":4098:4172   */\n      swap2\n      pop\n        /* \"#utility.yul\":4181:4274   */\n      tag_320\n        /* \"#utility.yul\":4270:4273   */\n      dup3\n        /* \"#utility.yul\":4181:4274   */\n      tag_321\n      jump\t// in\n    tag_320:\n        /* \"#utility.yul\":4299:4301   */\n      0x40\n        /* \"#utility.yul\":4294:4297   */\n      dup3\n        /* \"#utility.yul\":4290:4302   */\n      add\n        /* \"#utility.yul\":4283:4302   */\n      swap1\n      pop\n        /* \"#utility.yul\":4088:4308   */\n      swap2\n      swap1\n      pop\n      jump\t// out\n        /* \"#utility.yul\":4314:4680   */\n    tag_322:\n      0x00\n        /* \"#utility.yul\":4477:4544   */\n      tag_324\n        /* \"#utility.yul\":4541:4543   */\n      0x22\n        /* \"#utility.yul\":4536:4539   */\n      dup4\n        /* \"#utility.yul\":4477:4544   */\n      tag_297\n      jump\t// in\n    tag_324:\n        /* \"#utility.yul\":4470:4544   */\n      swap2\n      pop\n        /* \"#utility.yul\":4553:4646   */\n      tag_325\n        /* \"#utility.yul\":4642:4645   */\n      dup3\n        /* \"#utility.yul\":4553:4646   */\n      tag_326\n      jump\t// in\n    tag_325:\n        /* \"#utility.yul\":4671:4673   */\n      0x40\n        /* \"#utility.yul\":4666:4669   */\n      dup3\n        /* \"#utility.yul\":4662:4674   */\n      add\n        /* \"#utility.yul\":4655:4674   */\n      swap1\n      pop\n        /* \"#utility.yul\":4460:4680   */\n      swap2\n      swap1\n      pop\n      jump\t// out\n        /* \"#utility.yul\":4686:5052   */\n    tag_327:\n      0x00\n        /* \"#utility.yul\":4849:4916   */\n      tag_329\n        /* \"#utility.yul\":4913:4915   */\n      0x26\n        /* \"#utility.yul\":4908:4911   */\n      dup4\n        /* \"#utility.yul\":4849:4916   */\n      tag_297\n      jump\t// in\n    tag_329:\n        /* \"#utility.yul\":4842:4916   */\n      swap2\n      pop\n        /* \"#utility.yul\":4925:5018   */\n      tag_330\n        /* \"#utility.yul\":5014:5017   */\n      dup3\n        /* \"#utility.yul\":4925:5018   */\n      tag_331\n      jump\t// in\n    tag_330:\n        /* \"#utility.yul\":5043:5045   */\n      0x40\n        /* \"#utility.yul\":5038:5041   */\n      dup3\n        /* \"#utility.yul\":5034:5046   */\n      add\n        /* \"#utility.yul\":5027:5046   */\n      swap1\n      pop\n        /* \"#utility.yul\":4832:5052   */\n      swap2\n      swap1\n      pop\n      jump\t// out\n        /* \"#utility.yul\":5058:5424   */\n    tag_332:\n      0x00\n        /* \"#utility.yul\":5221:5288   */\n      tag_334\n        /* \"#utility.yul\":5285:5287   */\n      0x10\n        /* \"#utility.yul\":5280:5283   */\n      dup4\n        /* \"#utility.yul\":5221:5288   */\n      tag_297\n      jump\t// in\n    tag_334:\n        /* \"#utility.yul\":5214:5288   */\n      swap2\n      pop\n        /* \"#utility.yul\":5297:5390   */\n      tag_335\n        /* \"#utility.yul\":5386:5389   */\n      dup3\n        /* \"#utility.yul\":5297:5390   */\n      tag_336\n      jump\t// in\n    tag_335:\n        /* \"#utility.yul\":5415:5417   */\n      0x20\n        /* \"#utility.yul\":5410:5413   */\n      dup3\n        /* \"#utility.yul\":5406:5418   */\n      add\n        /* \"#utility.yul\":5399:5418   */\n      swap1\n      pop\n        /* \"#utility.yul\":5204:5424   */\n      swap2\n      swap1\n      pop\n      jump\t// out\n        /* \"#utility.yul\":5430:5796   */\n    tag_337:\n      0x00\n        /* \"#utility.yul\":5593:5660   */\n      tag_339\n        /* \"#utility.yul\":5657:5659   */\n      0x28\n        /* \"#utility.yul\":5652:5655   */\n      dup4\n        /* \"#utility.yul\":5593:5660   */\n      tag_297\n      jump\t// in\n    tag_339:\n        /* \"#utility.yul\":5586:5660   */\n      swap2\n      pop\n        /* \"#utility.yul\":5669:5762   */\n      tag_340\n        /* \"#utility.yul\":5758:5761   */\n      dup3\n        /* \"#utility.yul\":5669:5762   */\n      tag_341\n      jump\t// in\n    tag_340:\n        /* \"#utility.yul\":5787:5789   */\n      0x40\n        /* \"#utility.yul\":5782:5785   */\n      dup3\n        /* \"#utility.yul\":5778:5790   */\n      add\n        /* \"#utility.yul\":5771:5790   */\n      swap1\n      pop\n        /* \"#utility.yul\":5576:5796   */\n      swap2\n      swap1\n      pop\n      jump\t// out\n        /* \"#utility.yul\":5802:6168   */\n    tag_342:\n      0x00\n        /* \"#utility.yul\":5965:6032   */\n      tag_344\n        /* \"#utility.yul\":6029:6031   */\n      0x20\n        /* \"#utility.yul\":6024:6027   */\n      dup4\n        /* \"#utility.yul\":5965:6032   */\n      tag_297\n      jump\t// in\n    tag_344:\n        /* \"#utility.yul\":5958:6032   */\n      swap2\n      pop\n        /* \"#utility.yul\":6041:6134   */\n      tag_345\n        /* \"#utility.yul\":6130:6133   */\n      dup3\n        /* \"#utility.yul\":6041:6134   */\n      tag_346\n      jump\t// in\n    tag_345:\n        /* \"#utility.yul\":6159:6161   */\n      0x20\n        /* \"#utility.yul\":6154:6157   */\n      dup3\n        /* \"#utility.yul\":6150:6162   */\n      add\n        /* \"#utility.yul\":6143:6162   */\n      swap1\n      pop\n        /* \"#utility.yul\":5948:6168   */\n      swap2\n      swap1\n      pop\n      jump\t// out\n        /* \"#utility.yul\":6174:6540   */\n    tag_347:\n      0x00\n        /* \"#utility.yul\":6337:6404   */\n      tag_349\n        /* \"#utility.yul\":6401:6403   */\n      0x24\n        /* \"#utility.yul\":6396:6399   */\n      dup4\n        /* \"#utility.yul\":6337:6404   */\n      tag_297\n      jump\t// in\n    tag_349:\n        /* \"#utility.yul\":6330:6404   */\n      swap2\n      pop\n        /* \"#utility.yul\":6413:6506   */\n      tag_350\n        /* \"#utility.yul\":6502:6505   */\n      dup3\n        /* \"#utility.yul\":6413:6506   */\n      tag_351\n      jump\t// in\n    tag_350:\n        /* \"#utility.yul\":6531:6533   */\n      0x40\n        /* \"#utility.yul\":6526:6529   */\n      dup3\n        /* \"#utility.yul\":6522:6534   */\n      add\n        /* \"#utility.yul\":6515:6534   */\n      swap1\n      pop\n        /* \"#utility.yul\":6320:6540   */\n      swap2\n      swap1\n      pop\n      jump\t// out\n        /* \"#utility.yul\":6546:6912   */\n    tag_352:\n      0x00\n        /* \"#utility.yul\":6709:6776   */\n      tag_354\n        /* \"#utility.yul\":6773:6775   */\n      0x21\n        /* \"#utility.yul\":6768:6771   */\n      dup4\n        /* \"#utility.yul\":6709:6776   */\n      tag_297\n      jump\t// in\n    tag_354:\n        /* \"#utility.yul\":6702:6776   */\n      swap2\n      pop\n        /* \"#utility.yul\":6785:6878   */\n      tag_355\n        /* \"#utility.yul\":6874:6877   */\n      dup3\n        /* \"#utility.yul\":6785:6878   */\n      tag_356\n      jump\t// in\n    tag_355:\n        /* \"#utility.yul\":6903:6905   */\n      0x40\n        /* \"#utility.yul\":6898:6901   */\n      dup3\n        /* \"#utility.yul\":6894:6906   */\n      add\n        /* \"#utility.yul\":6887:6906   */\n      swap1\n      pop\n        /* \"#utility.yul\":6692:6912   */\n      swap2\n      swap1\n      pop\n      jump\t// out\n        /* \"#utility.yul\":6918:7284   */\n    tag_357:\n      0x00\n        /* \"#utility.yul\":7081:7148   */\n      tag_359\n        /* \"#utility.yul\":7145:7147   */\n      0x25\n        /* \"#utility.yul\":7140:7143   */\n      dup4\n        /* \"#utility.yul\":7081:7148   */\n      tag_297\n      jump\t// in\n    tag_359:\n        /* \"#utility.yul\":7074:7148   */\n      swap2\n      pop\n        /* \"#utility.yul\":7157:7250   */\n      tag_360\n        /* \"#utility.yul\":7246:7249   */\n      dup3\n        /* \"#utility.yul\":7157:7250   */\n      tag_361\n      jump\t// in\n    tag_360:\n        /* \"#utility.yul\":7275:7277   */\n      0x40\n        /* \"#utility.yul\":7270:7273   */\n      dup3\n        /* \"#utility.yul\":7266:7278   */\n      add\n        /* \"#utility.yul\":7259:7278   */\n      swap1\n      pop\n        /* \"#utility.yul\":7064:7284   */\n      swap2\n      swap1\n      pop\n      jump\t// out\n        /* \"#utility.yul\":7290:7656   */\n    tag_362:\n      0x00\n        /* \"#utility.yul\":7453:7520   */\n      tag_364\n        /* \"#utility.yul\":7517:7519   */\n      0x24\n        /* \"#utility.yul\":7512:7515   */\n      dup4\n        /* \"#utility.yul\":7453:7520   */\n      tag_297\n      jump\t// in\n    tag_364:\n        /* \"#utility.yul\":7446:7520   */\n      swap2\n      pop\n        /* \"#utility.yul\":7529:7622   */\n      tag_365\n        /* \"#utility.yul\":7618:7621   */\n      dup3\n        /* \"#utility.yul\":7529:7622   */\n      tag_366\n      jump\t// in\n    tag_365:\n        /* \"#utility.yul\":7647:7649   */\n      0x40\n        /* \"#utility.yul\":7642:7645   */\n      dup3\n        /* \"#utility.yul\":7638:7650   */\n      add\n        /* \"#utility.yul\":7631:7650   */\n      swap1\n      pop\n        /* \"#utility.yul\":7436:7656   */\n      swap2\n      swap1\n      pop\n      jump\t// out\n        /* \"#utility.yul\":7662:8028   */\n    tag_367:\n      0x00\n        /* \"#utility.yul\":7825:7892   */\n      tag_369\n        /* \"#utility.yul\":7889:7891   */\n      0x25\n        /* \"#utility.yul\":7884:7887   */\n      dup4\n        /* \"#utility.yul\":7825:7892   */\n      tag_297\n      jump\t// in\n    tag_369:\n        /* \"#utility.yul\":7818:7892   */\n      swap2\n      pop\n        /* \"#utility.yul\":7901:7994   */\n      tag_370\n        /* \"#utility.yul\":7990:7993   */\n      dup3\n        /* \"#utility.yul\":7901:7994   */\n      tag_371\n      jump\t// in\n    tag_370:\n        /* \"#utility.yul\":8019:8021   */\n      0x40\n        /* \"#utility.yul\":8014:8017   */\n      dup3\n        /* \"#utility.yul\":8010:8022   */\n      add\n        /* \"#utility.yul\":8003:8022   */\n      swap1\n      pop\n        /* \"#utility.yul\":7808:8028   */\n      swap2\n      swap1\n      pop\n      jump\t// out\n        /* \"#utility.yul\":8034:8152   */\n    tag_372:\n        /* \"#utility.yul\":8121:8145   */\n      tag_374\n        /* \"#utility.yul\":8139:8144   */\n      dup2\n        /* \"#utility.yul\":8121:8145   */\n      tag_375\n      jump\t// in\n    tag_374:\n        /* \"#utility.yul\":8116:8119   */\n      dup3\n        /* \"#utility.yul\":8109:8146   */\n      mstore\n        /* \"#utility.yul\":8099:8152   */\n      pop\n      pop\n      jump\t// out\n        /* \"#utility.yul\":8158:8270   */\n    tag_376:\n        /* \"#utility.yul\":8241:8263   */\n      tag_378\n        /* \"#utility.yul\":8257:8262   */\n      dup2\n        /* \"#utility.yul\":8241:8263   */\n      tag_379\n      jump\t// in\n    tag_378:\n        /* \"#utility.yul\":8236:8239   */\n      dup3\n        /* \"#utility.yul\":8229:8264   */\n      mstore\n        /* \"#utility.yul\":8219:8270   */\n      pop\n      pop\n      jump\t// out\n        /* \"#utility.yul\":8276:8498   */\n    tag_76:\n      0x00\n        /* \"#utility.yul\":8407:8409   */\n      0x20\n        /* \"#utility.yul\":8396:8405   */\n      dup3\n        /* \"#utility.yul\":8392:8410   */\n      add\n        /* \"#utility.yul\":8384:8410   */\n      swap1\n      pop\n        /* \"#utility.yul\":8420:8491   */\n      tag_381\n        /* \"#utility.yul\":8488:8489   */\n      0x00\n        /* \"#utility.yul\":8477:8486   */\n      dup4\n        /* \"#utility.yul\":8473:8490   */\n      add\n        /* \"#utility.yul\":8464:8470   */\n      dup5\n        /* \"#utility.yul\":8420:8491   */\n      tag_284\n      jump\t// in\n    tag_381:\n        /* \"#utility.yul\":8374:8498   */\n      swap3\n      swap2\n      pop\n      pop\n      jump\t// out\n        /* \"#utility.yul\":8504:8714   */\n    tag_34:\n      0x00\n        /* \"#utility.yul\":8629:8631   */\n      0x20\n        /* \"#utility.yul\":8618:8627   */\n      dup3\n        /* \"#utility.yul\":8614:8632   */\n      add\n        /* \"#utility.yul\":8606:8632   */\n      swap1\n      pop\n        /* \"#utility.yul\":8642:8707   */\n      tag_383\n        /* \"#utility.yul\":8704:8705   */\n      0x00\n        /* \"#utility.yul\":8693:8702   */\n      dup4\n        /* \"#utility.yul\":8689:8706   */\n      add\n        /* \"#utility.yul\":8680:8686   */\n      dup5\n        /* \"#utility.yul\":8642:8707   */\n      tag_288\n      jump\t// in\n    tag_383:\n        /* \"#utility.yul\":8596:8714   */\n      swap3\n      swap2\n      pop\n      pop\n      jump\t// out\n        /* \"#utility.yul\":8720:9033   */\n    tag_28:\n      0x00\n        /* \"#utility.yul\":8871:8873   */\n      0x20\n        /* \"#utility.yul\":8860:8869   */\n      dup3\n        /* \"#utility.yul\":8856:8874   */\n      add\n        /* \"#utility.yul\":8848:8874   */\n      swap1\n      pop\n        /* \"#utility.yul\":8920:8929   */\n      dup2\n        /* \"#utility.yul\":8914:8918   */\n      dup2\n        /* \"#utility.yul\":8910:8930   */\n      sub\n        /* \"#utility.yul\":8906:8907   */\n      0x00\n        /* \"#utility.yul\":8895:8904   */\n      dup4\n        /* \"#utility.yul\":8891:8908   */\n      add\n        /* \"#utility.yul\":8884:8931   */\n      mstore\n        /* \"#utility.yul\":8948:9026   */\n      tag_385\n        /* \"#utility.yul\":9021:9025   */\n      dup2\n        /* \"#utility.yul\":9012:9018   */\n      dup5\n        /* \"#utility.yul\":8948:9026   */\n      tag_292\n      jump\t// in\n    tag_385:\n        /* \"#utility.yul\":8940:9026   */\n      swap1\n      pop\n        /* \"#utility.yul\":8838:9033   */\n      swap3\n      swap2\n      pop\n      pop\n      jump\t// out\n        /* \"#utility.yul\":9039:9458   */\n    tag_210:\n      0x00\n        /* \"#utility.yul\":9243:9245   */\n      0x20\n        /* \"#utility.yul\":9232:9241   */\n      dup3\n        /* \"#utility.yul\":9228:9246   */\n      add\n        /* \"#utility.yul\":9220:9246   */\n      swap1\n      pop\n        /* \"#utility.yul\":9292:9301   */\n      dup2\n        /* \"#utility.yul\":9286:9290   */\n      dup2\n        /* \"#utility.yul\":9282:9302   */\n      sub\n        /* \"#utility.yul\":9278:9279   */\n      0x00\n        /* \"#utility.yul\":9267:9276   */\n      dup4\n        /* \"#utility.yul\":9263:9280   */\n      add\n        /* \"#utility.yul\":9256:9303   */\n      mstore\n        /* \"#utility.yul\":9320:9451   */\n      tag_387\n        /* \"#utility.yul\":9446:9450   */\n      dup2\n        /* \"#utility.yul\":9320:9451   */\n      tag_302\n      jump\t// in\n    tag_387:\n        /* \"#utility.yul\":9312:9451   */\n      swap1\n      pop\n        /* \"#utility.yul\":9210:9458   */\n      swap2\n      swap1\n      pop\n      jump\t// out\n        /* \"#utility.yul\":9464:9883   */\n    tag_224:\n      0x00\n        /* \"#utility.yul\":9668:9670   */\n      0x20\n        /* \"#utility.yul\":9657:9666   */\n      dup3\n        /* \"#utility.yul\":9653:9671   */\n      add\n        /* \"#utility.yul\":9645:9671   */\n      swap1\n      pop\n        /* \"#utility.yul\":9717:9726   */\n      dup2\n        /* \"#utility.yul\":9711:9715   */\n      dup2\n        /* \"#utility.yul\":9707:9727   */\n      sub\n        /* \"#utility.yul\":9703:9704   */\n      0x00\n        /* \"#utility.yul\":9692:9701   */\n      dup4\n        /* \"#utility.yul\":9688:9705   */\n      add\n        /* \"#utility.yul\":9681:9728   */\n      mstore\n        /* \"#utility.yul\":9745:9876   */\n      tag_389\n        /* \"#utility.yul\":9871:9875   */\n      dup2\n        /* \"#utility.yul\":9745:9876   */\n      tag_307\n      jump\t// in\n    tag_389:\n        /* \"#utility.yul\":9737:9876   */\n      swap1\n      pop\n        /* \"#utility.yul\":9635:9883   */\n      swap2\n      swap1\n      pop\n      jump\t// out\n        /* \"#utility.yul\":9889:10308   */\n    tag_235:\n      0x00\n        /* \"#utility.yul\":10093:10095   */\n      0x20\n        /* \"#utility.yul\":10082:10091   */\n      dup3\n        /* \"#utility.yul\":10078:10096   */\n      add\n        /* \"#utility.yul\":10070:10096   */\n      swap1\n      pop\n        /* \"#utility.yul\":10142:10151   */\n      dup2\n        /* \"#utility.yul\":10136:10140   */\n      dup2\n        /* \"#utility.yul\":10132:10152   */\n      sub\n        /* \"#utility.yul\":10128:10129   */\n      0x00\n        /* \"#utility.yul\":10117:10126   */\n      dup4\n        /* \"#utility.yul\":10113:10130   */\n      add\n        /* \"#utility.yul\":10106:10153   */\n      mstore\n        /* \"#utility.yul\":10170:10301   */\n      tag_391\n        /* \"#utility.yul\":10296:10300   */\n      dup2\n        /* \"#utility.yul\":10170:10301   */\n      tag_312\n      jump\t// in\n    tag_391:\n        /* \"#utility.yul\":10162:10301   */\n      swap1\n      pop\n        /* \"#utility.yul\":10060:10308   */\n      swap2\n      swap1\n      pop\n      jump\t// out\n        /* \"#utility.yul\":10314:10733   */\n    tag_192:\n      0x00\n        /* \"#utility.yul\":10518:10520   */\n      0x20\n        /* \"#utility.yul\":10507:10516   */\n      dup3\n        /* \"#utility.yul\":10503:10521   */\n      add\n        /* \"#utility.yul\":10495:10521   */\n      swap1\n      pop\n        /* \"#utility.yul\":10567:10576   */\n      dup2\n        /* \"#utility.yul\":10561:10565   */\n      dup2\n        /* \"#utility.yul\":10557:10577   */\n      sub\n        /* \"#utility.yul\":10553:10554   */\n      0x00\n        /* \"#utility.yul\":10542:10551   */\n      dup4\n        /* \"#utility.yul\":10538:10555   */\n      add\n        /* \"#utility.yul\":10531:10578   */\n      mstore\n        /* \"#utility.yul\":10595:10726   */\n      tag_393\n        /* \"#utility.yul\":10721:10725   */\n      dup2\n        /* \"#utility.yul\":10595:10726   */\n      tag_317\n      jump\t// in\n    tag_393:\n        /* \"#utility.yul\":10587:10726   */\n      swap1\n      pop\n        /* \"#utility.yul\":10485:10733   */\n      swap2\n      swap1\n      pop\n      jump\t// out\n        /* \"#utility.yul\":10739:11158   */\n    tag_202:\n      0x00\n        /* \"#utility.yul\":10943:10945   */\n      0x20\n        /* \"#utility.yul\":10932:10941   */\n      dup3\n        /* \"#utility.yul\":10928:10946   */\n      add\n        /* \"#utility.yul\":10920:10946   */\n      swap1\n      pop\n        /* \"#utility.yul\":10992:11001   */\n      dup2\n        /* \"#utility.yul\":10986:10990   */\n      dup2\n        /* \"#utility.yul\":10982:11002   */\n      sub\n        /* \"#utility.yul\":10978:10979   */\n      0x00\n        /* \"#utility.yul\":10967:10976   */\n      dup4\n        /* \"#utility.yul\":10963:10980   */\n      add\n        /* \"#utility.yul\":10956:11003   */\n      mstore\n        /* \"#utility.yul\":11020:11151   */\n      tag_395\n        /* \"#utility.yul\":11146:11150   */\n      dup2\n        /* \"#utility.yul\":11020:11151   */\n      tag_322\n      jump\t// in\n    tag_395:\n        /* \"#utility.yul\":11012:11151   */\n      swap1\n      pop\n        /* \"#utility.yul\":10910:11158   */\n      swap2\n      swap1\n      pop\n      jump\t// out\n        /* \"#utility.yul\":11164:11583   */\n    tag_215:\n      0x00\n        /* \"#utility.yul\":11368:11370   */\n      0x20\n        /* \"#utility.yul\":11357:11366   */\n      dup3\n        /* \"#utility.yul\":11353:11371   */\n      add\n        /* \"#utility.yul\":11345:11371   */\n      swap1\n      pop\n        /* \"#utility.yul\":11417:11426   */\n      dup2\n        /* \"#utility.yul\":11411:11415   */\n      dup2\n        /* \"#utility.yul\":11407:11427   */\n      sub\n        /* \"#utility.yul\":11403:11404   */\n      0x00\n        /* \"#utility.yul\":11392:11401   */\n      dup4\n        /* \"#utility.yul\":11388:11405   */\n      add\n        /* \"#utility.yul\":11381:11428   */\n      mstore\n        /* \"#utility.yul\":11445:11576   */\n      tag_397\n        /* \"#utility.yul\":11571:11575   */\n      dup2\n        /* \"#utility.yul\":11445:11576   */\n      tag_327\n      jump\t// in\n    tag_397:\n        /* \"#utility.yul\":11437:11576   */\n      swap1\n      pop\n        /* \"#utility.yul\":11335:11583   */\n      swap2\n      swap1\n      pop\n      jump\t// out\n        /* \"#utility.yul\":11589:12008   */\n    tag_245:\n      0x00\n        /* \"#utility.yul\":11793:11795   */\n      0x20\n        /* \"#utility.yul\":11782:11791   */\n      dup3\n        /* \"#utility.yul\":11778:11796   */\n      add\n        /* \"#utility.yul\":11770:11796   */\n      swap1\n      pop\n        /* \"#utility.yul\":11842:11851   */\n      dup2\n        /* \"#utility.yul\":11836:11840   */\n      dup2\n        /* \"#utility.yul\":11832:11852   */\n      sub\n        /* \"#utility.yul\":11828:11829   */\n      0x00\n        /* \"#utility.yul\":11817:11826   */\n      dup4\n        /* \"#utility.yul\":11813:11830   */\n      add\n        /* \"#utility.yul\":11806:11853   */\n      mstore\n        /* \"#utility.yul\":11870:12001   */\n      tag_399\n        /* \"#utility.yul\":11996:12000   */\n      dup2\n        /* \"#utility.yul\":11870:12001   */\n      tag_332\n      jump\t// in\n    tag_399:\n        /* \"#utility.yul\":11862:12001   */\n      swap1\n      pop\n        /* \"#utility.yul\":11760:12008   */\n      swap2\n      swap1\n      pop\n      jump\t// out\n        /* \"#utility.yul\":12014:12433   */\n    tag_116:\n      0x00\n        /* \"#utility.yul\":12218:12220   */\n      0x20\n        /* \"#utility.yul\":12207:12216   */\n      dup3\n        /* \"#utility.yul\":12203:12221   */\n      add\n        /* \"#utility.yul\":12195:12221   */\n      swap1\n      pop\n        /* \"#utility.yul\":12267:12276   */\n      dup2\n        /* \"#utility.yul\":12261:12265   */\n      dup2\n        /* \"#utility.yul\":12257:12277   */\n      sub\n        /* \"#utility.yul\":12253:12254   */\n      0x00\n        /* \"#utility.yul\":12242:12251   */\n      dup4\n        /* \"#utility.yul\":12238:12255   */\n      add\n        /* \"#utility.yul\":12231:12278   */\n      mstore\n        /* \"#utility.yul\":12295:12426   */\n      tag_401\n        /* \"#utility.yul\":12421:12425   */\n      dup2\n        /* \"#utility.yul\":12295:12426   */\n      tag_337\n      jump\t// in\n    tag_401:\n        /* \"#utility.yul\":12287:12426   */\n      swap1\n      pop\n        /* \"#utility.yul\":12185:12433   */\n      swap2\n      swap1\n      pop\n      jump\t// out\n        /* \"#utility.yul\":12439:12858   */\n    tag_131:\n      0x00\n        /* \"#utility.yul\":12643:12645   */\n      0x20\n        /* \"#utility.yul\":12632:12641   */\n      dup3\n        /* \"#utility.yul\":12628:12646   */\n      add\n        /* \"#utility.yul\":12620:12646   */\n      swap1\n      pop\n        /* \"#utility.yul\":12692:12701   */\n      dup2\n        /* \"#utility.yul\":12686:12690   */\n      dup2\n        /* \"#utility.yul\":12682:12702   */\n      sub\n        /* \"#utility.yul\":12678:12679   */\n      0x00\n        /* \"#utility.yul\":12667:12676   */\n      dup4\n        /* \"#utility.yul\":12663:12680   */\n      add\n        /* \"#utility.yul\":12656:12703   */\n      mstore\n        /* \"#utility.yul\":12720:12851   */\n      tag_403\n        /* \"#utility.yul\":12846:12850   */\n      dup2\n        /* \"#utility.yul\":12720:12851   */\n      tag_342\n      jump\t// in\n    tag_403:\n        /* \"#utility.yul\":12712:12851   */\n      swap1\n      pop\n        /* \"#utility.yul\":12610:12858   */\n      swap2\n      swap1\n      pop\n      jump\t// out\n        /* \"#utility.yul\":12864:13283   */\n    tag_154:\n      0x00\n        /* \"#utility.yul\":13068:13070   */\n      0x20\n        /* \"#utility.yul\":13057:13066   */\n      dup3\n        /* \"#utility.yul\":13053:13071   */\n      add\n        /* \"#utility.yul\":13045:13071   */\n      swap1\n      pop\n        /* \"#utility.yul\":13117:13126   */\n      dup2\n        /* \"#utility.yul\":13111:13115   */\n      dup2\n        /* \"#utility.yul\":13107:13127   */\n      sub\n        /* \"#utility.yul\":13103:13104   */\n      0x00\n        /* \"#utility.yul\":13092:13101   */\n      dup4\n        /* \"#utility.yul\":13088:13105   */\n      add\n        /* \"#utility.yul\":13081:13128   */\n      mstore\n        /* \"#utility.yul\":13145:13276   */\n      tag_405\n        /* \"#utility.yul\":13271:13275   */\n      dup2\n        /* \"#utility.yul\":13145:13276   */\n      tag_347\n      jump\t// in\n    tag_405:\n        /* \"#utility.yul\":13137:13276   */\n      swap1\n      pop\n        /* \"#utility.yul\":13035:13283   */\n      swap2\n      swap1\n      pop\n      jump\t// out\n        /* \"#utility.yul\":13289:13708   */\n    tag_231:\n      0x00\n        /* \"#utility.yul\":13493:13495   */\n      0x20\n        /* \"#utility.yul\":13482:13491   */\n      dup3\n        /* \"#utility.yul\":13478:13496   */\n      add\n        /* \"#utility.yul\":13470:13496   */\n      swap1\n      pop\n        /* \"#utility.yul\":13542:13551   */\n      dup2\n        /* \"#utility.yul\":13536:13540   */\n      dup2\n        /* \"#utility.yul\":13532:13552   */\n      sub\n        /* \"#utility.yul\":13528:13529   */\n      0x00\n        /* \"#utility.yul\":13517:13526   */\n      dup4\n        /* \"#utility.yul\":13513:13530   */\n      add\n        /* \"#utility.yul\":13506:13553   */\n      mstore\n        /* \"#utility.yul\":13570:13701   */\n      tag_407\n        /* \"#utility.yul\":13696:13700   */\n      dup2\n        /* \"#utility.yul\":13570:13701   */\n      tag_352\n      jump\t// in\n    tag_407:\n        /* \"#utility.yul\":13562:13701   */\n      swap1\n      pop\n        /* \"#utility.yul\":13460:13708   */\n      swap2\n      swap1\n      pop\n      jump\t// out\n        /* \"#utility.yul\":13714:14133   */\n    tag_207:\n      0x00\n        /* \"#utility.yul\":13918:13920   */\n      0x20\n        /* \"#utility.yul\":13907:13916   */\n      dup3\n        /* \"#utility.yul\":13903:13921   */\n      add\n        /* \"#utility.yul\":13895:13921   */\n      swap1\n      pop\n        /* \"#utility.yul\":13967:13976   */\n      dup2\n        /* \"#utility.yul\":13961:13965   */\n      dup2\n        /* \"#utility.yul\":13957:13977   */\n      sub\n        /* \"#utility.yul\":13953:13954   */\n      0x00\n        /* \"#utility.yul\":13942:13951   */\n      dup4\n        /* \"#utility.yul\":13938:13955   */\n      add\n        /* \"#utility.yul\":13931:13978   */\n      mstore\n        /* \"#utility.yul\":13995:14126   */\n      tag_409\n        /* \"#utility.yul\":14121:14125   */\n      dup2\n        /* \"#utility.yul\":13995:14126   */\n      tag_357\n      jump\t// in\n    tag_409:\n        /* \"#utility.yul\":13987:14126   */\n      swap1\n      pop\n        /* \"#utility.yul\":13885:14133   */\n      swap2\n      swap1\n      pop\n      jump\t// out\n        /* \"#utility.yul\":14139:14558   */\n    tag_199:\n      0x00\n        /* \"#utility.yul\":14343:14345   */\n      0x20\n        /* \"#utility.yul\":14332:14341   */\n      dup3\n        /* \"#utility.yul\":14328:14346   */\n      add\n        /* \"#utility.yul\":14320:14346   */\n      swap1\n      pop\n        /* \"#utility.yul\":14392:14401   */\n      dup2\n        /* \"#utility.yul\":14386:14390   */\n      dup2\n        /* \"#utility.yul\":14382:14402   */\n      sub\n        /* \"#utility.yul\":14378:14379   */\n      0x00\n        /* \"#utility.yul\":14367:14376   */\n      dup4\n        /* \"#utility.yul\":14363:14380   */\n      add\n        /* \"#utility.yul\":14356:14403   */\n      mstore\n        /* \"#utility.yul\":14420:14551   */\n      tag_411\n        /* \"#utility.yul\":14546:14550   */\n      dup2\n        /* \"#utility.yul\":14420:14551   */\n      tag_362\n      jump\t// in\n    tag_411:\n        /* \"#utility.yul\":14412:14551   */\n      swap1\n      pop\n        /* \"#utility.yul\":14310:14558   */\n      swap2\n      swap1\n      pop\n      jump\t// out\n        /* \"#utility.yul\":14564:14983   */\n    tag_177:\n      0x00\n        /* \"#utility.yul\":14768:14770   */\n      0x20\n        /* \"#utility.yul\":14757:14766   */\n      dup3\n        /* \"#utility.yul\":14753:14771   */\n      add\n        /* \"#utility.yul\":14745:14771   */\n      swap1\n      pop\n        /* \"#utility.yul\":14817:14826   */\n      dup2\n        /* \"#utility.yul\":14811:14815   */\n      dup2\n        /* \"#utility.yul\":14807:14827   */\n      sub\n        /* \"#utility.yul\":14803:14804   */\n      0x00\n        /* \"#utility.yul\":14792:14801   */\n      dup4\n        /* \"#utility.yul\":14788:14805   */\n      add\n        /* \"#utility.yul\":14781:14828   */\n      mstore\n        /* \"#utility.yul\":14845:14976   */\n      tag_413\n        /* \"#utility.yul\":14971:14975   */\n      dup2\n        /* \"#utility.yul\":14845:14976   */\n      tag_367\n      jump\t// in\n    tag_413:\n        /* \"#utility.yul\":14837:14976   */\n      swap1\n      pop\n        /* \"#utility.yul\":14735:14983   */\n      swap2\n      swap1\n      pop\n      jump\t// out\n        /* \"#utility.yul\":14989:15211   */\n    tag_38:\n      0x00\n        /* \"#utility.yul\":15120:15122   */\n      0x20\n        /* \"#utility.yul\":15109:15118   */\n      dup3\n        /* \"#utility.yul\":15105:15123   */\n      add\n        /* \"#utility.yul\":15097:15123   */\n      swap1\n      pop\n        /* \"#utility.yul\":15133:15204   */\n      tag_415\n        /* \"#utility.yul\":15201:15202   */\n      0x00\n        /* \"#utility.yul\":15190:15199   */\n      dup4\n        /* \"#utility.yul\":15186:15203   */\n      add\n        /* \"#utility.yul\":15177:15183   */\n      dup5\n        /* \"#utility.yul\":15133:15204   */\n      tag_372\n      jump\t// in\n    tag_415:\n        /* \"#utility.yul\":15087:15211   */\n      swap3\n      swap2\n      pop\n      pop\n      jump\t// out\n        /* \"#utility.yul\":15217:15431   */\n    tag_47:\n      0x00\n        /* \"#utility.yul\":15344:15346   */\n      0x20\n        /* \"#utility.yul\":15333:15342   */\n      dup3\n        /* \"#utility.yul\":15329:15347   */\n      add\n        /* \"#utility.yul\":15321:15347   */\n      swap1\n      pop\n        /* \"#utility.yul\":15357:15424   */\n      tag_417\n        /* \"#utility.yul\":15421:15422   */\n      0x00\n        /* \"#utility.yul\":15410:15419   */\n      dup4\n        /* \"#utility.yul\":15406:15423   */\n      add\n        /* \"#utility.yul\":15397:15403   */\n      dup5\n        /* \"#utility.yul\":15357:15424   */\n      tag_376\n      jump\t// in\n    tag_417:\n        /* \"#utility.yul\":15311:15431   */\n      swap3\n      swap2\n      pop\n      pop\n      jump\t// out\n        /* \"#utility.yul\":15437:15536   */\n    tag_295:\n      0x00\n        /* \"#utility.yul\":15523:15528   */\n      dup2\n        /* \"#utility.yul\":15517:15529   */\n      mload\n        /* \"#utility.yul\":15507:15529   */\n      swap1\n      pop\n        /* \"#utility.yul\":15496:15536   */\n      swap2\n      swap1\n      pop\n      jump\t// out\n        /* \"#utility.yul\":15542:15711   */\n    tag_297:\n      0x00\n        /* \"#utility.yul\":15660:15666   */\n      dup3\n        /* \"#utility.yul\":15655:15658   */\n      dup3\n        /* \"#utility.yul\":15648:15667   */\n      mstore\n        /* \"#utility.yul\":15700:15704   */\n      0x20\n        /* \"#utility.yul\":15695:15698   */\n      dup3\n        /* \"#utility.yul\":15691:15705   */\n      add\n        /* \"#utility.yul\":15676:15705   */\n      swap1\n      pop\n        /* \"#utility.yul\":15638:15711   */\n      swap3\n      swap2\n      pop\n      pop\n      jump\t// out\n        /* \"#utility.yul\":15717:16022   */\n    tag_125:\n      0x00\n        /* \"#utility.yul\":15776:15796   */\n      tag_421\n        /* \"#utility.yul\":15794:15795   */\n      dup3\n        /* \"#utility.yul\":15776:15796   */\n      tag_375\n      jump\t// in\n    tag_421:\n        /* \"#utility.yul\":15771:15796   */\n      swap2\n      pop\n        /* \"#utility.yul\":15810:15830   */\n      tag_422\n        /* \"#utility.yul\":15828:15829   */\n      dup4\n        /* \"#utility.yul\":15810:15830   */\n      tag_375\n      jump\t// in\n    tag_422:\n        /* \"#utility.yul\":15805:15830   */\n      swap3\n      pop\n        /* \"#utility.yul\":15964:15965   */\n      dup3\n        /* \"#utility.yul\":15896:15962   */\n      0xffffffffffffffffffffffffffffffffffffffffffffffffffffffffffffffff\n        /* \"#utility.yul\":15892:15966   */\n      sub\n        /* \"#utility.yul\":15889:15890   */\n      dup3\n        /* \"#utility.yul\":15886:15967   */\n      gt\n        /* \"#utility.yul\":15883:15885   */\n      iszero\n      tag_423\n      jumpi\n        /* \"#utility.yul\":15970:15988   */\n      tag_424\n      tag_425\n      jump\t// in\n    tag_424:\n        /* \"#utility.yul\":15883:15885   */\n    tag_423:\n        /* \"#utility.yul\":16014:16015   */\n      dup3\n        /* \"#utility.yul\":16011:16012   */\n      dup3\n        /* \"#utility.yul\":16007:16016   */\n      add\n        /* \"#utility.yul\":16000:16016   */\n      swap1\n      pop\n        /* \"#utility.yul\":15761:16022   */\n      swap3\n      swap2\n      pop\n      pop\n      jump\t// out\n        /* \"#utility.yul\":16028:16219   */\n    tag_237:\n      0x00\n        /* \"#utility.yul\":16088:16108   */\n      tag_427\n        /* \"#utility.yul\":16106:16107   */\n      dup3\n        /* \"#utility.yul\":16088:16108   */\n      tag_375\n      jump\t// in\n    tag_427:\n        /* \"#utility.yul\":16083:16108   */\n      swap2\n      pop\n        /* \"#utility.yul\":16122:16142   */\n      tag_428\n        /* \"#utility.yul\":16140:16141   */\n      dup4\n        /* \"#utility.yul\":16122:16142   */\n      tag_375\n      jump\t// in\n    tag_428:\n        /* \"#utility.yul\":16117:16142   */\n      swap3\n      pop\n        /* \"#utility.yul\":16161:16162   */\n      dup3\n        /* \"#utility.yul\":16158:16159   */\n      dup3\n        /* \"#utility.yul\":16155:16163   */\n      lt\n        /* \"#utility.yul\":16152:16154   */\n      iszero\n      tag_429\n      jumpi\n        /* \"#utility.yul\":16166:16184   */\n      tag_430\n      tag_425\n      jump\t// in\n    tag_430:\n        /* \"#utility.yul\":16152:16154   */\n    tag_429:\n        /* \"#utility.yul\":16211:16212   */\n      dup3\n        /* \"#utility.yul\":16208:16209   */\n      dup3\n        /* \"#utility.yul\":16204:16213   */\n      sub\n        /* \"#utility.yul\":16196:16213   */\n      swap1\n      pop\n        /* \"#utility.yul\":16073:16219   */\n      swap3\n      swap2\n      pop\n      pop\n      jump\t// out\n        /* \"#utility.yul\":16225:16321   */\n    tag_287:\n      0x00\n        /* \"#utility.yul\":16291:16315   */\n      tag_432\n        /* \"#utility.yul\":16309:16314   */\n      dup3\n        /* \"#utility.yul\":16291:16315   */\n      tag_433\n      jump\t// in\n    tag_432:\n        /* \"#utility.yul\":16280:16315   */\n      swap1\n      pop\n        /* \"#utility.yul\":16270:16321   */\n      swap2\n      swap1\n      pop\n      jump\t// out\n        /* \"#utility.yul\":16327:16417   */\n    tag_291:\n      0x00\n        /* \"#utility.yul\":16404:16409   */\n      dup2\n        /* \"#utility.yul\":16397:16410   */\n      iszero\n        /* \"#utility.yul\":16390:16411   */\n      iszero\n        /* \"#utility.yul\":16379:16411   */\n      swap1\n      pop\n        /* \"#utility.yul\":16369:16417   */\n      swap2\n      swap1\n      pop\n      jump\t// out\n        /* \"#utility.yul\":16423:16549   */\n    tag_433:\n      0x00\n        /* \"#utility.yul\":16500:16542   */\n      0xffffffffffffffffffffffffffffffffffffffff\n        /* \"#utility.yul\":16493:16498   */\n      dup3\n        /* \"#utility.yul\":16489:16543   */\n      and\n        /* \"#utility.yul\":16478:16543   */\n      swap1\n      pop\n        /* \"#utility.yul\":16468:16549   */\n      swap2\n      swap1\n      pop\n      jump\t// out\n        /* \"#utility.yul\":16555:16632   */\n    tag_375:\n      0x00\n        /* \"#utility.yul\":16621:16626   */\n      dup2\n        /* \"#utility.yul\":16610:16626   */\n      swap1\n      pop\n        /* \"#utility.yul\":16600:16632   */\n      swap2\n      swap1\n      pop\n      jump\t// out\n        /* \"#utility.yul\":16638:16724   */\n    tag_379:\n      0x00\n        /* \"#utility.yul\":16713:16717   */\n      0xff\n        /* \"#utility.yul\":16706:16711   */\n      dup3\n        /* \"#utility.yul\":16702:16718   */\n      and\n        /* \"#utility.yul\":16691:16718   */\n      swap1\n      pop\n        /* \"#utility.yul\":16681:16724   */\n      swap2\n      swap1\n      pop\n      jump\t// out\n        /* \"#utility.yul\":16730:17037   */\n    tag_299:\n        /* \"#utility.yul\":16798:16799   */\n      0x00\n        /* \"#utility.yul\":16808:16921   */\n    tag_439:\n        /* \"#utility.yul\":16822:16828   */\n      dup4\n        /* \"#utility.yul\":16819:16820   */\n      dup2\n        /* \"#utility.yul\":16816:16829   */\n      lt\n        /* \"#utility.yul\":16808:16921   */\n      iszero\n      tag_441\n      jumpi\n        /* \"#utility.yul\":16907:16908   */\n      dup1\n        /* \"#utility.yul\":16902:16905   */\n      dup3\n        /* \"#utility.yul\":16898:16909   */\n      add\n        /* \"#utility.yul\":16892:16910   */\n      mload\n        /* \"#utility.yul\":16888:16889   */\n      dup2\n        /* \"#utility.yul\":16883:16886   */\n      dup5\n        /* \"#utility.yul\":16879:16890   */\n      add\n        /* \"#utility.yul\":16872:16911   */\n      mstore\n        /* \"#utility.yul\":16844:16846   */\n      0x20\n        /* \"#utility.yul\":16841:16842   */\n      dup2\n        /* \"#utility.yul\":16837:16847   */\n      add\n        /* \"#utility.yul\":16832:16847   */\n      swap1\n      pop\n        /* \"#utility.yul\":16808:16921   */\n      jump(tag_439)\n    tag_441:\n        /* \"#utility.yul\":16939:16945   */\n      dup4\n        /* \"#utility.yul\":16936:16937   */\n      dup2\n        /* \"#utility.yul\":16933:16946   */\n      gt\n        /* \"#utility.yul\":16930:16932   */\n      iszero\n      tag_442\n      jumpi\n        /* \"#utility.yul\":17019:17020   */\n      0x00\n        /* \"#utility.yul\":17010:17016   */\n      dup5\n        /* \"#utility.yul\":17005:17008   */\n      dup5\n        /* \"#utility.yul\":17001:17017   */\n      add\n        /* \"#utility.yul\":16994:17021   */\n      mstore\n        /* \"#utility.yul\":16930:16932   */\n    tag_442:\n        /* \"#utility.yul\":16779:17037   */\n      pop\n      pop\n      pop\n      pop\n      jump\t// out\n        /* \"#utility.yul\":17043:17363   */\n    tag_99:\n      0x00\n        /* \"#utility.yul\":17124:17125   */\n      0x02\n        /* \"#utility.yul\":17118:17122   */\n      dup3\n        /* \"#utility.yul\":17114:17126   */\n      div\n        /* \"#utility.yul\":17104:17126   */\n      swap1\n      pop\n        /* \"#utility.yul\":17171:17172   */\n      0x01\n        /* \"#utility.yul\":17165:17169   */\n      dup3\n        /* \"#utility.yul\":17161:17173   */\n      and\n        /* \"#utility.yul\":17192:17210   */\n      dup1\n        /* \"#utility.yul\":17182:17184   */\n      tag_444\n      jumpi\n        /* \"#utility.yul\":17248:17252   */\n      0x7f\n        /* \"#utility.yul\":17240:17246   */\n      dup3\n        /* \"#utility.yul\":17236:17253   */\n      and\n        /* \"#utility.yul\":17226:17253   */\n      swap2\n      pop\n        /* \"#utility.yul\":17182:17184   */\n    tag_444:\n        /* \"#utility.yul\":17310:17312   */\n      0x20\n        /* \"#utility.yul\":17302:17308   */\n      dup3\n        /* \"#utility.yul\":17299:17313   */\n      lt\n        /* \"#utility.yul\":17279:17297   */\n      dup2\n        /* \"#utility.yul\":17276:17314   */\n      eq\n        /* \"#utility.yul\":17273:17275   */\n      iszero\n      tag_445\n      jumpi\n        /* \"#utility.yul\":17329:17347   */\n      tag_446\n      tag_447\n      jump\t// in\n    tag_446:\n        /* \"#utility.yul\":17273:17275   */\n    tag_445:\n        /* \"#utility.yul\":17094:17363   */\n      pop\n      swap2\n      swap1\n      pop\n      jump\t// out\n        /* \"#utility.yul\":17369:17549   */\n    tag_425:\n        /* \"#utility.yul\":17417:17494   */\n      0x4e487b7100000000000000000000000000000000000000000000000000000000\n        /* \"#utility.yul\":17414:17415   */\n      0x00\n        /* \"#utility.yul\":17407:17495   */\n      mstore\n        /* \"#utility.yul\":17514:17518   */\n      0x11\n        /* \"#utility.yul\":17511:17512   */\n      0x04\n        /* \"#utility.yul\":17504:17519   */\n      mstore\n        /* \"#utility.yul\":17538:17542   */\n      0x24\n        /* \"#utility.yul\":17535:17536   */\n      0x00\n        /* \"#utility.yul\":17528:17543   */\n      revert\n        /* \"#utility.yul\":17555:17735   */\n    tag_447:\n        /* \"#utility.yul\":17603:17680   */\n      0x4e487b7100000000000000000000000000000000000000000000000000000000\n        /* \"#utility.yul\":17600:17601   */\n      0x00\n        /* \"#utility.yul\":17593:17681   */\n      mstore\n        /* \"#utility.yul\":17700:17704   */\n      0x22\n        /* \"#utility.yul\":17697:17698   */\n      0x04\n        /* \"#utility.yul\":17690:17705   */\n      mstore\n        /* \"#utility.yul\":17724:17728   */\n      0x24\n        /* \"#utility.yul\":17721:17722   */\n      0x00\n        /* \"#utility.yul\":17714:17729   */\n      revert\n        /* \"#utility.yul\":17741:17843   */\n    tag_301:\n      0x00\n        /* \"#utility.yul\":17833:17835   */\n      0x1f\n        /* \"#utility.yul\":17829:17836   */\n      not\n        /* \"#utility.yul\":17824:17826   */\n      0x1f\n        /* \"#utility.yul\":17817:17822   */\n      dup4\n        /* \"#utility.yul\":17813:17827   */\n      add\n        /* \"#utility.yul\":17809:17837   */\n      and\n        /* \"#utility.yul\":17799:17837   */\n      swap1\n      pop\n        /* \"#utility.yul\":17789:17843   */\n      swap2\n      swap1\n      pop\n      jump\t// out\n        /* \"#utility.yul\":17849:18071   */\n    tag_306:\n        /* \"#utility.yul\":17989:18023   */\n      0x45524332303a207472616e7366657220746f20746865207a65726f2061646472\n        /* \"#utility.yul\":17985:17986   */\n      0x00\n        /* \"#utility.yul\":17977:17983   */\n      dup3\n        /* \"#utility.yul\":17973:17987   */\n      add\n        /* \"#utility.yul\":17966:18024   */\n      mstore\n        /* \"#utility.yul\":18058:18063   */\n      0x6573730000000000000000000000000000000000000000000000000000000000\n        /* \"#utility.yul\":18053:18055   */\n      0x20\n        /* \"#utility.yul\":18045:18051   */\n      dup3\n        /* \"#utility.yul\":18041:18056   */\n      add\n        /* \"#utility.yul\":18034:18064   */\n      mstore\n        /* \"#utility.yul\":17955:18071   */\n      pop\n      jump\t// out\n        /* \"#utility.yul\":18077:18247   */\n    tag_311:\n        /* \"#utility.yul\":18217:18239   */\n      0x5061757361626c653a206e6f7420706175736564000000000000000000000000\n        /* \"#utility.yul\":18213:18214   */\n      0x00\n        /* \"#utility.yul\":18205:18211   */\n      dup3\n        /* \"#utility.yul\":18201:18215   */\n      add\n        /* \"#utility.yul\":18194:18240   */\n      mstore\n        /* \"#utility.yul\":18183:18247   */\n      pop\n      jump\t// out\n        /* \"#utility.yul\":18253:18474   */\n    tag_316:\n        /* \"#utility.yul\":18393:18427   */\n      0x45524332303a206275726e20616d6f756e7420657863656564732062616c616e\n        /* \"#utility.yul\":18389:18390   */\n      0x00\n        /* \"#utility.yul\":18381:18387   */\n      dup3\n        /* \"#utility.yul\":18377:18391   */\n      add\n        /* \"#utility.yul\":18370:18428   */\n      mstore\n        /* \"#utility.yul\":18462:18466   */\n      0x6365000000000000000000000000000000000000000000000000000000000000\n        /* \"#utility.yul\":18457:18459   */\n      0x20\n        /* \"#utility.yul\":18449:18455   */\n      dup3\n        /* \"#utility.yul\":18445:18460   */\n      add\n        /* \"#utility.yul\":18438:18467   */\n      mstore\n        /* \"#utility.yul\":18359:18474   */\n      pop\n      jump\t// out\n        /* \"#utility.yul\":18480:18705   */\n    tag_321:\n        /* \"#utility.yul\":18620:18654   */\n      0x4f776e61626c653a206e6577206f776e657220697320746865207a65726f2061\n        /* \"#utility.yul\":18616:18617   */\n      0x00\n        /* \"#utility.yul\":18608:18614   */\n      dup3\n        /* \"#utility.yul\":18604:18618   */\n      add\n        /* \"#utility.yul\":18597:18655   */\n      mstore\n        /* \"#utility.yul\":18689:18697   */\n      0x6464726573730000000000000000000000000000000000000000000000000000\n        /* \"#utility.yul\":18684:18686   */\n      0x20\n        /* \"#utility.yul\":18676:18682   */\n      dup3\n        /* \"#utility.yul\":18672:18687   */\n      add\n        /* \"#utility.yul\":18665:18698   */\n      mstore\n        /* \"#utility.yul\":18586:18705   */\n      pop\n      jump\t// out\n        /* \"#utility.yul\":18711:18932   */\n    tag_326:\n        /* \"#utility.yul\":18851:18885   */\n      0x45524332303a20617070726f766520746f20746865207a65726f206164647265\n        /* \"#utility.yul\":18847:18848   */\n      0x00\n        /* \"#utility.yul\":18839:18845   */\n      dup3\n        /* \"#utility.yul\":18835:18849   */\n      add\n        /* \"#utility.yul\":18828:18886   */\n      mstore\n        /* \"#utility.yul\":18920:18924   */\n      0x7373000000000000000000000000000000000000000000000000000000000000\n        /* \"#utility.yul\":18915:18917   */\n      0x20\n        /* \"#utility.yul\":18907:18913   */\n      dup3\n        /* \"#utility.yul\":18903:18918   */\n      add\n        /* \"#utility.yul\":18896:18925   */\n      mstore\n        /* \"#utility.yul\":18817:18932   */\n      pop\n      jump\t// out\n        /* \"#utility.yul\":18938:19163   */\n    tag_331:\n        /* \"#utility.yul\":19078:19112   */\n      0x45524332303a207472616e7366657220616d6f756e7420657863656564732062\n        /* \"#utility.yul\":19074:19075   */\n      0x00\n        /* \"#utility.yul\":19066:19072   */\n      dup3\n        /* \"#utility.yul\":19062:19076   */\n      add\n        /* \"#utility.yul\":19055:19113   */\n      mstore\n        /* \"#utility.yul\":19147:19155   */\n      0x616c616e63650000000000000000000000000000000000000000000000000000\n        /* \"#utility.yul\":19142:19144   */\n      0x20\n        /* \"#utility.yul\":19134:19140   */\n      dup3\n        /* \"#utility.yul\":19130:19145   */\n      add\n        /* \"#utility.yul\":19123:19156   */\n      mstore\n        /* \"#utility.yul\":19044:19163   */\n      pop\n      jump\t// out\n        /* \"#utility.yul\":19169:19335   */\n    tag_336:\n        /* \"#utility.yul\":19309:19327   */\n      0x5061757361626c653a2070617573656400000000000000000000000000000000\n        /* \"#utility.yul\":19305:19306   */\n      0x00\n        /* \"#utility.yul\":19297:19303   */\n      dup3\n        /* \"#utility.yul\":19293:19307   */\n      add\n        /* \"#utility.yul\":19286:19328   */\n      mstore\n        /* \"#utility.yul\":19275:19335   */\n      pop\n      jump\t// out\n        /* \"#utility.yul\":19341:19568   */\n    tag_341:\n        /* \"#utility.yul\":19481:19515   */\n      0x45524332303a207472616e7366657220616d6f756e7420657863656564732061\n        /* \"#utility.yul\":19477:19478   */\n      0x00\n        /* \"#utility.yul\":19469:19475   */\n      dup3\n        /* \"#utility.yul\":19465:19479   */\n      add\n        /* \"#utility.yul\":19458:19516   */\n      mstore\n        /* \"#utility.yul\":19550:19560   */\n      0x6c6c6f77616e6365000000000000000000000000000000000000000000000000\n        /* \"#utility.yul\":19545:19547   */\n      0x20\n        /* \"#utility.yul\":19537:19543   */\n      dup3\n        /* \"#utility.yul\":19533:19548   */\n      add\n        /* \"#utility.yul\":19526:19561   */\n      mstore\n        /* \"#utility.yul\":19447:19568   */\n      pop\n      jump\t// out\n        /* \"#utility.yul\":19574:19756   */\n    tag_346:\n        /* \"#utility.yul\":19714:19748   */\n      0x4f776e61626c653a2063616c6c6572206973206e6f7420746865206f776e6572\n        /* \"#utility.yul\":19710:19711   */\n      0x00\n        /* \"#utility.yul\":19702:19708   */\n      dup3\n        /* \"#utility.yul\":19698:19712   */\n      add\n        /* \"#utility.yul\":19691:19749   */\n      mstore\n        /* \"#utility.yul\":19680:19756   */\n      pop\n      jump\t// out\n        /* \"#utility.yul\":19762:19985   */\n    tag_351:\n        /* \"#utility.yul\":19902:19936   */\n      0x45524332303a206275726e20616d6f756e74206578636565647320616c6c6f77\n        /* \"#utility.yul\":19898:19899   */\n      0x00\n        /* \"#utility.yul\":19890:19896   */\n      dup3\n        /* \"#utility.yul\":19886:19900   */\n      add\n        /* \"#utility.yul\":19879:19937   */\n      mstore\n        /* \"#utility.yul\":19971:19977   */\n      0x616e636500000000000000000000000000000000000000000000000000000000\n        /* \"#utility.yul\":19966:19968   */\n      0x20\n        /* \"#utility.yul\":19958:19964   */\n      dup3\n        /* \"#utility.yul\":19954:19969   */\n      add\n        /* \"#utility.yul\":19947:19978   */\n      mstore\n        /* \"#utility.yul\":19868:19985   */\n      pop\n      jump\t// out\n        /* \"#utility.yul\":19991:20211   */\n    tag_356:\n        /* \"#utility.yul\":20131:20165   */\n      0x45524332303a206275726e2066726f6d20746865207a65726f20616464726573\n        /* \"#utility.yul\":20127:20128   */\n      0x00\n        /* \"#utility.yul\":20119:20125   */\n      dup3\n        /* \"#utility.yul\":20115:20129   */\n      add\n        /* \"#utility.yul\":20108:20166   */\n      mstore\n        /* \"#utility.yul\":20200:20203   */\n      0x7300000000000000000000000000000000000000000000000000000000000000\n        /* \"#utility.yul\":20195:20197   */\n      0x20\n        /* \"#utility.yul\":20187:20193   */\n      dup3\n        /* \"#utility.yul\":20183:20198   */\n      add\n        /* \"#utility.yul\":20176:20204   */\n      mstore\n        /* \"#utility.yul\":20097:20211   */\n      pop\n      jump\t// out\n        /* \"#utility.yul\":20217:20441   */\n    tag_361:\n        /* \"#utility.yul\":20357:20391   */\n      0x45524332303a207472616e736665722066726f6d20746865207a65726f206164\n        /* \"#utility.yul\":20353:20354   */\n      0x00\n        /* \"#utility.yul\":20345:20351   */\n      dup3\n        /* \"#utility.yul\":20341:20355   */\n      add\n        /* \"#utility.yul\":20334:20392   */\n      mstore\n        /* \"#utility.yul\":20426:20433   */\n      0x6472657373000000000000000000000000000000000000000000000000000000\n        /* \"#utility.yul\":20421:20423   */\n      0x20\n        /* \"#utility.yul\":20413:20419   */\n      dup3\n        /* \"#utility.yul\":20409:20424   */\n      add\n        /* \"#utility.yul\":20402:20434   */\n      mstore\n        /* \"#utility.yul\":20323:20441   */\n      pop\n      jump\t// out\n        /* \"#utility.yul\":20447:20670   */\n    tag_366:\n        /* \"#utility.yul\":20587:20621   */\n      0x45524332303a20617070726f76652066726f6d20746865207a65726f20616464\n        /* \"#utility.yul\":20583:20584   */\n      0x00\n        /* \"#utility.yul\":20575:20581   */\n      dup3\n        /* \"#utility.yul\":20571:20585   */\n      add\n        /* \"#utility.yul\":20564:20622   */\n      mstore\n        /* \"#utility.yul\":20656:20662   */\n      0x7265737300000000000000000000000000000000000000000000000000000000\n        /* \"#utility.yul\":20651:20653   */\n      0x20\n        /* \"#utility.yul\":20643:20649   */\n      dup3\n        /* \"#utility.yul\":20639:20654   */\n      add\n        /* \"#utility.yul\":20632:20663   */\n      mstore\n        /* \"#utility.yul\":20553:20670   */\n      pop\n      jump\t// out\n        /* \"#utility.yul\":20676:20900   */\n    tag_371:\n        /* \"#utility.yul\":20816:20850   */\n      0x45524332303a2064656372656173656420616c6c6f77616e63652062656c6f77\n        /* \"#utility.yul\":20812:20813   */\n      0x00\n        /* \"#utility.yul\":20804:20810   */\n      dup3\n        /* \"#utility.yul\":20800:20814   */\n      add\n        /* \"#utility.yul\":20793:20851   */\n      mstore\n        /* \"#utility.yul\":20885:20892   */\n      0x207a65726f000000000000000000000000000000000000000000000000000000\n        /* \"#utility.yul\":20880:20882   */\n      0x20\n        /* \"#utility.yul\":20872:20878   */\n      dup3\n        /* \"#utility.yul\":20868:20883   */\n      add\n        /* \"#utility.yul\":20861:20893   */\n      mstore\n        /* \"#utility.yul\":20782:20900   */\n      pop\n      jump\t// out\n        /* \"#utility.yul\":20906:21028   */\n    tag_260:\n        /* \"#utility.yul\":20979:21003   */\n      tag_466\n        /* \"#utility.yul\":20997:21002   */\n      dup2\n        /* \"#utility.yul\":20979:21003   */\n      tag_287\n      jump\t// in\n    tag_466:\n        /* \"#utility.yul\":20972:20977   */\n      dup2\n        /* \"#utility.yul\":20969:21004   */\n      eq\n        /* \"#utility.yul\":20959:20961   */\n      tag_467\n      jumpi\n        /* \"#utility.yul\":21018:21019   */\n      0x00\n        /* \"#utility.yul\":21015:21016   */\n      dup1\n        /* \"#utility.yul\":21008:21020   */\n      revert\n        /* \"#utility.yul\":20959:20961   */\n    tag_467:\n        /* \"#utility.yul\":20949:21028   */\n      pop\n      jump\t// out\n        /* \"#utility.yul\":21034:21156   */\n    tag_264:\n        /* \"#utility.yul\":21107:21131   */\n      tag_469\n        /* \"#utility.yul\":21125:21130   */\n      dup2\n        /* \"#utility.yul\":21107:21131   */\n      tag_375\n      jump\t// in\n    tag_469:\n        /* \"#utility.yul\":21100:21105   */\n      dup2\n        /* \"#utility.yul\":21097:21132   */\n      eq\n        /* \"#utility.yul\":21087:21089   */\n      tag_470\n      jumpi\n        /* \"#utility.yul\":21146:21147   */\n      0x00\n        /* \"#utility.yul\":21143:21144   */\n      dup1\n        /* \"#utility.yul\":21136:21148   */\n      revert\n        /* \"#utility.yul\":21087:21089   */\n    tag_470:\n        /* \"#utility.yul\":21077:21156   */\n      pop\n      jump\t// out\n\n    auxdata: 0xa2646970667358221220a2e54061d315bd82abb7014fb602fbb5cb7f972219307b62c76abcc70925299964736f6c63430008010033\n}\n",
				"bytecode": {
					"linkReferences": {},
					"object": "60806040523480156200001157600080fd5b506040518060400160405280600681526020017f4b4550454e4700000000000000000000000000000000000000000000000000008152506040518060400160405280600381526020017f4b5047000000000000000000000000000000000000000000000000000000000081525081600390805190602001906200009692919062000414565b508060049080519060200190620000af92919062000414565b5050506000600560006101000a81548160ff021916908315150217905550620000ed620000e16200013360201b60201c565b6200013b60201b60201c565b6200012d33620001026200020160201b60201c565b600a6200011091906200064d565b633b9aca006200012191906200078a565b6200020a60201b60201c565b620008f5565b600033905090565b6000600560019054906101000a900473ffffffffffffffffffffffffffffffffffffffff16905081600560016101000a81548173ffffffffffffffffffffffffffffffffffffffff021916908373ffffffffffffffffffffffffffffffffffffffff1602179055508173ffffffffffffffffffffffffffffffffffffffff168173ffffffffffffffffffffffffffffffffffffffff167f8be0079c531659141344cd1fd0a4f28419497f9722a3daafe3b4186f6b6457e060405160405180910390a35050565b60006004905090565b600073ffffffffffffffffffffffffffffffffffffffff168273ffffffffffffffffffffffffffffffffffffffff1614156200027d576040517f08c379a0000000000000000000000000000000000000000000000000000000008152600401620002749062000545565b60405180910390fd5b62000291600083836200038360201b60201c565b8060026000828254620002a5919062000595565b92505081905550806000808473ffffffffffffffffffffffffffffffffffffffff1673ffffffffffffffffffffffffffffffffffffffff1681526020019081526020016000206000828254620002fc919062000595565b925050819055508173ffffffffffffffffffffffffffffffffffffffff16600073ffffffffffffffffffffffffffffffffffffffff167fddf252ad1be2c89b69c2b068fc378daa952ba7f163c4a11628f55a4df523b3ef8360405162000363919062000567565b60405180910390a36200037f60008383620003f360201b60201c565b5050565b62000393620003f860201b60201c565b15620003d6576040517f08c379a0000000000000000000000000000000000000000000000000000000008152600401620003cd9062000523565b60405180910390fd5b620003ee8383836200040f60201b62000bc91760201c565b505050565b505050565b6000600560009054906101000a900460ff16905090565b505050565b828054620004229062000802565b90600052602060002090601f01602090048101928262000446576000855562000492565b82601f106200046157805160ff191683800117855562000492565b8280016001018555821562000492579182015b828111156200049157825182559160200191906001019062000474565b5b509050620004a19190620004a5565b5090565b5b80821115620004c0576000816000905550600101620004a6565b5090565b6000620004d360108362000584565b9150620004e082620008a3565b602082019050919050565b6000620004fa601f8362000584565b91506200050782620008cc565b602082019050919050565b6200051d81620007eb565b82525050565b600060208201905081810360008301526200053e81620004c4565b9050919050565b600060208201905081810360008301526200056081620004eb565b9050919050565b60006020820190506200057e600083018462000512565b92915050565b600082825260208201905092915050565b6000620005a282620007eb565b9150620005af83620007eb565b9250827fffffffffffffffffffffffffffffffffffffffffffffffffffffffffffffffff03821115620005e757620005e662000838565b5b828201905092915050565b6000808291508390505b600185111562000644578086048111156200061c576200061b62000838565b5b60018516156200062c5780820291505b80810290506200063c8562000896565b9450620005fc565b94509492505050565b60006200065a82620007eb565b91506200066783620007f5565b9250620006967fffffffffffffffffffffffffffffffffffffffffffffffffffffffffffffffff84846200069e565b905092915050565b600082620006b0576001905062000783565b81620006c0576000905062000783565b8160018114620006d95760028114620006e4576200071a565b600191505062000783565b60ff841115620006f957620006f862000838565b5b8360020a91508482111562000713576200071262000838565b5b5062000783565b5060208310610133831016604e8410600b8410161715620007545782820a9050838111156200074e576200074d62000838565b5b62000783565b620007638484846001620005f2565b925090508184048111156200077d576200077c62000838565b5b81810290505b9392505050565b60006200079782620007eb565b9150620007a483620007eb565b9250817fffffffffffffffffffffffffffffffffffffffffffffffffffffffffffffffff0483118215151615620007e057620007df62000838565b5b828202905092915050565b6000819050919050565b600060ff82169050919050565b600060028204905060018216806200081b57607f821691505b6020821081141562000832576200083162000867565b5b50919050565b7f4e487b7100000000000000000000000000000000000000000000000000000000600052601160045260246000fd5b7f4e487b7100000000000000000000000000000000000000000000000000000000600052602260045260246000fd5b60008160011c9050919050565b7f5061757361626c653a2070617573656400000000000000000000000000000000600082015250565b7f45524332303a206d696e7420746f20746865207a65726f206164647265737300600082015250565b61206480620009056000396000f3fe608060405234801561001057600080fd5b50600436106101215760003560e01c806370a08231116100ad57806395d89b411161007157806395d89b41146102d2578063a457c2d7146102f0578063a9059cbb14610320578063dd62ed3e14610350578063f2fde38b1461038057610121565b806370a0823114610254578063715018a61461028457806379cc67901461028e5780638456cb59146102aa5780638da5cb5b146102b457610121565b8063313ce567116100f4578063313ce567146101c257806339509351146101e05780633f4ba83a1461021057806342966c681461021a5780635c975abb1461023657610121565b806306fdde0314610126578063095ea7b31461014457806318160ddd1461017457806323b872dd14610192575b600080fd5b61012e61039c565b60405161013b9190611839565b60405180910390f35b61015e6004803603810190610159919061153f565b61042e565b60405161016b919061181e565b60405180910390f35b61017c61044c565b6040516101899190611a1b565b60405180910390f35b6101ac60048036038101906101a791906114f0565b610456565b6040516101b9919061181e565b60405180910390f35b6101ca61054e565b6040516101d79190611a36565b60405180910390f35b6101fa60048036038101906101f5919061153f565b610557565b604051610207919061181e565b60405180910390f35b610218610603565b005b610234600480360381019061022f919061157b565b610689565b005b61023e61069d565b60405161024b919061181e565b60405180910390f35b61026e6004803603810190610269919061148b565b6106b4565b60405161027b9190611a1b565b60405180910390f35b61028c6106fc565b005b6102a860048036038101906102a3919061153f565b610784565b005b6102b26107ff565b005b6102bc610885565b6040516102c99190611803565b60405180910390f35b6102da6108af565b6040516102e79190611839565b60405180910390f35b61030a6004803603810190610305919061153f565b610941565b604051610317919061181e565b60405180910390f35b61033a6004803603810190610335919061153f565b610a2c565b604051610347919061181e565b60405180910390f35b61036a600480360381019061036591906114b4565b610a4a565b6040516103779190611a1b565b60405180910390f35b61039a6004803603810190610395919061148b565b610ad1565b005b6060600380546103ab90611b7f565b80601f01602080910402602001604051908101604052809291908181526020018280546103d790611b7f565b80156104245780601f106103f957610100808354040283529160200191610424565b820191906000526020600020905b81548152906001019060200180831161040757829003601f168201915b5050505050905090565b600061044261043b610bce565b8484610bd6565b6001905092915050565b6000600254905090565b6000610463848484610da1565b6000600160008673ffffffffffffffffffffffffffffffffffffffff1673ffffffffffffffffffffffffffffffffffffffff16815260200190815260200160002060006104ae610bce565b73ffffffffffffffffffffffffffffffffffffffff1673ffffffffffffffffffffffffffffffffffffffff1681526020019081526020016000205490508281101561052e576040517f08c379a00000000000000000000000000000000000000000000000000000000081526004016105259061193b565b60405180910390fd5b6105428561053a610bce565b858403610bd6565b60019150509392505050565b60006004905090565b60006105f9610564610bce565b848460016000610572610bce565b73ffffffffffffffffffffffffffffffffffffffff1673ffffffffffffffffffffffffffffffffffffffff16815260200190815260200160002060008873ffffffffffffffffffffffffffffffffffffffff1673ffffffffffffffffffffffffffffffffffffffff168152602001908152602001600020546105f49190611a6d565b610bd6565b6001905092915050565b61060b610bce565b73ffffffffffffffffffffffffffffffffffffffff16610629610885565b73ffffffffffffffffffffffffffffffffffffffff161461067f576040517f08c379a00000000000000000000000000000000000000000000000000000000081526004016106769061195b565b60405180910390fd5b610687611022565b565b61069a610694610bce565b826110c4565b50565b6000600560009054906101000a900460ff16905090565b60008060008373ffffffffffffffffffffffffffffffffffffffff1673ffffffffffffffffffffffffffffffffffffffff168152602001908152602001600020549050919050565b610704610bce565b73ffffffffffffffffffffffffffffffffffffffff16610722610885565b73ffffffffffffffffffffffffffffffffffffffff1614610778576040517f08c379a000000000000000000000000000000000000000000000000000000000815260040161076f9061195b565b60405180910390fd5b610782600061129b565b565b600061079783610792610bce565b610a4a565b9050818110156107dc576040517f08c379a00000000000000000000000000000000000000000000000000000000081526004016107d39061197b565b60405180910390fd5b6107f0836107e8610bce565b848403610bd6565b6107fa83836110c4565b505050565b610807610bce565b73ffffffffffffffffffffffffffffffffffffffff16610825610885565b73ffffffffffffffffffffffffffffffffffffffff161461087b576040517f08c379a00000000000000000000000000000000000000000000000000000000081526004016108729061195b565b60405180910390fd5b610883611361565b565b6000600560019054906101000a900473ffffffffffffffffffffffffffffffffffffffff16905090565b6060600480546108be90611b7f565b80601f01602080910402602001604051908101604052809291908181526020018280546108ea90611b7f565b80156109375780601f1061090c57610100808354040283529160200191610937565b820191906000526020600020905b81548152906001019060200180831161091a57829003601f168201915b5050505050905090565b60008060016000610950610bce565b73ffffffffffffffffffffffffffffffffffffffff1673ffffffffffffffffffffffffffffffffffffffff16815260200190815260200160002060008573ffffffffffffffffffffffffffffffffffffffff1673ffffffffffffffffffffffffffffffffffffffff16815260200190815260200160002054905082811015610a0d576040517f08c379a0000000000000000000000000000000000000000000000000000000008152600401610a04906119fb565b60405180910390fd5b610a21610a18610bce565b85858403610bd6565b600191505092915050565b6000610a40610a39610bce565b8484610da1565b6001905092915050565b6000600160008473ffffffffffffffffffffffffffffffffffffffff1673ffffffffffffffffffffffffffffffffffffffff16815260200190815260200160002060008373ffffffffffffffffffffffffffffffffffffffff1673ffffffffffffffffffffffffffffffffffffffff16815260200190815260200160002054905092915050565b610ad9610bce565b73ffffffffffffffffffffffffffffffffffffffff16610af7610885565b73ffffffffffffffffffffffffffffffffffffffff1614610b4d576040517f08c379a0000000000000000000000000000000000000000000000000000000008152600401610b449061195b565b60405180910390fd5b600073ffffffffffffffffffffffffffffffffffffffff168173ffffffffffffffffffffffffffffffffffffffff161415610bbd576040517f08c379a0000000000000000000000000000000000000000000000000000000008152600401610bb4906118bb565b60405180910390fd5b610bc68161129b565b50565b505050565b600033905090565b600073ffffffffffffffffffffffffffffffffffffffff168373ffffffffffffffffffffffffffffffffffffffff161415610c46576040517f08c379a0000000000000000000000000000000000000000000000000000000008152600401610c3d906119db565b60405180910390fd5b600073ffffffffffffffffffffffffffffffffffffffff168273ffffffffffffffffffffffffffffffffffffffff161415610cb6576040517f08c379a0000000000000000000000000000000000000000000000000000000008152600401610cad906118db565b60405180910390fd5b80600160008573ffffffffffffffffffffffffffffffffffffffff1673ffffffffffffffffffffffffffffffffffffffff16815260200190815260200160002060008473ffffffffffffffffffffffffffffffffffffffff1673ffffffffffffffffffffffffffffffffffffffff168152602001908152602001600020819055508173ffffffffffffffffffffffffffffffffffffffff168373ffffffffffffffffffffffffffffffffffffffff167f8c5be1e5ebec7d5bd14f71427d1e84f3dd0314c0f7b2291e5b200ac8c7c3b92583604051610d949190611a1b565b60405180910390a3505050565b600073ffffffffffffffffffffffffffffffffffffffff168373ffffffffffffffffffffffffffffffffffffffff161415610e11576040517f08c379a0000000000000000000000000000000000000000000000000000000008152600401610e08906119bb565b60405180910390fd5b600073ffffffffffffffffffffffffffffffffffffffff168273ffffffffffffffffffffffffffffffffffffffff161415610e81576040517f08c379a0000000000000000000000000000000000000000000000000000000008152600401610e789061185b565b60405180910390fd5b610e8c838383611404565b60008060008573ffffffffffffffffffffffffffffffffffffffff1673ffffffffffffffffffffffffffffffffffffffff16815260200190815260200160002054905081811015610f12576040517f08c379a0000000000000000000000000000000000000000000000000000000008152600401610f09906118fb565b60405180910390fd5b8181036000808673ffffffffffffffffffffffffffffffffffffffff1673ffffffffffffffffffffffffffffffffffffffff16815260200190815260200160002081905550816000808573ffffffffffffffffffffffffffffffffffffffff1673ffffffffffffffffffffffffffffffffffffffff1681526020019081526020016000206000828254610fa59190611a6d565b925050819055508273ffffffffffffffffffffffffffffffffffffffff168473ffffffffffffffffffffffffffffffffffffffff167fddf252ad1be2c89b69c2b068fc378daa952ba7f163c4a11628f55a4df523b3ef846040516110099190611a1b565b60405180910390a361101c84848461145c565b50505050565b61102a61069d565b611069576040517f08c379a00000000000000000000000000000000000000000000000000000000081526004016110609061187b565b60405180910390fd5b6000600560006101000a81548160ff0219169083151502179055507f5db9ee0a495bf2e6ff9c91a7834c1ba4fdd244a5e8aa4e537bd38aeae4b073aa6110ad610bce565b6040516110ba9190611803565b60405180910390a1565b600073ffffffffffffffffffffffffffffffffffffffff168273ffffffffffffffffffffffffffffffffffffffff161415611134576040517f08c379a000000000000000000000000000000000000000000000000000000000815260040161112b9061199b565b60405180910390fd5b61114082600083611404565b60008060008473ffffffffffffffffffffffffffffffffffffffff1673ffffffffffffffffffffffffffffffffffffffff168152602001908152602001600020549050818110156111c6576040517f08c379a00000000000000000000000000000000000000000000000000000000081526004016111bd9061189b565b60405180910390fd5b8181036000808573ffffffffffffffffffffffffffffffffffffffff1673ffffffffffffffffffffffffffffffffffffffff16815260200190815260200160002081905550816002600082825461121d9190611ac3565b92505081905550600073ffffffffffffffffffffffffffffffffffffffff168373ffffffffffffffffffffffffffffffffffffffff167fddf252ad1be2c89b69c2b068fc378daa952ba7f163c4a11628f55a4df523b3ef846040516112829190611a1b565b60405180910390a36112968360008461145c565b505050565b6000600560019054906101000a900473ffffffffffffffffffffffffffffffffffffffff16905081600560016101000a81548173ffffffffffffffffffffffffffffffffffffffff021916908373ffffffffffffffffffffffffffffffffffffffff1602179055508173ffffffffffffffffffffffffffffffffffffffff168173ffffffffffffffffffffffffffffffffffffffff167f8be0079c531659141344cd1fd0a4f28419497f9722a3daafe3b4186f6b6457e060405160405180910390a35050565b61136961069d565b156113a9576040517f08c379a00000000000000000000000000000000000000000000000000000000081526004016113a09061191b565b60405180910390fd5b6001600560006101000a81548160ff0219169083151502179055507f62e78cea01bee320cd4e420270b5ea74000d11b0c9f74754ebdbfc544b05a2586113ed610bce565b6040516113fa9190611803565b60405180910390a1565b61140c61069d565b1561144c576040517f08c379a00000000000000000000000000000000000000000000000000000000081526004016114439061191b565b60405180910390fd5b611457838383610bc9565b505050565b505050565b60008135905061147081612000565b92915050565b60008135905061148581612017565b92915050565b60006020828403121561149d57600080fd5b60006114ab84828501611461565b91505092915050565b600080604083850312156114c757600080fd5b60006114d585828601611461565b92505060206114e685828601611461565b9150509250929050565b60008060006060848603121561150557600080fd5b600061151386828701611461565b935050602061152486828701611461565b925050604061153586828701611476565b9150509250925092565b6000806040838503121561155257600080fd5b600061156085828601611461565b925050602061157185828601611476565b9150509250929050565b60006020828403121561158d57600080fd5b600061159b84828501611476565b91505092915050565b6115ad81611af7565b82525050565b6115bc81611b09565b82525050565b60006115cd82611a51565b6115d78185611a5c565b93506115e7818560208601611b4c565b6115f081611c0f565b840191505092915050565b6000611608602383611a5c565b915061161382611c20565b604082019050919050565b600061162b601483611a5c565b915061163682611c6f565b602082019050919050565b600061164e602283611a5c565b915061165982611c98565b604082019050919050565b6000611671602683611a5c565b915061167c82611ce7565b604082019050919050565b6000611694602283611a5c565b915061169f82611d36565b604082019050919050565b60006116b7602683611a5c565b91506116c282611d85565b604082019050919050565b60006116da601083611a5c565b91506116e582611dd4565b602082019050919050565b60006116fd602883611a5c565b915061170882611dfd565b604082019050919050565b6000611720602083611a5c565b915061172b82611e4c565b602082019050919050565b6000611743602483611a5c565b915061174e82611e75565b604082019050919050565b6000611766602183611a5c565b915061177182611ec4565b604082019050919050565b6000611789602583611a5c565b915061179482611f13565b604082019050919050565b60006117ac602483611a5c565b91506117b782611f62565b604082019050919050565b60006117cf602583611a5c565b91506117da82611fb1565b604082019050919050565b6117ee81611b35565b82525050565b6117fd81611b3f565b82525050565b600060208201905061181860008301846115a4565b92915050565b600060208201905061183360008301846115b3565b92915050565b6000602082019050818103600083015261185381846115c2565b905092915050565b60006020820190508181036000830152611874816115fb565b9050919050565b600060208201905081810360008301526118948161161e565b9050919050565b600060208201905081810360008301526118b481611641565b9050919050565b600060208201905081810360008301526118d481611664565b9050919050565b600060208201905081810360008301526118f481611687565b9050919050565b60006020820190508181036000830152611914816116aa565b9050919050565b60006020820190508181036000830152611934816116cd565b9050919050565b60006020820190508181036000830152611954816116f0565b9050919050565b6000602082019050818103600083015261197481611713565b9050919050565b6000602082019050818103600083015261199481611736565b9050919050565b600060208201905081810360008301526119b481611759565b9050919050565b600060208201905081810360008301526119d48161177c565b9050919050565b600060208201905081810360008301526119f48161179f565b9050919050565b60006020820190508181036000830152611a14816117c2565b9050919050565b6000602082019050611a3060008301846117e5565b92915050565b6000602082019050611a4b60008301846117f4565b92915050565b600081519050919050565b600082825260208201905092915050565b6000611a7882611b35565b9150611a8383611b35565b9250827fffffffffffffffffffffffffffffffffffffffffffffffffffffffffffffffff03821115611ab857611ab7611bb1565b5b828201905092915050565b6000611ace82611b35565b9150611ad983611b35565b925082821015611aec57611aeb611bb1565b5b828203905092915050565b6000611b0282611b15565b9050919050565b60008115159050919050565b600073ffffffffffffffffffffffffffffffffffffffff82169050919050565b6000819050919050565b600060ff82169050919050565b60005b83811015611b6a578082015181840152602081019050611b4f565b83811115611b79576000848401525b50505050565b60006002820490506001821680611b9757607f821691505b60208210811415611bab57611baa611be0565b5b50919050565b7f4e487b7100000000000000000000000000000000000000000000000000000000600052601160045260246000fd5b7f4e487b7100000000000000000000000000000000000000000000000000000000600052602260045260246000fd5b6000601f19601f8301169050919050565b7f45524332303a207472616e7366657220746f20746865207a65726f206164647260008201527f6573730000000000000000000000000000000000000000000000000000000000602082015250565b7f5061757361626c653a206e6f7420706175736564000000000000000000000000600082015250565b7f45524332303a206275726e20616d6f756e7420657863656564732062616c616e60008201527f6365000000000000000000000000000000000000000000000000000000000000602082015250565b7f4f776e61626c653a206e6577206f776e657220697320746865207a65726f206160008201527f6464726573730000000000000000000000000000000000000000000000000000602082015250565b7f45524332303a20617070726f766520746f20746865207a65726f20616464726560008201527f7373000000000000000000000000000000000000000000000000000000000000602082015250565b7f45524332303a207472616e7366657220616d6f756e742065786365656473206260008201527f616c616e63650000000000000000000000000000000000000000000000000000602082015250565b7f5061757361626c653a2070617573656400000000000000000000000000000000600082015250565b7f45524332303a207472616e7366657220616d6f756e742065786365656473206160008201527f6c6c6f77616e6365000000000000000000000000000000000000000000000000602082015250565b7f4f776e61626c653a2063616c6c6572206973206e6f7420746865206f776e6572600082015250565b7f45524332303a206275726e20616d6f756e74206578636565647320616c6c6f7760008201527f616e636500000000000000000000000000000000000000000000000000000000602082015250565b7f45524332303a206275726e2066726f6d20746865207a65726f2061646472657360008201527f7300000000000000000000000000000000000000000000000000000000000000602082015250565b7f45524332303a207472616e736665722066726f6d20746865207a65726f20616460008201527f6472657373000000000000000000000000000000000000000000000000000000602082015250565b7f45524332303a20617070726f76652066726f6d20746865207a65726f2061646460008201527f7265737300000000000000000000000000000000000000000000000000000000602082015250565b7f45524332303a2064656372656173656420616c6c6f77616e63652062656c6f7760008201527f207a65726f000000000000000000000000000000000000000000000000000000602082015250565b61200981611af7565b811461201457600080fd5b50565b61202081611b35565b811461202b57600080fd5b5056fea2646970667358221220a2e54061d315bd82abb7014fb602fbb5cb7f972219307b62c76abcc70925299964736f6c63430008010033",
					"opcodes": "PUSH1 0x80 PUSH1 0x40 MSTORE CALLVALUE DUP1 ISZERO PUSH3 0x11 JUMPI PUSH1 0x0 DUP1 REVERT JUMPDEST POP PUSH1 0x40 MLOAD DUP1 PUSH1 0x40 ADD PUSH1 0x40 MSTORE DUP1 PUSH1 0x6 DUP2 MSTORE PUSH1 0x20 ADD PUSH32 0x4B4550454E470000000000000000000000000000000000000000000000000000 DUP2 MSTORE POP PUSH1 0x40 MLOAD DUP1 PUSH1 0x40 ADD PUSH1 0x40 MSTORE DUP1 PUSH1 0x3 DUP2 MSTORE PUSH1 0x20 ADD PUSH32 0x4B50470000000000000000000000000000000000000000000000000000000000 DUP2 MSTORE POP DUP2 PUSH1 0x3 SWAP1 DUP1 MLOAD SWAP1 PUSH1 0x20 ADD SWAP1 PUSH3 0x96 SWAP3 SWAP2 SWAP1 PUSH3 0x414 JUMP JUMPDEST POP DUP1 PUSH1 0x4 SWAP1 DUP1 MLOAD SWAP1 PUSH1 0x20 ADD SWAP1 PUSH3 0xAF SWAP3 SWAP2 SWAP1 PUSH3 0x414 JUMP JUMPDEST POP POP POP PUSH1 0x0 PUSH1 0x5 PUSH1 0x0 PUSH2 0x100 EXP DUP2 SLOAD DUP2 PUSH1 0xFF MUL NOT AND SWAP1 DUP4 ISZERO ISZERO MUL OR SWAP1 SSTORE POP PUSH3 0xED PUSH3 0xE1 PUSH3 0x133 PUSH1 0x20 SHL PUSH1 0x20 SHR JUMP JUMPDEST PUSH3 0x13B PUSH1 0x20 SHL PUSH1 0x20 SHR JUMP JUMPDEST PUSH3 0x12D CALLER PUSH3 0x102 PUSH3 0x201 PUSH1 0x20 SHL PUSH1 0x20 SHR JUMP JUMPDEST PUSH1 0xA PUSH3 0x110 SWAP2 SWAP1 PUSH3 0x64D JUMP JUMPDEST PUSH4 0x3B9ACA00 PUSH3 0x121 SWAP2 SWAP1 PUSH3 0x78A JUMP JUMPDEST PUSH3 0x20A PUSH1 0x20 SHL PUSH1 0x20 SHR JUMP JUMPDEST PUSH3 0x8F5 JUMP JUMPDEST PUSH1 0x0 CALLER SWAP1 POP SWAP1 JUMP JUMPDEST PUSH1 0x0 PUSH1 0x5 PUSH1 0x1 SWAP1 SLOAD SWAP1 PUSH2 0x100 EXP SWAP1 DIV PUSH20 0xFFFFFFFFFFFFFFFFFFFFFFFFFFFFFFFFFFFFFFFF AND SWAP1 POP DUP2 PUSH1 0x5 PUSH1 0x1 PUSH2 0x100 EXP DUP2 SLOAD DUP2 PUSH20 0xFFFFFFFFFFFFFFFFFFFFFFFFFFFFFFFFFFFFFFFF MUL NOT AND SWAP1 DUP4 PUSH20 0xFFFFFFFFFFFFFFFFFFFFFFFFFFFFFFFFFFFFFFFF AND MUL OR SWAP1 SSTORE POP DUP2 PUSH20 0xFFFFFFFFFFFFFFFFFFFFFFFFFFFFFFFFFFFFFFFF AND DUP2 PUSH20 0xFFFFFFFFFFFFFFFFFFFFFFFFFFFFFFFFFFFFFFFF AND PUSH32 0x8BE0079C531659141344CD1FD0A4F28419497F9722A3DAAFE3B4186F6B6457E0 PUSH1 0x40 MLOAD PUSH1 0x40 MLOAD DUP1 SWAP2 SUB SWAP1 LOG3 POP POP JUMP JUMPDEST PUSH1 0x0 PUSH1 0x4 SWAP1 POP SWAP1 JUMP JUMPDEST PUSH1 0x0 PUSH20 0xFFFFFFFFFFFFFFFFFFFFFFFFFFFFFFFFFFFFFFFF AND DUP3 PUSH20 0xFFFFFFFFFFFFFFFFFFFFFFFFFFFFFFFFFFFFFFFF AND EQ ISZERO PUSH3 0x27D JUMPI PUSH1 0x40 MLOAD PUSH32 0x8C379A000000000000000000000000000000000000000000000000000000000 DUP2 MSTORE PUSH1 0x4 ADD PUSH3 0x274 SWAP1 PUSH3 0x545 JUMP JUMPDEST PUSH1 0x40 MLOAD DUP1 SWAP2 SUB SWAP1 REVERT JUMPDEST PUSH3 0x291 PUSH1 0x0 DUP4 DUP4 PUSH3 0x383 PUSH1 0x20 SHL PUSH1 0x20 SHR JUMP JUMPDEST DUP1 PUSH1 0x2 PUSH1 0x0 DUP3 DUP3 SLOAD PUSH3 0x2A5 SWAP2 SWAP1 PUSH3 0x595 JUMP JUMPDEST SWAP3 POP POP DUP2 SWAP1 SSTORE POP DUP1 PUSH1 0x0 DUP1 DUP5 PUSH20 0xFFFFFFFFFFFFFFFFFFFFFFFFFFFFFFFFFFFFFFFF AND PUSH20 0xFFFFFFFFFFFFFFFFFFFFFFFFFFFFFFFFFFFFFFFF AND DUP2 MSTORE PUSH1 0x20 ADD SWAP1 DUP2 MSTORE PUSH1 0x20 ADD PUSH1 0x0 KECCAK256 PUSH1 0x0 DUP3 DUP3 SLOAD PUSH3 0x2FC SWAP2 SWAP1 PUSH3 0x595 JUMP JUMPDEST SWAP3 POP POP DUP2 SWAP1 SSTORE POP DUP2 PUSH20 0xFFFFFFFFFFFFFFFFFFFFFFFFFFFFFFFFFFFFFFFF AND PUSH1 0x0 PUSH20 0xFFFFFFFFFFFFFFFFFFFFFFFFFFFFFFFFFFFFFFFF AND PUSH32 0xDDF252AD1BE2C89B69C2B068FC378DAA952BA7F163C4A11628F55A4DF523B3EF DUP4 PUSH1 0x40 MLOAD PUSH3 0x363 SWAP2 SWAP1 PUSH3 0x567 JUMP JUMPDEST PUSH1 0x40 MLOAD DUP1 SWAP2 SUB SWAP1 LOG3 PUSH3 0x37F PUSH1 0x0 DUP4 DUP4 PUSH3 0x3F3 PUSH1 0x20 SHL PUSH1 0x20 SHR JUMP JUMPDEST POP POP JUMP JUMPDEST PUSH3 0x393 PUSH3 0x3F8 PUSH1 0x20 SHL PUSH1 0x20 SHR JUMP JUMPDEST ISZERO PUSH3 0x3D6 JUMPI PUSH1 0x40 MLOAD PUSH32 0x8C379A000000000000000000000000000000000000000000000000000000000 DUP2 MSTORE PUSH1 0x4 ADD PUSH3 0x3CD SWAP1 PUSH3 0x523 JUMP JUMPDEST PUSH1 0x40 MLOAD DUP1 SWAP2 SUB SWAP1 REVERT JUMPDEST PUSH3 0x3EE DUP4 DUP4 DUP4 PUSH3 0x40F PUSH1 0x20 SHL PUSH3 0xBC9 OR PUSH1 0x20 SHR JUMP JUMPDEST POP POP POP JUMP JUMPDEST POP POP POP JUMP JUMPDEST PUSH1 0x0 PUSH1 0x5 PUSH1 0x0 SWAP1 SLOAD SWAP1 PUSH2 0x100 EXP SWAP1 DIV PUSH1 0xFF AND SWAP1 POP SWAP1 JUMP JUMPDEST POP POP POP JUMP JUMPDEST DUP3 DUP1 SLOAD PUSH3 0x422 SWAP1 PUSH3 0x802 JUMP JUMPDEST SWAP1 PUSH1 0x0 MSTORE PUSH1 0x20 PUSH1 0x0 KECCAK256 SWAP1 PUSH1 0x1F ADD PUSH1 0x20 SWAP1 DIV DUP2 ADD SWAP3 DUP3 PUSH3 0x446 JUMPI PUSH1 0x0 DUP6 SSTORE PUSH3 0x492 JUMP JUMPDEST DUP3 PUSH1 0x1F LT PUSH3 0x461 JUMPI DUP1 MLOAD PUSH1 0xFF NOT AND DUP4 DUP1 ADD OR DUP6 SSTORE PUSH3 0x492 JUMP JUMPDEST DUP3 DUP1 ADD PUSH1 0x1 ADD DUP6 SSTORE DUP3 ISZERO PUSH3 0x492 JUMPI SWAP2 DUP3 ADD JUMPDEST DUP3 DUP2 GT ISZERO PUSH3 0x491 JUMPI DUP3 MLOAD DUP3 SSTORE SWAP2 PUSH1 0x20 ADD SWAP2 SWAP1 PUSH1 0x1 ADD SWAP1 PUSH3 0x474 JUMP JUMPDEST JUMPDEST POP SWAP1 POP PUSH3 0x4A1 SWAP2 SWAP1 PUSH3 0x4A5 JUMP JUMPDEST POP SWAP1 JUMP JUMPDEST JUMPDEST DUP1 DUP3 GT ISZERO PUSH3 0x4C0 JUMPI PUSH1 0x0 DUP2 PUSH1 0x0 SWAP1 SSTORE POP PUSH1 0x1 ADD PUSH3 0x4A6 JUMP JUMPDEST POP SWAP1 JUMP JUMPDEST PUSH1 0x0 PUSH3 0x4D3 PUSH1 0x10 DUP4 PUSH3 0x584 JUMP JUMPDEST SWAP2 POP PUSH3 0x4E0 DUP3 PUSH3 0x8A3 JUMP JUMPDEST PUSH1 0x20 DUP3 ADD SWAP1 POP SWAP2 SWAP1 POP JUMP JUMPDEST PUSH1 0x0 PUSH3 0x4FA PUSH1 0x1F DUP4 PUSH3 0x584 JUMP JUMPDEST SWAP2 POP PUSH3 0x507 DUP3 PUSH3 0x8CC JUMP JUMPDEST PUSH1 0x20 DUP3 ADD SWAP1 POP SWAP2 SWAP1 POP JUMP JUMPDEST PUSH3 0x51D DUP2 PUSH3 0x7EB JUMP JUMPDEST DUP3 MSTORE POP POP JUMP JUMPDEST PUSH1 0x0 PUSH1 0x20 DUP3 ADD SWAP1 POP DUP2 DUP2 SUB PUSH1 0x0 DUP4 ADD MSTORE PUSH3 0x53E DUP2 PUSH3 0x4C4 JUMP JUMPDEST SWAP1 POP SWAP2 SWAP1 POP JUMP JUMPDEST PUSH1 0x0 PUSH1 0x20 DUP3 ADD SWAP1 POP DUP2 DUP2 SUB PUSH1 0x0 DUP4 ADD MSTORE PUSH3 0x560 DUP2 PUSH3 0x4EB JUMP JUMPDEST SWAP1 POP SWAP2 SWAP1 POP JUMP JUMPDEST PUSH1 0x0 PUSH1 0x20 DUP3 ADD SWAP1 POP PUSH3 0x57E PUSH1 0x0 DUP4 ADD DUP5 PUSH3 0x512 JUMP JUMPDEST SWAP3 SWAP2 POP POP JUMP JUMPDEST PUSH1 0x0 DUP3 DUP3 MSTORE PUSH1 0x20 DUP3 ADD SWAP1 POP SWAP3 SWAP2 POP POP JUMP JUMPDEST PUSH1 0x0 PUSH3 0x5A2 DUP3 PUSH3 0x7EB JUMP JUMPDEST SWAP2 POP PUSH3 0x5AF DUP4 PUSH3 0x7EB JUMP JUMPDEST SWAP3 POP DUP3 PUSH32 0xFFFFFFFFFFFFFFFFFFFFFFFFFFFFFFFFFFFFFFFFFFFFFFFFFFFFFFFFFFFFFFFF SUB DUP3 GT ISZERO PUSH3 0x5E7 JUMPI PUSH3 0x5E6 PUSH3 0x838 JUMP JUMPDEST JUMPDEST DUP3 DUP3 ADD SWAP1 POP SWAP3 SWAP2 POP POP JUMP JUMPDEST PUSH1 0x0 DUP1 DUP3 SWAP2 POP DUP4 SWAP1 POP JUMPDEST PUSH1 0x1 DUP6 GT ISZERO PUSH3 0x644 JUMPI DUP1 DUP7 DIV DUP2 GT ISZERO PUSH3 0x61C JUMPI PUSH3 0x61B PUSH3 0x838 JUMP JUMPDEST JUMPDEST PUSH1 0x1 DUP6 AND ISZERO PUSH3 0x62C JUMPI DUP1 DUP3 MUL SWAP2 POP JUMPDEST DUP1 DUP2 MUL SWAP1 POP PUSH3 0x63C DUP6 PUSH3 0x896 JUMP JUMPDEST SWAP5 POP PUSH3 0x5FC JUMP JUMPDEST SWAP5 POP SWAP5 SWAP3 POP POP POP JUMP JUMPDEST PUSH1 0x0 PUSH3 0x65A DUP3 PUSH3 0x7EB JUMP JUMPDEST SWAP2 POP PUSH3 0x667 DUP4 PUSH3 0x7F5 JUMP JUMPDEST SWAP3 POP PUSH3 0x696 PUSH32 0xFFFFFFFFFFFFFFFFFFFFFFFFFFFFFFFFFFFFFFFFFFFFFFFFFFFFFFFFFFFFFFFF DUP5 DUP5 PUSH3 0x69E JUMP JUMPDEST SWAP1 POP SWAP3 SWAP2 POP POP JUMP JUMPDEST PUSH1 0x0 DUP3 PUSH3 0x6B0 JUMPI PUSH1 0x1 SWAP1 POP PUSH3 0x783 JUMP JUMPDEST DUP2 PUSH3 0x6C0 JUMPI PUSH1 0x0 SWAP1 POP PUSH3 0x783 JUMP JUMPDEST DUP2 PUSH1 0x1 DUP2 EQ PUSH3 0x6D9 JUMPI PUSH1 0x2 DUP2 EQ PUSH3 0x6E4 JUMPI PUSH3 0x71A JUMP JUMPDEST PUSH1 0x1 SWAP2 POP POP PUSH3 0x783 JUMP JUMPDEST PUSH1 0xFF DUP5 GT ISZERO PUSH3 0x6F9 JUMPI PUSH3 0x6F8 PUSH3 0x838 JUMP JUMPDEST JUMPDEST DUP4 PUSH1 0x2 EXP SWAP2 POP DUP5 DUP3 GT ISZERO PUSH3 0x713 JUMPI PUSH3 0x712 PUSH3 0x838 JUMP JUMPDEST JUMPDEST POP PUSH3 0x783 JUMP JUMPDEST POP PUSH1 0x20 DUP4 LT PUSH2 0x133 DUP4 LT AND PUSH1 0x4E DUP5 LT PUSH1 0xB DUP5 LT AND OR ISZERO PUSH3 0x754 JUMPI DUP3 DUP3 EXP SWAP1 POP DUP4 DUP2 GT ISZERO PUSH3 0x74E JUMPI PUSH3 0x74D PUSH3 0x838 JUMP JUMPDEST JUMPDEST PUSH3 0x783 JUMP JUMPDEST PUSH3 0x763 DUP5 DUP5 DUP5 PUSH1 0x1 PUSH3 0x5F2 JUMP JUMPDEST SWAP3 POP SWAP1 POP DUP2 DUP5 DIV DUP2 GT ISZERO PUSH3 0x77D JUMPI PUSH3 0x77C PUSH3 0x838 JUMP JUMPDEST JUMPDEST DUP2 DUP2 MUL SWAP1 POP JUMPDEST SWAP4 SWAP3 POP POP POP JUMP JUMPDEST PUSH1 0x0 PUSH3 0x797 DUP3 PUSH3 0x7EB JUMP JUMPDEST SWAP2 POP PUSH3 0x7A4 DUP4 PUSH3 0x7EB JUMP JUMPDEST SWAP3 POP DUP2 PUSH32 0xFFFFFFFFFFFFFFFFFFFFFFFFFFFFFFFFFFFFFFFFFFFFFFFFFFFFFFFFFFFFFFFF DIV DUP4 GT DUP3 ISZERO ISZERO AND ISZERO PUSH3 0x7E0 JUMPI PUSH3 0x7DF PUSH3 0x838 JUMP JUMPDEST JUMPDEST DUP3 DUP3 MUL SWAP1 POP SWAP3 SWAP2 POP POP JUMP JUMPDEST PUSH1 0x0 DUP2 SWAP1 POP SWAP2 SWAP1 POP JUMP JUMPDEST PUSH1 0x0 PUSH1 0xFF DUP3 AND SWAP1 POP SWAP2 SWAP1 POP JUMP JUMPDEST PUSH1 0x0 PUSH1 0x2 DUP3 DIV SWAP1 POP PUSH1 0x1 DUP3 AND DUP1 PUSH3 0x81B JUMPI PUSH1 0x7F DUP3 AND SWAP2 POP JUMPDEST PUSH1 0x20 DUP3 LT DUP2 EQ ISZERO PUSH3 0x832 JUMPI PUSH3 0x831 PUSH3 0x867 JUMP JUMPDEST JUMPDEST POP SWAP2 SWAP1 POP JUMP JUMPDEST PUSH32 0x4E487B7100000000000000000000000000000000000000000000000000000000 PUSH1 0x0 MSTORE PUSH1 0x11 PUSH1 0x4 MSTORE PUSH1 0x24 PUSH1 0x0 REVERT JUMPDEST PUSH32 0x4E487B7100000000000000000000000000000000000000000000000000000000 PUSH1 0x0 MSTORE PUSH1 0x22 PUSH1 0x4 MSTORE PUSH1 0x24 PUSH1 0x0 REVERT JUMPDEST PUSH1 0x0 DUP2 PUSH1 0x1 SHR SWAP1 POP SWAP2 SWAP1 POP JUMP JUMPDEST PUSH32 0x5061757361626C653A2070617573656400000000000000000000000000000000 PUSH1 0x0 DUP3 ADD MSTORE POP JUMP JUMPDEST PUSH32 0x45524332303A206D696E7420746F20746865207A65726F206164647265737300 PUSH1 0x0 DUP3 ADD MSTORE POP JUMP JUMPDEST PUSH2 0x2064 DUP1 PUSH3 0x905 PUSH1 0x0 CODECOPY PUSH1 0x0 RETURN INVALID PUSH1 0x80 PUSH1 0x40 MSTORE CALLVALUE DUP1 ISZERO PUSH2 0x10 JUMPI PUSH1 0x0 DUP1 REVERT JUMPDEST POP PUSH1 0x4 CALLDATASIZE LT PUSH2 0x121 JUMPI PUSH1 0x0 CALLDATALOAD PUSH1 0xE0 SHR DUP1 PUSH4 0x70A08231 GT PUSH2 0xAD JUMPI DUP1 PUSH4 0x95D89B41 GT PUSH2 0x71 JUMPI DUP1 PUSH4 0x95D89B41 EQ PUSH2 0x2D2 JUMPI DUP1 PUSH4 0xA457C2D7 EQ PUSH2 0x2F0 JUMPI DUP1 PUSH4 0xA9059CBB EQ PUSH2 0x320 JUMPI DUP1 PUSH4 0xDD62ED3E EQ PUSH2 0x350 JUMPI DUP1 PUSH4 0xF2FDE38B EQ PUSH2 0x380 JUMPI PUSH2 0x121 JUMP JUMPDEST DUP1 PUSH4 0x70A08231 EQ PUSH2 0x254 JUMPI DUP1 PUSH4 0x715018A6 EQ PUSH2 0x284 JUMPI DUP1 PUSH4 0x79CC6790 EQ PUSH2 0x28E JUMPI DUP1 PUSH4 0x8456CB59 EQ PUSH2 0x2AA JUMPI DUP1 PUSH4 0x8DA5CB5B EQ PUSH2 0x2B4 JUMPI PUSH2 0x121 JUMP JUMPDEST DUP1 PUSH4 0x313CE567 GT PUSH2 0xF4 JUMPI DUP1 PUSH4 0x313CE567 EQ PUSH2 0x1C2 JUMPI DUP1 PUSH4 0x39509351 EQ PUSH2 0x1E0 JUMPI DUP1 PUSH4 0x3F4BA83A EQ PUSH2 0x210 JUMPI DUP1 PUSH4 0x42966C68 EQ PUSH2 0x21A JUMPI DUP1 PUSH4 0x5C975ABB EQ PUSH2 0x236 JUMPI PUSH2 0x121 JUMP JUMPDEST DUP1 PUSH4 0x6FDDE03 EQ PUSH2 0x126 JUMPI DUP1 PUSH4 0x95EA7B3 EQ PUSH2 0x144 JUMPI DUP1 PUSH4 0x18160DDD EQ PUSH2 0x174 JUMPI DUP1 PUSH4 0x23B872DD EQ PUSH2 0x192 JUMPI JUMPDEST PUSH1 0x0 DUP1 REVERT JUMPDEST PUSH2 0x12E PUSH2 0x39C JUMP JUMPDEST PUSH1 0x40 MLOAD PUSH2 0x13B SWAP2 SWAP1 PUSH2 0x1839 JUMP JUMPDEST PUSH1 0x40 MLOAD DUP1 SWAP2 SUB SWAP1 RETURN JUMPDEST PUSH2 0x15E PUSH1 0x4 DUP1 CALLDATASIZE SUB DUP2 ADD SWAP1 PUSH2 0x159 SWAP2 SWAP1 PUSH2 0x153F JUMP JUMPDEST PUSH2 0x42E JUMP JUMPDEST PUSH1 0x40 MLOAD PUSH2 0x16B SWAP2 SWAP1 PUSH2 0x181E JUMP JUMPDEST PUSH1 0x40 MLOAD DUP1 SWAP2 SUB SWAP1 RETURN JUMPDEST PUSH2 0x17C PUSH2 0x44C JUMP JUMPDEST PUSH1 0x40 MLOAD PUSH2 0x189 SWAP2 SWAP1 PUSH2 0x1A1B JUMP JUMPDEST PUSH1 0x40 MLOAD DUP1 SWAP2 SUB SWAP1 RETURN JUMPDEST PUSH2 0x1AC PUSH1 0x4 DUP1 CALLDATASIZE SUB DUP2 ADD SWAP1 PUSH2 0x1A7 SWAP2 SWAP1 PUSH2 0x14F0 JUMP JUMPDEST PUSH2 0x456 JUMP JUMPDEST PUSH1 0x40 MLOAD PUSH2 0x1B9 SWAP2 SWAP1 PUSH2 0x181E JUMP JUMPDEST PUSH1 0x40 MLOAD DUP1 SWAP2 SUB SWAP1 RETURN JUMPDEST PUSH2 0x1CA PUSH2 0x54E JUMP JUMPDEST PUSH1 0x40 MLOAD PUSH2 0x1D7 SWAP2 SWAP1 PUSH2 0x1A36 JUMP JUMPDEST PUSH1 0x40 MLOAD DUP1 SWAP2 SUB SWAP1 RETURN JUMPDEST PUSH2 0x1FA PUSH1 0x4 DUP1 CALLDATASIZE SUB DUP2 ADD SWAP1 PUSH2 0x1F5 SWAP2 SWAP1 PUSH2 0x153F JUMP JUMPDEST PUSH2 0x557 JUMP JUMPDEST PUSH1 0x40 MLOAD PUSH2 0x207 SWAP2 SWAP1 PUSH2 0x181E JUMP JUMPDEST PUSH1 0x40 MLOAD DUP1 SWAP2 SUB SWAP1 RETURN JUMPDEST PUSH2 0x218 PUSH2 0x603 JUMP JUMPDEST STOP JUMPDEST PUSH2 0x234 PUSH1 0x4 DUP1 CALLDATASIZE SUB DUP2 ADD SWAP1 PUSH2 0x22F SWAP2 SWAP1 PUSH2 0x157B JUMP JUMPDEST PUSH2 0x689 JUMP JUMPDEST STOP JUMPDEST PUSH2 0x23E PUSH2 0x69D JUMP JUMPDEST PUSH1 0x40 MLOAD PUSH2 0x24B SWAP2 SWAP1 PUSH2 0x181E JUMP JUMPDEST PUSH1 0x40 MLOAD DUP1 SWAP2 SUB SWAP1 RETURN JUMPDEST PUSH2 0x26E PUSH1 0x4 DUP1 CALLDATASIZE SUB DUP2 ADD SWAP1 PUSH2 0x269 SWAP2 SWAP1 PUSH2 0x148B JUMP JUMPDEST PUSH2 0x6B4 JUMP JUMPDEST PUSH1 0x40 MLOAD PUSH2 0x27B SWAP2 SWAP1 PUSH2 0x1A1B JUMP JUMPDEST PUSH1 0x40 MLOAD DUP1 SWAP2 SUB SWAP1 RETURN JUMPDEST PUSH2 0x28C PUSH2 0x6FC JUMP JUMPDEST STOP JUMPDEST PUSH2 0x2A8 PUSH1 0x4 DUP1 CALLDATASIZE SUB DUP2 ADD SWAP1 PUSH2 0x2A3 SWAP2 SWAP1 PUSH2 0x153F JUMP JUMPDEST PUSH2 0x784 JUMP JUMPDEST STOP JUMPDEST PUSH2 0x2B2 PUSH2 0x7FF JUMP JUMPDEST STOP JUMPDEST PUSH2 0x2BC PUSH2 0x885 JUMP JUMPDEST PUSH1 0x40 MLOAD PUSH2 0x2C9 SWAP2 SWAP1 PUSH2 0x1803 JUMP JUMPDEST PUSH1 0x40 MLOAD DUP1 SWAP2 SUB SWAP1 RETURN JUMPDEST PUSH2 0x2DA PUSH2 0x8AF JUMP JUMPDEST PUSH1 0x40 MLOAD PUSH2 0x2E7 SWAP2 SWAP1 PUSH2 0x1839 JUMP JUMPDEST PUSH1 0x40 MLOAD DUP1 SWAP2 SUB SWAP1 RETURN JUMPDEST PUSH2 0x30A PUSH1 0x4 DUP1 CALLDATASIZE SUB DUP2 ADD SWAP1 PUSH2 0x305 SWAP2 SWAP1 PUSH2 0x153F JUMP JUMPDEST PUSH2 0x941 JUMP JUMPDEST PUSH1 0x40 MLOAD PUSH2 0x317 SWAP2 SWAP1 PUSH2 0x181E JUMP JUMPDEST PUSH1 0x40 MLOAD DUP1 SWAP2 SUB SWAP1 RETURN JUMPDEST PUSH2 0x33A PUSH1 0x4 DUP1 CALLDATASIZE SUB DUP2 ADD SWAP1 PUSH2 0x335 SWAP2 SWAP1 PUSH2 0x153F JUMP JUMPDEST PUSH2 0xA2C JUMP JUMPDEST PUSH1 0x40 MLOAD PUSH2 0x347 SWAP2 SWAP1 PUSH2 0x181E JUMP JUMPDEST PUSH1 0x40 MLOAD DUP1 SWAP2 SUB SWAP1 RETURN JUMPDEST PUSH2 0x36A PUSH1 0x4 DUP1 CALLDATASIZE SUB DUP2 ADD SWAP1 PUSH2 0x365 SWAP2 SWAP1 PUSH2 0x14B4 JUMP JUMPDEST PUSH2 0xA4A JUMP JUMPDEST PUSH1 0x40 MLOAD PUSH2 0x377 SWAP2 SWAP1 PUSH2 0x1A1B JUMP JUMPDEST PUSH1 0x40 MLOAD DUP1 SWAP2 SUB SWAP1 RETURN JUMPDEST PUSH2 0x39A PUSH1 0x4 DUP1 CALLDATASIZE SUB DUP2 ADD SWAP1 PUSH2 0x395 SWAP2 SWAP1 PUSH2 0x148B JUMP JUMPDEST PUSH2 0xAD1 JUMP JUMPDEST STOP JUMPDEST PUSH1 0x60 PUSH1 0x3 DUP1 SLOAD PUSH2 0x3AB SWAP1 PUSH2 0x1B7F JUMP JUMPDEST DUP1 PUSH1 0x1F ADD PUSH1 0x20 DUP1 SWAP2 DIV MUL PUSH1 0x20 ADD PUSH1 0x40 MLOAD SWAP1 DUP2 ADD PUSH1 0x40 MSTORE DUP1 SWAP3 SWAP2 SWAP1 DUP2 DUP2 MSTORE PUSH1 0x20 ADD DUP3 DUP1 SLOAD PUSH2 0x3D7 SWAP1 PUSH2 0x1B7F JUMP JUMPDEST DUP1 ISZERO PUSH2 0x424 JUMPI DUP1 PUSH1 0x1F LT PUSH2 0x3F9 JUMPI PUSH2 0x100 DUP1 DUP4 SLOAD DIV MUL DUP4 MSTORE SWAP2 PUSH1 0x20 ADD SWAP2 PUSH2 0x424 JUMP JUMPDEST DUP3 ADD SWAP2 SWAP1 PUSH1 0x0 MSTORE PUSH1 0x20 PUSH1 0x0 KECCAK256 SWAP1 JUMPDEST DUP2 SLOAD DUP2 MSTORE SWAP1 PUSH1 0x1 ADD SWAP1 PUSH1 0x20 ADD DUP1 DUP4 GT PUSH2 0x407 JUMPI DUP3 SWAP1 SUB PUSH1 0x1F AND DUP3 ADD SWAP2 JUMPDEST POP POP POP POP POP SWAP1 POP SWAP1 JUMP JUMPDEST PUSH1 0x0 PUSH2 0x442 PUSH2 0x43B PUSH2 0xBCE JUMP JUMPDEST DUP5 DUP5 PUSH2 0xBD6 JUMP JUMPDEST PUSH1 0x1 SWAP1 POP SWAP3 SWAP2 POP POP JUMP JUMPDEST PUSH1 0x0 PUSH1 0x2 SLOAD SWAP1 POP SWAP1 JUMP JUMPDEST PUSH1 0x0 PUSH2 0x463 DUP5 DUP5 DUP5 PUSH2 0xDA1 JUMP JUMPDEST PUSH1 0x0 PUSH1 0x1 PUSH1 0x0 DUP7 PUSH20 0xFFFFFFFFFFFFFFFFFFFFFFFFFFFFFFFFFFFFFFFF AND PUSH20 0xFFFFFFFFFFFFFFFFFFFFFFFFFFFFFFFFFFFFFFFF AND DUP2 MSTORE PUSH1 0x20 ADD SWAP1 DUP2 MSTORE PUSH1 0x20 ADD PUSH1 0x0 KECCAK256 PUSH1 0x0 PUSH2 0x4AE PUSH2 0xBCE JUMP JUMPDEST PUSH20 0xFFFFFFFFFFFFFFFFFFFFFFFFFFFFFFFFFFFFFFFF AND PUSH20 0xFFFFFFFFFFFFFFFFFFFFFFFFFFFFFFFFFFFFFFFF AND DUP2 MSTORE PUSH1 0x20 ADD SWAP1 DUP2 MSTORE PUSH1 0x20 ADD PUSH1 0x0 KECCAK256 SLOAD SWAP1 POP DUP3 DUP2 LT ISZERO PUSH2 0x52E JUMPI PUSH1 0x40 MLOAD PUSH32 0x8C379A000000000000000000000000000000000000000000000000000000000 DUP2 MSTORE PUSH1 0x4 ADD PUSH2 0x525 SWAP1 PUSH2 0x193B JUMP JUMPDEST PUSH1 0x40 MLOAD DUP1 SWAP2 SUB SWAP1 REVERT JUMPDEST PUSH2 0x542 DUP6 PUSH2 0x53A PUSH2 0xBCE JUMP JUMPDEST DUP6 DUP5 SUB PUSH2 0xBD6 JUMP JUMPDEST PUSH1 0x1 SWAP2 POP POP SWAP4 SWAP3 POP POP POP JUMP JUMPDEST PUSH1 0x0 PUSH1 0x4 SWAP1 POP SWAP1 JUMP JUMPDEST PUSH1 0x0 PUSH2 0x5F9 PUSH2 0x564 PUSH2 0xBCE JUMP JUMPDEST DUP5 DUP5 PUSH1 0x1 PUSH1 0x0 PUSH2 0x572 PUSH2 0xBCE JUMP JUMPDEST PUSH20 0xFFFFFFFFFFFFFFFFFFFFFFFFFFFFFFFFFFFFFFFF AND PUSH20 0xFFFFFFFFFFFFFFFFFFFFFFFFFFFFFFFFFFFFFFFF AND DUP2 MSTORE PUSH1 0x20 ADD SWAP1 DUP2 MSTORE PUSH1 0x20 ADD PUSH1 0x0 KECCAK256 PUSH1 0x0 DUP9 PUSH20 0xFFFFFFFFFFFFFFFFFFFFFFFFFFFFFFFFFFFFFFFF AND PUSH20 0xFFFFFFFFFFFFFFFFFFFFFFFFFFFFFFFFFFFFFFFF AND DUP2 MSTORE PUSH1 0x20 ADD SWAP1 DUP2 MSTORE PUSH1 0x20 ADD PUSH1 0x0 KECCAK256 SLOAD PUSH2 0x5F4 SWAP2 SWAP1 PUSH2 0x1A6D JUMP JUMPDEST PUSH2 0xBD6 JUMP JUMPDEST PUSH1 0x1 SWAP1 POP SWAP3 SWAP2 POP POP JUMP JUMPDEST PUSH2 0x60B PUSH2 0xBCE JUMP JUMPDEST PUSH20 0xFFFFFFFFFFFFFFFFFFFFFFFFFFFFFFFFFFFFFFFF AND PUSH2 0x629 PUSH2 0x885 JUMP JUMPDEST PUSH20 0xFFFFFFFFFFFFFFFFFFFFFFFFFFFFFFFFFFFFFFFF AND EQ PUSH2 0x67F JUMPI PUSH1 0x40 MLOAD PUSH32 0x8C379A000000000000000000000000000000000000000000000000000000000 DUP2 MSTORE PUSH1 0x4 ADD PUSH2 0x676 SWAP1 PUSH2 0x195B JUMP JUMPDEST PUSH1 0x40 MLOAD DUP1 SWAP2 SUB SWAP1 REVERT JUMPDEST PUSH2 0x687 PUSH2 0x1022 JUMP JUMPDEST JUMP JUMPDEST PUSH2 0x69A PUSH2 0x694 PUSH2 0xBCE JUMP JUMPDEST DUP3 PUSH2 0x10C4 JUMP JUMPDEST POP JUMP JUMPDEST PUSH1 0x0 PUSH1 0x5 PUSH1 0x0 SWAP1 SLOAD SWAP1 PUSH2 0x100 EXP SWAP1 DIV PUSH1 0xFF AND SWAP1 POP SWAP1 JUMP JUMPDEST PUSH1 0x0 DUP1 PUSH1 0x0 DUP4 PUSH20 0xFFFFFFFFFFFFFFFFFFFFFFFFFFFFFFFFFFFFFFFF AND PUSH20 0xFFFFFFFFFFFFFFFFFFFFFFFFFFFFFFFFFFFFFFFF AND DUP2 MSTORE PUSH1 0x20 ADD SWAP1 DUP2 MSTORE PUSH1 0x20 ADD PUSH1 0x0 KECCAK256 SLOAD SWAP1 POP SWAP2 SWAP1 POP JUMP JUMPDEST PUSH2 0x704 PUSH2 0xBCE JUMP JUMPDEST PUSH20 0xFFFFFFFFFFFFFFFFFFFFFFFFFFFFFFFFFFFFFFFF AND PUSH2 0x722 PUSH2 0x885 JUMP JUMPDEST PUSH20 0xFFFFFFFFFFFFFFFFFFFFFFFFFFFFFFFFFFFFFFFF AND EQ PUSH2 0x778 JUMPI PUSH1 0x40 MLOAD PUSH32 0x8C379A000000000000000000000000000000000000000000000000000000000 DUP2 MSTORE PUSH1 0x4 ADD PUSH2 0x76F SWAP1 PUSH2 0x195B JUMP JUMPDEST PUSH1 0x40 MLOAD DUP1 SWAP2 SUB SWAP1 REVERT JUMPDEST PUSH2 0x782 PUSH1 0x0 PUSH2 0x129B JUMP JUMPDEST JUMP JUMPDEST PUSH1 0x0 PUSH2 0x797 DUP4 PUSH2 0x792 PUSH2 0xBCE JUMP JUMPDEST PUSH2 0xA4A JUMP JUMPDEST SWAP1 POP DUP2 DUP2 LT ISZERO PUSH2 0x7DC JUMPI PUSH1 0x40 MLOAD PUSH32 0x8C379A000000000000000000000000000000000000000000000000000000000 DUP2 MSTORE PUSH1 0x4 ADD PUSH2 0x7D3 SWAP1 PUSH2 0x197B JUMP JUMPDEST PUSH1 0x40 MLOAD DUP1 SWAP2 SUB SWAP1 REVERT JUMPDEST PUSH2 0x7F0 DUP4 PUSH2 0x7E8 PUSH2 0xBCE JUMP JUMPDEST DUP5 DUP5 SUB PUSH2 0xBD6 JUMP JUMPDEST PUSH2 0x7FA DUP4 DUP4 PUSH2 0x10C4 JUMP JUMPDEST POP POP POP JUMP JUMPDEST PUSH2 0x807 PUSH2 0xBCE JUMP JUMPDEST PUSH20 0xFFFFFFFFFFFFFFFFFFFFFFFFFFFFFFFFFFFFFFFF AND PUSH2 0x825 PUSH2 0x885 JUMP JUMPDEST PUSH20 0xFFFFFFFFFFFFFFFFFFFFFFFFFFFFFFFFFFFFFFFF AND EQ PUSH2 0x87B JUMPI PUSH1 0x40 MLOAD PUSH32 0x8C379A000000000000000000000000000000000000000000000000000000000 DUP2 MSTORE PUSH1 0x4 ADD PUSH2 0x872 SWAP1 PUSH2 0x195B JUMP JUMPDEST PUSH1 0x40 MLOAD DUP1 SWAP2 SUB SWAP1 REVERT JUMPDEST PUSH2 0x883 PUSH2 0x1361 JUMP JUMPDEST JUMP JUMPDEST PUSH1 0x0 PUSH1 0x5 PUSH1 0x1 SWAP1 SLOAD SWAP1 PUSH2 0x100 EXP SWAP1 DIV PUSH20 0xFFFFFFFFFFFFFFFFFFFFFFFFFFFFFFFFFFFFFFFF AND SWAP1 POP SWAP1 JUMP JUMPDEST PUSH1 0x60 PUSH1 0x4 DUP1 SLOAD PUSH2 0x8BE SWAP1 PUSH2 0x1B7F JUMP JUMPDEST DUP1 PUSH1 0x1F ADD PUSH1 0x20 DUP1 SWAP2 DIV MUL PUSH1 0x20 ADD PUSH1 0x40 MLOAD SWAP1 DUP2 ADD PUSH1 0x40 MSTORE DUP1 SWAP3 SWAP2 SWAP1 DUP2 DUP2 MSTORE PUSH1 0x20 ADD DUP3 DUP1 SLOAD PUSH2 0x8EA SWAP1 PUSH2 0x1B7F JUMP JUMPDEST DUP1 ISZERO PUSH2 0x937 JUMPI DUP1 PUSH1 0x1F LT PUSH2 0x90C JUMPI PUSH2 0x100 DUP1 DUP4 SLOAD DIV MUL DUP4 MSTORE SWAP2 PUSH1 0x20 ADD SWAP2 PUSH2 0x937 JUMP JUMPDEST DUP3 ADD SWAP2 SWAP1 PUSH1 0x0 MSTORE PUSH1 0x20 PUSH1 0x0 KECCAK256 SWAP1 JUMPDEST DUP2 SLOAD DUP2 MSTORE SWAP1 PUSH1 0x1 ADD SWAP1 PUSH1 0x20 ADD DUP1 DUP4 GT PUSH2 0x91A JUMPI DUP3 SWAP1 SUB PUSH1 0x1F AND DUP3 ADD SWAP2 JUMPDEST POP POP POP POP POP SWAP1 POP SWAP1 JUMP JUMPDEST PUSH1 0x0 DUP1 PUSH1 0x1 PUSH1 0x0 PUSH2 0x950 PUSH2 0xBCE JUMP JUMPDEST PUSH20 0xFFFFFFFFFFFFFFFFFFFFFFFFFFFFFFFFFFFFFFFF AND PUSH20 0xFFFFFFFFFFFFFFFFFFFFFFFFFFFFFFFFFFFFFFFF AND DUP2 MSTORE PUSH1 0x20 ADD SWAP1 DUP2 MSTORE PUSH1 0x20 ADD PUSH1 0x0 KECCAK256 PUSH1 0x0 DUP6 PUSH20 0xFFFFFFFFFFFFFFFFFFFFFFFFFFFFFFFFFFFFFFFF AND PUSH20 0xFFFFFFFFFFFFFFFFFFFFFFFFFFFFFFFFFFFFFFFF AND DUP2 MSTORE PUSH1 0x20 ADD SWAP1 DUP2 MSTORE PUSH1 0x20 ADD PUSH1 0x0 KECCAK256 SLOAD SWAP1 POP DUP3 DUP2 LT ISZERO PUSH2 0xA0D JUMPI PUSH1 0x40 MLOAD PUSH32 0x8C379A000000000000000000000000000000000000000000000000000000000 DUP2 MSTORE PUSH1 0x4 ADD PUSH2 0xA04 SWAP1 PUSH2 0x19FB JUMP JUMPDEST PUSH1 0x40 MLOAD DUP1 SWAP2 SUB SWAP1 REVERT JUMPDEST PUSH2 0xA21 PUSH2 0xA18 PUSH2 0xBCE JUMP JUMPDEST DUP6 DUP6 DUP5 SUB PUSH2 0xBD6 JUMP JUMPDEST PUSH1 0x1 SWAP2 POP POP SWAP3 SWAP2 POP POP JUMP JUMPDEST PUSH1 0x0 PUSH2 0xA40 PUSH2 0xA39 PUSH2 0xBCE JUMP JUMPDEST DUP5 DUP5 PUSH2 0xDA1 JUMP JUMPDEST PUSH1 0x1 SWAP1 POP SWAP3 SWAP2 POP POP JUMP JUMPDEST PUSH1 0x0 PUSH1 0x1 PUSH1 0x0 DUP5 PUSH20 0xFFFFFFFFFFFFFFFFFFFFFFFFFFFFFFFFFFFFFFFF AND PUSH20 0xFFFFFFFFFFFFFFFFFFFFFFFFFFFFFFFFFFFFFFFF AND DUP2 MSTORE PUSH1 0x20 ADD SWAP1 DUP2 MSTORE PUSH1 0x20 ADD PUSH1 0x0 KECCAK256 PUSH1 0x0 DUP4 PUSH20 0xFFFFFFFFFFFFFFFFFFFFFFFFFFFFFFFFFFFFFFFF AND PUSH20 0xFFFFFFFFFFFFFFFFFFFFFFFFFFFFFFFFFFFFFFFF AND DUP2 MSTORE PUSH1 0x20 ADD SWAP1 DUP2 MSTORE PUSH1 0x20 ADD PUSH1 0x0 KECCAK256 SLOAD SWAP1 POP SWAP3 SWAP2 POP POP JUMP JUMPDEST PUSH2 0xAD9 PUSH2 0xBCE JUMP JUMPDEST PUSH20 0xFFFFFFFFFFFFFFFFFFFFFFFFFFFFFFFFFFFFFFFF AND PUSH2 0xAF7 PUSH2 0x885 JUMP JUMPDEST PUSH20 0xFFFFFFFFFFFFFFFFFFFFFFFFFFFFFFFFFFFFFFFF AND EQ PUSH2 0xB4D JUMPI PUSH1 0x40 MLOAD PUSH32 0x8C379A000000000000000000000000000000000000000000000000000000000 DUP2 MSTORE PUSH1 0x4 ADD PUSH2 0xB44 SWAP1 PUSH2 0x195B JUMP JUMPDEST PUSH1 0x40 MLOAD DUP1 SWAP2 SUB SWAP1 REVERT JUMPDEST PUSH1 0x0 PUSH20 0xFFFFFFFFFFFFFFFFFFFFFFFFFFFFFFFFFFFFFFFF AND DUP2 PUSH20 0xFFFFFFFFFFFFFFFFFFFFFFFFFFFFFFFFFFFFFFFF AND EQ ISZERO PUSH2 0xBBD JUMPI PUSH1 0x40 MLOAD PUSH32 0x8C379A000000000000000000000000000000000000000000000000000000000 DUP2 MSTORE PUSH1 0x4 ADD PUSH2 0xBB4 SWAP1 PUSH2 0x18BB JUMP JUMPDEST PUSH1 0x40 MLOAD DUP1 SWAP2 SUB SWAP1 REVERT JUMPDEST PUSH2 0xBC6 DUP2 PUSH2 0x129B JUMP JUMPDEST POP JUMP JUMPDEST POP POP POP JUMP JUMPDEST PUSH1 0x0 CALLER SWAP1 POP SWAP1 JUMP JUMPDEST PUSH1 0x0 PUSH20 0xFFFFFFFFFFFFFFFFFFFFFFFFFFFFFFFFFFFFFFFF AND DUP4 PUSH20 0xFFFFFFFFFFFFFFFFFFFFFFFFFFFFFFFFFFFFFFFF AND EQ ISZERO PUSH2 0xC46 JUMPI PUSH1 0x40 MLOAD PUSH32 0x8C379A000000000000000000000000000000000000000000000000000000000 DUP2 MSTORE PUSH1 0x4 ADD PUSH2 0xC3D SWAP1 PUSH2 0x19DB JUMP JUMPDEST PUSH1 0x40 MLOAD DUP1 SWAP2 SUB SWAP1 REVERT JUMPDEST PUSH1 0x0 PUSH20 0xFFFFFFFFFFFFFFFFFFFFFFFFFFFFFFFFFFFFFFFF AND DUP3 PUSH20 0xFFFFFFFFFFFFFFFFFFFFFFFFFFFFFFFFFFFFFFFF AND EQ ISZERO PUSH2 0xCB6 JUMPI PUSH1 0x40 MLOAD PUSH32 0x8C379A000000000000000000000000000000000000000000000000000000000 DUP2 MSTORE PUSH1 0x4 ADD PUSH2 0xCAD SWAP1 PUSH2 0x18DB JUMP JUMPDEST PUSH1 0x40 MLOAD DUP1 SWAP2 SUB SWAP1 REVERT JUMPDEST DUP1 PUSH1 0x1 PUSH1 0x0 DUP6 PUSH20 0xFFFFFFFFFFFFFFFFFFFFFFFFFFFFFFFFFFFFFFFF AND PUSH20 0xFFFFFFFFFFFFFFFFFFFFFFFFFFFFFFFFFFFFFFFF AND DUP2 MSTORE PUSH1 0x20 ADD SWAP1 DUP2 MSTORE PUSH1 0x20 ADD PUSH1 0x0 KECCAK256 PUSH1 0x0 DUP5 PUSH20 0xFFFFFFFFFFFFFFFFFFFFFFFFFFFFFFFFFFFFFFFF AND PUSH20 0xFFFFFFFFFFFFFFFFFFFFFFFFFFFFFFFFFFFFFFFF AND DUP2 MSTORE PUSH1 0x20 ADD SWAP1 DUP2 MSTORE PUSH1 0x20 ADD PUSH1 0x0 KECCAK256 DUP2 SWAP1 SSTORE POP DUP2 PUSH20 0xFFFFFFFFFFFFFFFFFFFFFFFFFFFFFFFFFFFFFFFF AND DUP4 PUSH20 0xFFFFFFFFFFFFFFFFFFFFFFFFFFFFFFFFFFFFFFFF AND PUSH32 0x8C5BE1E5EBEC7D5BD14F71427D1E84F3DD0314C0F7B2291E5B200AC8C7C3B925 DUP4 PUSH1 0x40 MLOAD PUSH2 0xD94 SWAP2 SWAP1 PUSH2 0x1A1B JUMP JUMPDEST PUSH1 0x40 MLOAD DUP1 SWAP2 SUB SWAP1 LOG3 POP POP POP JUMP JUMPDEST PUSH1 0x0 PUSH20 0xFFFFFFFFFFFFFFFFFFFFFFFFFFFFFFFFFFFFFFFF AND DUP4 PUSH20 0xFFFFFFFFFFFFFFFFFFFFFFFFFFFFFFFFFFFFFFFF AND EQ ISZERO PUSH2 0xE11 JUMPI PUSH1 0x40 MLOAD PUSH32 0x8C379A000000000000000000000000000000000000000000000000000000000 DUP2 MSTORE PUSH1 0x4 ADD PUSH2 0xE08 SWAP1 PUSH2 0x19BB JUMP JUMPDEST PUSH1 0x40 MLOAD DUP1 SWAP2 SUB SWAP1 REVERT JUMPDEST PUSH1 0x0 PUSH20 0xFFFFFFFFFFFFFFFFFFFFFFFFFFFFFFFFFFFFFFFF AND DUP3 PUSH20 0xFFFFFFFFFFFFFFFFFFFFFFFFFFFFFFFFFFFFFFFF AND EQ ISZERO PUSH2 0xE81 JUMPI PUSH1 0x40 MLOAD PUSH32 0x8C379A000000000000000000000000000000000000000000000000000000000 DUP2 MSTORE PUSH1 0x4 ADD PUSH2 0xE78 SWAP1 PUSH2 0x185B JUMP JUMPDEST PUSH1 0x40 MLOAD DUP1 SWAP2 SUB SWAP1 REVERT JUMPDEST PUSH2 0xE8C DUP4 DUP4 DUP4 PUSH2 0x1404 JUMP JUMPDEST PUSH1 0x0 DUP1 PUSH1 0x0 DUP6 PUSH20 0xFFFFFFFFFFFFFFFFFFFFFFFFFFFFFFFFFFFFFFFF AND PUSH20 0xFFFFFFFFFFFFFFFFFFFFFFFFFFFFFFFFFFFFFFFF AND DUP2 MSTORE PUSH1 0x20 ADD SWAP1 DUP2 MSTORE PUSH1 0x20 ADD PUSH1 0x0 KECCAK256 SLOAD SWAP1 POP DUP2 DUP2 LT ISZERO PUSH2 0xF12 JUMPI PUSH1 0x40 MLOAD PUSH32 0x8C379A000000000000000000000000000000000000000000000000000000000 DUP2 MSTORE PUSH1 0x4 ADD PUSH2 0xF09 SWAP1 PUSH2 0x18FB JUMP JUMPDEST PUSH1 0x40 MLOAD DUP1 SWAP2 SUB SWAP1 REVERT JUMPDEST DUP2 DUP2 SUB PUSH1 0x0 DUP1 DUP7 PUSH20 0xFFFFFFFFFFFFFFFFFFFFFFFFFFFFFFFFFFFFFFFF AND PUSH20 0xFFFFFFFFFFFFFFFFFFFFFFFFFFFFFFFFFFFFFFFF AND DUP2 MSTORE PUSH1 0x20 ADD SWAP1 DUP2 MSTORE PUSH1 0x20 ADD PUSH1 0x0 KECCAK256 DUP2 SWAP1 SSTORE POP DUP2 PUSH1 0x0 DUP1 DUP6 PUSH20 0xFFFFFFFFFFFFFFFFFFFFFFFFFFFFFFFFFFFFFFFF AND PUSH20 0xFFFFFFFFFFFFFFFFFFFFFFFFFFFFFFFFFFFFFFFF AND DUP2 MSTORE PUSH1 0x20 ADD SWAP1 DUP2 MSTORE PUSH1 0x20 ADD PUSH1 0x0 KECCAK256 PUSH1 0x0 DUP3 DUP3 SLOAD PUSH2 0xFA5 SWAP2 SWAP1 PUSH2 0x1A6D JUMP JUMPDEST SWAP3 POP POP DUP2 SWAP1 SSTORE POP DUP3 PUSH20 0xFFFFFFFFFFFFFFFFFFFFFFFFFFFFFFFFFFFFFFFF AND DUP5 PUSH20 0xFFFFFFFFFFFFFFFFFFFFFFFFFFFFFFFFFFFFFFFF AND PUSH32 0xDDF252AD1BE2C89B69C2B068FC378DAA952BA7F163C4A11628F55A4DF523B3EF DUP5 PUSH1 0x40 MLOAD PUSH2 0x1009 SWAP2 SWAP1 PUSH2 0x1A1B JUMP JUMPDEST PUSH1 0x40 MLOAD DUP1 SWAP2 SUB SWAP1 LOG3 PUSH2 0x101C DUP5 DUP5 DUP5 PUSH2 0x145C JUMP JUMPDEST POP POP POP POP JUMP JUMPDEST PUSH2 0x102A PUSH2 0x69D JUMP JUMPDEST PUSH2 0x1069 JUMPI PUSH1 0x40 MLOAD PUSH32 0x8C379A000000000000000000000000000000000000000000000000000000000 DUP2 MSTORE PUSH1 0x4 ADD PUSH2 0x1060 SWAP1 PUSH2 0x187B JUMP JUMPDEST PUSH1 0x40 MLOAD DUP1 SWAP2 SUB SWAP1 REVERT JUMPDEST PUSH1 0x0 PUSH1 0x5 PUSH1 0x0 PUSH2 0x100 EXP DUP2 SLOAD DUP2 PUSH1 0xFF MUL NOT AND SWAP1 DUP4 ISZERO ISZERO MUL OR SWAP1 SSTORE POP PUSH32 0x5DB9EE0A495BF2E6FF9C91A7834C1BA4FDD244A5E8AA4E537BD38AEAE4B073AA PUSH2 0x10AD PUSH2 0xBCE JUMP JUMPDEST PUSH1 0x40 MLOAD PUSH2 0x10BA SWAP2 SWAP1 PUSH2 0x1803 JUMP JUMPDEST PUSH1 0x40 MLOAD DUP1 SWAP2 SUB SWAP1 LOG1 JUMP JUMPDEST PUSH1 0x0 PUSH20 0xFFFFFFFFFFFFFFFFFFFFFFFFFFFFFFFFFFFFFFFF AND DUP3 PUSH20 0xFFFFFFFFFFFFFFFFFFFFFFFFFFFFFFFFFFFFFFFF AND EQ ISZERO PUSH2 0x1134 JUMPI PUSH1 0x40 MLOAD PUSH32 0x8C379A000000000000000000000000000000000000000000000000000000000 DUP2 MSTORE PUSH1 0x4 ADD PUSH2 0x112B SWAP1 PUSH2 0x199B JUMP JUMPDEST PUSH1 0x40 MLOAD DUP1 SWAP2 SUB SWAP1 REVERT JUMPDEST PUSH2 0x1140 DUP3 PUSH1 0x0 DUP4 PUSH2 0x1404 JUMP JUMPDEST PUSH1 0x0 DUP1 PUSH1 0x0 DUP5 PUSH20 0xFFFFFFFFFFFFFFFFFFFFFFFFFFFFFFFFFFFFFFFF AND PUSH20 0xFFFFFFFFFFFFFFFFFFFFFFFFFFFFFFFFFFFFFFFF AND DUP2 MSTORE PUSH1 0x20 ADD SWAP1 DUP2 MSTORE PUSH1 0x20 ADD PUSH1 0x0 KECCAK256 SLOAD SWAP1 POP DUP2 DUP2 LT ISZERO PUSH2 0x11C6 JUMPI PUSH1 0x40 MLOAD PUSH32 0x8C379A000000000000000000000000000000000000000000000000000000000 DUP2 MSTORE PUSH1 0x4 ADD PUSH2 0x11BD SWAP1 PUSH2 0x189B JUMP JUMPDEST PUSH1 0x40 MLOAD DUP1 SWAP2 SUB SWAP1 REVERT JUMPDEST DUP2 DUP2 SUB PUSH1 0x0 DUP1 DUP6 PUSH20 0xFFFFFFFFFFFFFFFFFFFFFFFFFFFFFFFFFFFFFFFF AND PUSH20 0xFFFFFFFFFFFFFFFFFFFFFFFFFFFFFFFFFFFFFFFF AND DUP2 MSTORE PUSH1 0x20 ADD SWAP1 DUP2 MSTORE PUSH1 0x20 ADD PUSH1 0x0 KECCAK256 DUP2 SWAP1 SSTORE POP DUP2 PUSH1 0x2 PUSH1 0x0 DUP3 DUP3 SLOAD PUSH2 0x121D SWAP2 SWAP1 PUSH2 0x1AC3 JUMP JUMPDEST SWAP3 POP POP DUP2 SWAP1 SSTORE POP PUSH1 0x0 PUSH20 0xFFFFFFFFFFFFFFFFFFFFFFFFFFFFFFFFFFFFFFFF AND DUP4 PUSH20 0xFFFFFFFFFFFFFFFFFFFFFFFFFFFFFFFFFFFFFFFF AND PUSH32 0xDDF252AD1BE2C89B69C2B068FC378DAA952BA7F163C4A11628F55A4DF523B3EF DUP5 PUSH1 0x40 MLOAD PUSH2 0x1282 SWAP2 SWAP1 PUSH2 0x1A1B JUMP JUMPDEST PUSH1 0x40 MLOAD DUP1 SWAP2 SUB SWAP1 LOG3 PUSH2 0x1296 DUP4 PUSH1 0x0 DUP5 PUSH2 0x145C JUMP JUMPDEST POP POP POP JUMP JUMPDEST PUSH1 0x0 PUSH1 0x5 PUSH1 0x1 SWAP1 SLOAD SWAP1 PUSH2 0x100 EXP SWAP1 DIV PUSH20 0xFFFFFFFFFFFFFFFFFFFFFFFFFFFFFFFFFFFFFFFF AND SWAP1 POP DUP2 PUSH1 0x5 PUSH1 0x1 PUSH2 0x100 EXP DUP2 SLOAD DUP2 PUSH20 0xFFFFFFFFFFFFFFFFFFFFFFFFFFFFFFFFFFFFFFFF MUL NOT AND SWAP1 DUP4 PUSH20 0xFFFFFFFFFFFFFFFFFFFFFFFFFFFFFFFFFFFFFFFF AND MUL OR SWAP1 SSTORE POP DUP2 PUSH20 0xFFFFFFFFFFFFFFFFFFFFFFFFFFFFFFFFFFFFFFFF AND DUP2 PUSH20 0xFFFFFFFFFFFFFFFFFFFFFFFFFFFFFFFFFFFFFFFF AND PUSH32 0x8BE0079C531659141344CD1FD0A4F28419497F9722A3DAAFE3B4186F6B6457E0 PUSH1 0x40 MLOAD PUSH1 0x40 MLOAD DUP1 SWAP2 SUB SWAP1 LOG3 POP POP JUMP JUMPDEST PUSH2 0x1369 PUSH2 0x69D JUMP JUMPDEST ISZERO PUSH2 0x13A9 JUMPI PUSH1 0x40 MLOAD PUSH32 0x8C379A000000000000000000000000000000000000000000000000000000000 DUP2 MSTORE PUSH1 0x4 ADD PUSH2 0x13A0 SWAP1 PUSH2 0x191B JUMP JUMPDEST PUSH1 0x40 MLOAD DUP1 SWAP2 SUB SWAP1 REVERT JUMPDEST PUSH1 0x1 PUSH1 0x5 PUSH1 0x0 PUSH2 0x100 EXP DUP2 SLOAD DUP2 PUSH1 0xFF MUL NOT AND SWAP1 DUP4 ISZERO ISZERO MUL OR SWAP1 SSTORE POP PUSH32 0x62E78CEA01BEE320CD4E420270B5EA74000D11B0C9F74754EBDBFC544B05A258 PUSH2 0x13ED PUSH2 0xBCE JUMP JUMPDEST PUSH1 0x40 MLOAD PUSH2 0x13FA SWAP2 SWAP1 PUSH2 0x1803 JUMP JUMPDEST PUSH1 0x40 MLOAD DUP1 SWAP2 SUB SWAP1 LOG1 JUMP JUMPDEST PUSH2 0x140C PUSH2 0x69D JUMP JUMPDEST ISZERO PUSH2 0x144C JUMPI PUSH1 0x40 MLOAD PUSH32 0x8C379A000000000000000000000000000000000000000000000000000000000 DUP2 MSTORE PUSH1 0x4 ADD PUSH2 0x1443 SWAP1 PUSH2 0x191B JUMP JUMPDEST PUSH1 0x40 MLOAD DUP1 SWAP2 SUB SWAP1 REVERT JUMPDEST PUSH2 0x1457 DUP4 DUP4 DUP4 PUSH2 0xBC9 JUMP JUMPDEST POP POP POP JUMP JUMPDEST POP POP POP JUMP JUMPDEST PUSH1 0x0 DUP2 CALLDATALOAD SWAP1 POP PUSH2 0x1470 DUP2 PUSH2 0x2000 JUMP JUMPDEST SWAP3 SWAP2 POP POP JUMP JUMPDEST PUSH1 0x0 DUP2 CALLDATALOAD SWAP1 POP PUSH2 0x1485 DUP2 PUSH2 0x2017 JUMP JUMPDEST SWAP3 SWAP2 POP POP JUMP JUMPDEST PUSH1 0x0 PUSH1 0x20 DUP3 DUP5 SUB SLT ISZERO PUSH2 0x149D JUMPI PUSH1 0x0 DUP1 REVERT JUMPDEST PUSH1 0x0 PUSH2 0x14AB DUP5 DUP3 DUP6 ADD PUSH2 0x1461 JUMP JUMPDEST SWAP2 POP POP SWAP3 SWAP2 POP POP JUMP JUMPDEST PUSH1 0x0 DUP1 PUSH1 0x40 DUP4 DUP6 SUB SLT ISZERO PUSH2 0x14C7 JUMPI PUSH1 0x0 DUP1 REVERT JUMPDEST PUSH1 0x0 PUSH2 0x14D5 DUP6 DUP3 DUP7 ADD PUSH2 0x1461 JUMP JUMPDEST SWAP3 POP POP PUSH1 0x20 PUSH2 0x14E6 DUP6 DUP3 DUP7 ADD PUSH2 0x1461 JUMP JUMPDEST SWAP2 POP POP SWAP3 POP SWAP3 SWAP1 POP JUMP JUMPDEST PUSH1 0x0 DUP1 PUSH1 0x0 PUSH1 0x60 DUP5 DUP7 SUB SLT ISZERO PUSH2 0x1505 JUMPI PUSH1 0x0 DUP1 REVERT JUMPDEST PUSH1 0x0 PUSH2 0x1513 DUP7 DUP3 DUP8 ADD PUSH2 0x1461 JUMP JUMPDEST SWAP4 POP POP PUSH1 0x20 PUSH2 0x1524 DUP7 DUP3 DUP8 ADD PUSH2 0x1461 JUMP JUMPDEST SWAP3 POP POP PUSH1 0x40 PUSH2 0x1535 DUP7 DUP3 DUP8 ADD PUSH2 0x1476 JUMP JUMPDEST SWAP2 POP POP SWAP3 POP SWAP3 POP SWAP3 JUMP JUMPDEST PUSH1 0x0 DUP1 PUSH1 0x40 DUP4 DUP6 SUB SLT ISZERO PUSH2 0x1552 JUMPI PUSH1 0x0 DUP1 REVERT JUMPDEST PUSH1 0x0 PUSH2 0x1560 DUP6 DUP3 DUP7 ADD PUSH2 0x1461 JUMP JUMPDEST SWAP3 POP POP PUSH1 0x20 PUSH2 0x1571 DUP6 DUP3 DUP7 ADD PUSH2 0x1476 JUMP JUMPDEST SWAP2 POP POP SWAP3 POP SWAP3 SWAP1 POP JUMP JUMPDEST PUSH1 0x0 PUSH1 0x20 DUP3 DUP5 SUB SLT ISZERO PUSH2 0x158D JUMPI PUSH1 0x0 DUP1 REVERT JUMPDEST PUSH1 0x0 PUSH2 0x159B DUP5 DUP3 DUP6 ADD PUSH2 0x1476 JUMP JUMPDEST SWAP2 POP POP SWAP3 SWAP2 POP POP JUMP JUMPDEST PUSH2 0x15AD DUP2 PUSH2 0x1AF7 JUMP JUMPDEST DUP3 MSTORE POP POP JUMP JUMPDEST PUSH2 0x15BC DUP2 PUSH2 0x1B09 JUMP JUMPDEST DUP3 MSTORE POP POP JUMP JUMPDEST PUSH1 0x0 PUSH2 0x15CD DUP3 PUSH2 0x1A51 JUMP JUMPDEST PUSH2 0x15D7 DUP2 DUP6 PUSH2 0x1A5C JUMP JUMPDEST SWAP4 POP PUSH2 0x15E7 DUP2 DUP6 PUSH1 0x20 DUP7 ADD PUSH2 0x1B4C JUMP JUMPDEST PUSH2 0x15F0 DUP2 PUSH2 0x1C0F JUMP JUMPDEST DUP5 ADD SWAP2 POP POP SWAP3 SWAP2 POP POP JUMP JUMPDEST PUSH1 0x0 PUSH2 0x1608 PUSH1 0x23 DUP4 PUSH2 0x1A5C JUMP JUMPDEST SWAP2 POP PUSH2 0x1613 DUP3 PUSH2 0x1C20 JUMP JUMPDEST PUSH1 0x40 DUP3 ADD SWAP1 POP SWAP2 SWAP1 POP JUMP JUMPDEST PUSH1 0x0 PUSH2 0x162B PUSH1 0x14 DUP4 PUSH2 0x1A5C JUMP JUMPDEST SWAP2 POP PUSH2 0x1636 DUP3 PUSH2 0x1C6F JUMP JUMPDEST PUSH1 0x20 DUP3 ADD SWAP1 POP SWAP2 SWAP1 POP JUMP JUMPDEST PUSH1 0x0 PUSH2 0x164E PUSH1 0x22 DUP4 PUSH2 0x1A5C JUMP JUMPDEST SWAP2 POP PUSH2 0x1659 DUP3 PUSH2 0x1C98 JUMP JUMPDEST PUSH1 0x40 DUP3 ADD SWAP1 POP SWAP2 SWAP1 POP JUMP JUMPDEST PUSH1 0x0 PUSH2 0x1671 PUSH1 0x26 DUP4 PUSH2 0x1A5C JUMP JUMPDEST SWAP2 POP PUSH2 0x167C DUP3 PUSH2 0x1CE7 JUMP JUMPDEST PUSH1 0x40 DUP3 ADD SWAP1 POP SWAP2 SWAP1 POP JUMP JUMPDEST PUSH1 0x0 PUSH2 0x1694 PUSH1 0x22 DUP4 PUSH2 0x1A5C JUMP JUMPDEST SWAP2 POP PUSH2 0x169F DUP3 PUSH2 0x1D36 JUMP JUMPDEST PUSH1 0x40 DUP3 ADD SWAP1 POP SWAP2 SWAP1 POP JUMP JUMPDEST PUSH1 0x0 PUSH2 0x16B7 PUSH1 0x26 DUP4 PUSH2 0x1A5C JUMP JUMPDEST SWAP2 POP PUSH2 0x16C2 DUP3 PUSH2 0x1D85 JUMP JUMPDEST PUSH1 0x40 DUP3 ADD SWAP1 POP SWAP2 SWAP1 POP JUMP JUMPDEST PUSH1 0x0 PUSH2 0x16DA PUSH1 0x10 DUP4 PUSH2 0x1A5C JUMP JUMPDEST SWAP2 POP PUSH2 0x16E5 DUP3 PUSH2 0x1DD4 JUMP JUMPDEST PUSH1 0x20 DUP3 ADD SWAP1 POP SWAP2 SWAP1 POP JUMP JUMPDEST PUSH1 0x0 PUSH2 0x16FD PUSH1 0x28 DUP4 PUSH2 0x1A5C JUMP JUMPDEST SWAP2 POP PUSH2 0x1708 DUP3 PUSH2 0x1DFD JUMP JUMPDEST PUSH1 0x40 DUP3 ADD SWAP1 POP SWAP2 SWAP1 POP JUMP JUMPDEST PUSH1 0x0 PUSH2 0x1720 PUSH1 0x20 DUP4 PUSH2 0x1A5C JUMP JUMPDEST SWAP2 POP PUSH2 0x172B DUP3 PUSH2 0x1E4C JUMP JUMPDEST PUSH1 0x20 DUP3 ADD SWAP1 POP SWAP2 SWAP1 POP JUMP JUMPDEST PUSH1 0x0 PUSH2 0x1743 PUSH1 0x24 DUP4 PUSH2 0x1A5C JUMP JUMPDEST SWAP2 POP PUSH2 0x174E DUP3 PUSH2 0x1E75 JUMP JUMPDEST PUSH1 0x40 DUP3 ADD SWAP1 POP SWAP2 SWAP1 POP JUMP JUMPDEST PUSH1 0x0 PUSH2 0x1766 PUSH1 0x21 DUP4 PUSH2 0x1A5C JUMP JUMPDEST SWAP2 POP PUSH2 0x1771 DUP3 PUSH2 0x1EC4 JUMP JUMPDEST PUSH1 0x40 DUP3 ADD SWAP1 POP SWAP2 SWAP1 POP JUMP JUMPDEST PUSH1 0x0 PUSH2 0x1789 PUSH1 0x25 DUP4 PUSH2 0x1A5C JUMP JUMPDEST SWAP2 POP PUSH2 0x1794 DUP3 PUSH2 0x1F13 JUMP JUMPDEST PUSH1 0x40 DUP3 ADD SWAP1 POP SWAP2 SWAP1 POP JUMP JUMPDEST PUSH1 0x0 PUSH2 0x17AC PUSH1 0x24 DUP4 PUSH2 0x1A5C JUMP JUMPDEST SWAP2 POP PUSH2 0x17B7 DUP3 PUSH2 0x1F62 JUMP JUMPDEST PUSH1 0x40 DUP3 ADD SWAP1 POP SWAP2 SWAP1 POP JUMP JUMPDEST PUSH1 0x0 PUSH2 0x17CF PUSH1 0x25 DUP4 PUSH2 0x1A5C JUMP JUMPDEST SWAP2 POP PUSH2 0x17DA DUP3 PUSH2 0x1FB1 JUMP JUMPDEST PUSH1 0x40 DUP3 ADD SWAP1 POP SWAP2 SWAP1 POP JUMP JUMPDEST PUSH2 0x17EE DUP2 PUSH2 0x1B35 JUMP JUMPDEST DUP3 MSTORE POP POP JUMP JUMPDEST PUSH2 0x17FD DUP2 PUSH2 0x1B3F JUMP JUMPDEST DUP3 MSTORE POP POP JUMP JUMPDEST PUSH1 0x0 PUSH1 0x20 DUP3 ADD SWAP1 POP PUSH2 0x1818 PUSH1 0x0 DUP4 ADD DUP5 PUSH2 0x15A4 JUMP JUMPDEST SWAP3 SWAP2 POP POP JUMP JUMPDEST PUSH1 0x0 PUSH1 0x20 DUP3 ADD SWAP1 POP PUSH2 0x1833 PUSH1 0x0 DUP4 ADD DUP5 PUSH2 0x15B3 JUMP JUMPDEST SWAP3 SWAP2 POP POP JUMP JUMPDEST PUSH1 0x0 PUSH1 0x20 DUP3 ADD SWAP1 POP DUP2 DUP2 SUB PUSH1 0x0 DUP4 ADD MSTORE PUSH2 0x1853 DUP2 DUP5 PUSH2 0x15C2 JUMP JUMPDEST SWAP1 POP SWAP3 SWAP2 POP POP JUMP JUMPDEST PUSH1 0x0 PUSH1 0x20 DUP3 ADD SWAP1 POP DUP2 DUP2 SUB PUSH1 0x0 DUP4 ADD MSTORE PUSH2 0x1874 DUP2 PUSH2 0x15FB JUMP JUMPDEST SWAP1 POP SWAP2 SWAP1 POP JUMP JUMPDEST PUSH1 0x0 PUSH1 0x20 DUP3 ADD SWAP1 POP DUP2 DUP2 SUB PUSH1 0x0 DUP4 ADD MSTORE PUSH2 0x1894 DUP2 PUSH2 0x161E JUMP JUMPDEST SWAP1 POP SWAP2 SWAP1 POP JUMP JUMPDEST PUSH1 0x0 PUSH1 0x20 DUP3 ADD SWAP1 POP DUP2 DUP2 SUB PUSH1 0x0 DUP4 ADD MSTORE PUSH2 0x18B4 DUP2 PUSH2 0x1641 JUMP JUMPDEST SWAP1 POP SWAP2 SWAP1 POP JUMP JUMPDEST PUSH1 0x0 PUSH1 0x20 DUP3 ADD SWAP1 POP DUP2 DUP2 SUB PUSH1 0x0 DUP4 ADD MSTORE PUSH2 0x18D4 DUP2 PUSH2 0x1664 JUMP JUMPDEST SWAP1 POP SWAP2 SWAP1 POP JUMP JUMPDEST PUSH1 0x0 PUSH1 0x20 DUP3 ADD SWAP1 POP DUP2 DUP2 SUB PUSH1 0x0 DUP4 ADD MSTORE PUSH2 0x18F4 DUP2 PUSH2 0x1687 JUMP JUMPDEST SWAP1 POP SWAP2 SWAP1 POP JUMP JUMPDEST PUSH1 0x0 PUSH1 0x20 DUP3 ADD SWAP1 POP DUP2 DUP2 SUB PUSH1 0x0 DUP4 ADD MSTORE PUSH2 0x1914 DUP2 PUSH2 0x16AA JUMP JUMPDEST SWAP1 POP SWAP2 SWAP1 POP JUMP JUMPDEST PUSH1 0x0 PUSH1 0x20 DUP3 ADD SWAP1 POP DUP2 DUP2 SUB PUSH1 0x0 DUP4 ADD MSTORE PUSH2 0x1934 DUP2 PUSH2 0x16CD JUMP JUMPDEST SWAP1 POP SWAP2 SWAP1 POP JUMP JUMPDEST PUSH1 0x0 PUSH1 0x20 DUP3 ADD SWAP1 POP DUP2 DUP2 SUB PUSH1 0x0 DUP4 ADD MSTORE PUSH2 0x1954 DUP2 PUSH2 0x16F0 JUMP JUMPDEST SWAP1 POP SWAP2 SWAP1 POP JUMP JUMPDEST PUSH1 0x0 PUSH1 0x20 DUP3 ADD SWAP1 POP DUP2 DUP2 SUB PUSH1 0x0 DUP4 ADD MSTORE PUSH2 0x1974 DUP2 PUSH2 0x1713 JUMP JUMPDEST SWAP1 POP SWAP2 SWAP1 POP JUMP JUMPDEST PUSH1 0x0 PUSH1 0x20 DUP3 ADD SWAP1 POP DUP2 DUP2 SUB PUSH1 0x0 DUP4 ADD MSTORE PUSH2 0x1994 DUP2 PUSH2 0x1736 JUMP JUMPDEST SWAP1 POP SWAP2 SWAP1 POP JUMP JUMPDEST PUSH1 0x0 PUSH1 0x20 DUP3 ADD SWAP1 POP DUP2 DUP2 SUB PUSH1 0x0 DUP4 ADD MSTORE PUSH2 0x19B4 DUP2 PUSH2 0x1759 JUMP JUMPDEST SWAP1 POP SWAP2 SWAP1 POP JUMP JUMPDEST PUSH1 0x0 PUSH1 0x20 DUP3 ADD SWAP1 POP DUP2 DUP2 SUB PUSH1 0x0 DUP4 ADD MSTORE PUSH2 0x19D4 DUP2 PUSH2 0x177C JUMP JUMPDEST SWAP1 POP SWAP2 SWAP1 POP JUMP JUMPDEST PUSH1 0x0 PUSH1 0x20 DUP3 ADD SWAP1 POP DUP2 DUP2 SUB PUSH1 0x0 DUP4 ADD MSTORE PUSH2 0x19F4 DUP2 PUSH2 0x179F JUMP JUMPDEST SWAP1 POP SWAP2 SWAP1 POP JUMP JUMPDEST PUSH1 0x0 PUSH1 0x20 DUP3 ADD SWAP1 POP DUP2 DUP2 SUB PUSH1 0x0 DUP4 ADD MSTORE PUSH2 0x1A14 DUP2 PUSH2 0x17C2 JUMP JUMPDEST SWAP1 POP SWAP2 SWAP1 POP JUMP JUMPDEST PUSH1 0x0 PUSH1 0x20 DUP3 ADD SWAP1 POP PUSH2 0x1A30 PUSH1 0x0 DUP4 ADD DUP5 PUSH2 0x17E5 JUMP JUMPDEST SWAP3 SWAP2 POP POP JUMP JUMPDEST PUSH1 0x0 PUSH1 0x20 DUP3 ADD SWAP1 POP PUSH2 0x1A4B PUSH1 0x0 DUP4 ADD DUP5 PUSH2 0x17F4 JUMP JUMPDEST SWAP3 SWAP2 POP POP JUMP JUMPDEST PUSH1 0x0 DUP2 MLOAD SWAP1 POP SWAP2 SWAP1 POP JUMP JUMPDEST PUSH1 0x0 DUP3 DUP3 MSTORE PUSH1 0x20 DUP3 ADD SWAP1 POP SWAP3 SWAP2 POP POP JUMP JUMPDEST PUSH1 0x0 PUSH2 0x1A78 DUP3 PUSH2 0x1B35 JUMP JUMPDEST SWAP2 POP PUSH2 0x1A83 DUP4 PUSH2 0x1B35 JUMP JUMPDEST SWAP3 POP DUP3 PUSH32 0xFFFFFFFFFFFFFFFFFFFFFFFFFFFFFFFFFFFFFFFFFFFFFFFFFFFFFFFFFFFFFFFF SUB DUP3 GT ISZERO PUSH2 0x1AB8 JUMPI PUSH2 0x1AB7 PUSH2 0x1BB1 JUMP JUMPDEST JUMPDEST DUP3 DUP3 ADD SWAP1 POP SWAP3 SWAP2 POP POP JUMP JUMPDEST PUSH1 0x0 PUSH2 0x1ACE DUP3 PUSH2 0x1B35 JUMP JUMPDEST SWAP2 POP PUSH2 0x1AD9 DUP4 PUSH2 0x1B35 JUMP JUMPDEST SWAP3 POP DUP3 DUP3 LT ISZERO PUSH2 0x1AEC JUMPI PUSH2 0x1AEB PUSH2 0x1BB1 JUMP JUMPDEST JUMPDEST DUP3 DUP3 SUB SWAP1 POP SWAP3 SWAP2 POP POP JUMP JUMPDEST PUSH1 0x0 PUSH2 0x1B02 DUP3 PUSH2 0x1B15 JUMP JUMPDEST SWAP1 POP SWAP2 SWAP1 POP JUMP JUMPDEST PUSH1 0x0 DUP2 ISZERO ISZERO SWAP1 POP SWAP2 SWAP1 POP JUMP JUMPDEST PUSH1 0x0 PUSH20 0xFFFFFFFFFFFFFFFFFFFFFFFFFFFFFFFFFFFFFFFF DUP3 AND SWAP1 POP SWAP2 SWAP1 POP JUMP JUMPDEST PUSH1 0x0 DUP2 SWAP1 POP SWAP2 SWAP1 POP JUMP JUMPDEST PUSH1 0x0 PUSH1 0xFF DUP3 AND SWAP1 POP SWAP2 SWAP1 POP JUMP JUMPDEST PUSH1 0x0 JUMPDEST DUP4 DUP2 LT ISZERO PUSH2 0x1B6A JUMPI DUP1 DUP3 ADD MLOAD DUP2 DUP5 ADD MSTORE PUSH1 0x20 DUP2 ADD SWAP1 POP PUSH2 0x1B4F JUMP JUMPDEST DUP4 DUP2 GT ISZERO PUSH2 0x1B79 JUMPI PUSH1 0x0 DUP5 DUP5 ADD MSTORE JUMPDEST POP POP POP POP JUMP JUMPDEST PUSH1 0x0 PUSH1 0x2 DUP3 DIV SWAP1 POP PUSH1 0x1 DUP3 AND DUP1 PUSH2 0x1B97 JUMPI PUSH1 0x7F DUP3 AND SWAP2 POP JUMPDEST PUSH1 0x20 DUP3 LT DUP2 EQ ISZERO PUSH2 0x1BAB JUMPI PUSH2 0x1BAA PUSH2 0x1BE0 JUMP JUMPDEST JUMPDEST POP SWAP2 SWAP1 POP JUMP JUMPDEST PUSH32 0x4E487B7100000000000000000000000000000000000000000000000000000000 PUSH1 0x0 MSTORE PUSH1 0x11 PUSH1 0x4 MSTORE PUSH1 0x24 PUSH1 0x0 REVERT JUMPDEST PUSH32 0x4E487B7100000000000000000000000000000000000000000000000000000000 PUSH1 0x0 MSTORE PUSH1 0x22 PUSH1 0x4 MSTORE PUSH1 0x24 PUSH1 0x0 REVERT JUMPDEST PUSH1 0x0 PUSH1 0x1F NOT PUSH1 0x1F DUP4 ADD AND SWAP1 POP SWAP2 SWAP1 POP JUMP JUMPDEST PUSH32 0x45524332303A207472616E7366657220746F20746865207A65726F2061646472 PUSH1 0x0 DUP3 ADD MSTORE PUSH32 0x6573730000000000000000000000000000000000000000000000000000000000 PUSH1 0x20 DUP3 ADD MSTORE POP JUMP JUMPDEST PUSH32 0x5061757361626C653A206E6F7420706175736564000000000000000000000000 PUSH1 0x0 DUP3 ADD MSTORE POP JUMP JUMPDEST PUSH32 0x45524332303A206275726E20616D6F756E7420657863656564732062616C616E PUSH1 0x0 DUP3 ADD MSTORE PUSH32 0x6365000000000000000000000000000000000000000000000000000000000000 PUSH1 0x20 DUP3 ADD MSTORE POP JUMP JUMPDEST PUSH32 0x4F776E61626C653A206E6577206F776E657220697320746865207A65726F2061 PUSH1 0x0 DUP3 ADD MSTORE PUSH32 0x6464726573730000000000000000000000000000000000000000000000000000 PUSH1 0x20 DUP3 ADD MSTORE POP JUMP JUMPDEST PUSH32 0x45524332303A20617070726F766520746F20746865207A65726F206164647265 PUSH1 0x0 DUP3 ADD MSTORE PUSH32 0x7373000000000000000000000000000000000000000000000000000000000000 PUSH1 0x20 DUP3 ADD MSTORE POP JUMP JUMPDEST PUSH32 0x45524332303A207472616E7366657220616D6F756E7420657863656564732062 PUSH1 0x0 DUP3 ADD MSTORE PUSH32 0x616C616E63650000000000000000000000000000000000000000000000000000 PUSH1 0x20 DUP3 ADD MSTORE POP JUMP JUMPDEST PUSH32 0x5061757361626C653A2070617573656400000000000000000000000000000000 PUSH1 0x0 DUP3 ADD MSTORE POP JUMP JUMPDEST PUSH32 0x45524332303A207472616E7366657220616D6F756E7420657863656564732061 PUSH1 0x0 DUP3 ADD MSTORE PUSH32 0x6C6C6F77616E6365000000000000000000000000000000000000000000000000 PUSH1 0x20 DUP3 ADD MSTORE POP JUMP JUMPDEST PUSH32 0x4F776E61626C653A2063616C6C6572206973206E6F7420746865206F776E6572 PUSH1 0x0 DUP3 ADD MSTORE POP JUMP JUMPDEST PUSH32 0x45524332303A206275726E20616D6F756E74206578636565647320616C6C6F77 PUSH1 0x0 DUP3 ADD MSTORE PUSH32 0x616E636500000000000000000000000000000000000000000000000000000000 PUSH1 0x20 DUP3 ADD MSTORE POP JUMP JUMPDEST PUSH32 0x45524332303A206275726E2066726F6D20746865207A65726F20616464726573 PUSH1 0x0 DUP3 ADD MSTORE PUSH32 0x7300000000000000000000000000000000000000000000000000000000000000 PUSH1 0x20 DUP3 ADD MSTORE POP JUMP JUMPDEST PUSH32 0x45524332303A207472616E736665722066726F6D20746865207A65726F206164 PUSH1 0x0 DUP3 ADD MSTORE PUSH32 0x6472657373000000000000000000000000000000000000000000000000000000 PUSH1 0x20 DUP3 ADD MSTORE POP JUMP JUMPDEST PUSH32 0x45524332303A20617070726F76652066726F6D20746865207A65726F20616464 PUSH1 0x0 DUP3 ADD MSTORE PUSH32 0x7265737300000000000000000000000000000000000000000000000000000000 PUSH1 0x20 DUP3 ADD MSTORE POP JUMP JUMPDEST PUSH32 0x45524332303A2064656372656173656420616C6C6F77616E63652062656C6F77 PUSH1 0x0 DUP3 ADD MSTORE PUSH32 0x207A65726F000000000000000000000000000000000000000000000000000000 PUSH1 0x20 DUP3 ADD MSTORE POP JUMP JUMPDEST PUSH2 0x2009 DUP2 PUSH2 0x1AF7 JUMP JUMPDEST DUP2 EQ PUSH2 0x2014 JUMPI PUSH1 0x0 DUP1 REVERT JUMPDEST POP JUMP JUMPDEST PUSH2 0x2020 DUP2 PUSH2 0x1B35 JUMP JUMPDEST DUP2 EQ PUSH2 0x202B JUMPI PUSH1 0x0 DUP1 REVERT JUMPDEST POP JUMP INVALID LOG2 PUSH5 0x6970667358 0x22 SLT KECCAK256 LOG2 0xE5 BLOCKHASH PUSH2 0xD315 0xBD DUP3 0xAB 0xB7 ADD 0x4F 0xB6 MUL 0xFB 0xB5 0xCB PUSH32 0x972219307B62C76ABCC70925299964736F6C6343000801003300000000000000 "
				},
				"gasEstimates": {
					"creation": {
						"codeDepositCost": "1658400",
						"executionCost": "infinite",
						"totalCost": "infinite"
					},
					"external": {
						"allowance(address,address)": "infinite",
						"approve(address,uint256)": "infinite",
						"balanceOf(address)": "1564",
						"burn(uint256)": "infinite",
						"burnFrom(address,uint256)": "infinite",
						"decimals()": "366",
						"decreaseAllowance(address,uint256)": "infinite",
						"increaseAllowance(address,uint256)": "infinite",
						"name()": "infinite",
						"owner()": "1383",
						"pause()": "infinite",
						"paused()": "1290",
						"renounceOwnership()": "24569",
						"symbol()": "infinite",
						"totalSupply()": "1205",
						"transfer(address,uint256)": "infinite",
						"transferFrom(address,address,uint256)": "infinite",
						"transferOwnership(address)": "24983",
						"unpause()": "infinite"
					},
					"internal": {
						"_beforeTokenTransfer(address,address,uint256)": "infinite"
					}
				},
				"methodIdentifiers": {
					"allowance(address,address)": "dd62ed3e",
					"approve(address,uint256)": "095ea7b3",
					"balanceOf(address)": "70a08231",
					"burn(uint256)": "42966c68",
					"burnFrom(address,uint256)": "79cc6790",
					"decimals()": "313ce567",
					"decreaseAllowance(address,uint256)": "a457c2d7",
					"increaseAllowance(address,uint256)": "39509351",
					"name()": "06fdde03",
					"owner()": "8da5cb5b",
					"pause()": "8456cb59",
					"paused()": "5c975abb",
					"renounceOwnership()": "715018a6",
					"symbol()": "95d89b41",
					"totalSupply()": "18160ddd",
					"transfer(address,uint256)": "a9059cbb",
					"transferFrom(address,address,uint256)": "23b872dd",
					"transferOwnership(address)": "f2fde38b",
					"unpause()": "3f4ba83a"
				}
			},
			"storageLayout": {
				"storage": [
					{
						"astId": 129,
						"contract": "kepeng.sol:KEPENG",
						"label": "_balances",
						"offset": 0,
						"slot": "0",
						"type": "t_mapping(t_address,t_uint256)"
					},
					{
						"astId": 135,
						"contract": "kepeng.sol:KEPENG",
						"label": "_allowances",
						"offset": 0,
						"slot": "1",
						"type": "t_mapping(t_address,t_mapping(t_address,t_uint256))"
					},
					{
						"astId": 137,
						"contract": "kepeng.sol:KEPENG",
						"label": "_totalSupply",
						"offset": 0,
						"slot": "2",
						"type": "t_uint256"
					},
					{
						"astId": 139,
						"contract": "kepeng.sol:KEPENG",
						"label": "_name",
						"offset": 0,
						"slot": "3",
						"type": "t_string_storage"
					},
					{
						"astId": 141,
						"contract": "kepeng.sol:KEPENG",
						"label": "_symbol",
						"offset": 0,
						"slot": "4",
						"type": "t_string_storage"
					},
					{
						"astId": 731,
						"contract": "kepeng.sol:KEPENG",
						"label": "_paused",
						"offset": 0,
						"slot": "5",
						"type": "t_bool"
					},
					{
						"astId": 809,
						"contract": "kepeng.sol:KEPENG",
						"label": "_owner",
						"offset": 1,
						"slot": "5",
						"type": "t_address"
					}
				],
				"types": {
					"t_address": {
						"encoding": "inplace",
						"label": "address",
						"numberOfBytes": "20"
					},
					"t_bool": {
						"encoding": "inplace",
						"label": "bool",
						"numberOfBytes": "1"
					},
					"t_mapping(t_address,t_mapping(t_address,t_uint256))": {
						"encoding": "mapping",
						"key": "t_address",
						"label": "mapping(address => mapping(address => uint256))",
						"numberOfBytes": "32",
						"value": "t_mapping(t_address,t_uint256)"
					},
					"t_mapping(t_address,t_uint256)": {
						"encoding": "mapping",
						"key": "t_address",
						"label": "mapping(address => uint256)",
						"numberOfBytes": "32",
						"value": "t_uint256"
					},
					"t_string_storage": {
						"encoding": "bytes",
						"label": "string",
						"numberOfBytes": "32"
					},
					"t_uint256": {
						"encoding": "inplace",
						"label": "uint256",
						"numberOfBytes": "32"
					}
				}
			},
			"userdoc": {
				"kind": "user",
				"methods": {},
				"version": 1
			}
		}
	}
}